Archive member included to satisfy reference by file (symbol)

d:/st/stm32cubeide_1.0.2/stm32cubeide/plugins/com.st.stm32cube.ide.mcu.externaltools.gnu-tools-for-stm32.7-2018-q2-update.win32_1.0.0.201904181610/tools/bin/../lib/gcc/arm-none-eabi/7.3.1/../../../../arm-none-eabi/lib/thumb/v7e-m/fpv4-sp/hard\libc_nano.a(lib_a-atoi.o)
                              Core/Src/User_Parametri.o (atoi)
d:/st/stm32cubeide_1.0.2/stm32cubeide/plugins/com.st.stm32cube.ide.mcu.externaltools.gnu-tools-for-stm32.7-2018-q2-update.win32_1.0.0.201904181610/tools/bin/../lib/gcc/arm-none-eabi/7.3.1/../../../../arm-none-eabi/lib/thumb/v7e-m/fpv4-sp/hard\libc_nano.a(lib_a-errno.o)
                              Core/Src/syscalls.o (__errno)
d:/st/stm32cubeide_1.0.2/stm32cubeide/plugins/com.st.stm32cube.ide.mcu.externaltools.gnu-tools-for-stm32.7-2018-q2-update.win32_1.0.0.201904181610/tools/bin/../lib/gcc/arm-none-eabi/7.3.1/../../../../arm-none-eabi/lib/thumb/v7e-m/fpv4-sp/hard\libc_nano.a(lib_a-exit.o)
                              d:/st/stm32cubeide_1.0.2/stm32cubeide/plugins/com.st.stm32cube.ide.mcu.externaltools.gnu-tools-for-stm32.7-2018-q2-update.win32_1.0.0.201904181610/tools/bin/../lib/gcc/arm-none-eabi/7.3.1/../../../../arm-none-eabi/lib/thumb/v7e-m/fpv4-sp/hard/crt0.o (exit)
d:/st/stm32cubeide_1.0.2/stm32cubeide/plugins/com.st.stm32cube.ide.mcu.externaltools.gnu-tools-for-stm32.7-2018-q2-update.win32_1.0.0.201904181610/tools/bin/../lib/gcc/arm-none-eabi/7.3.1/../../../../arm-none-eabi/lib/thumb/v7e-m/fpv4-sp/hard\libc_nano.a(lib_a-impure.o)
                              d:/st/stm32cubeide_1.0.2/stm32cubeide/plugins/com.st.stm32cube.ide.mcu.externaltools.gnu-tools-for-stm32.7-2018-q2-update.win32_1.0.0.201904181610/tools/bin/../lib/gcc/arm-none-eabi/7.3.1/../../../../arm-none-eabi/lib/thumb/v7e-m/fpv4-sp/hard\libc_nano.a(lib_a-exit.o) (_global_impure_ptr)
d:/st/stm32cubeide_1.0.2/stm32cubeide/plugins/com.st.stm32cube.ide.mcu.externaltools.gnu-tools-for-stm32.7-2018-q2-update.win32_1.0.0.201904181610/tools/bin/../lib/gcc/arm-none-eabi/7.3.1/../../../../arm-none-eabi/lib/thumb/v7e-m/fpv4-sp/hard\libc_nano.a(lib_a-init.o)
                              d:/st/stm32cubeide_1.0.2/stm32cubeide/plugins/com.st.stm32cube.ide.mcu.externaltools.gnu-tools-for-stm32.7-2018-q2-update.win32_1.0.0.201904181610/tools/bin/../lib/gcc/arm-none-eabi/7.3.1/../../../../arm-none-eabi/lib/thumb/v7e-m/fpv4-sp/hard/crt0.o (__libc_init_array)
d:/st/stm32cubeide_1.0.2/stm32cubeide/plugins/com.st.stm32cube.ide.mcu.externaltools.gnu-tools-for-stm32.7-2018-q2-update.win32_1.0.0.201904181610/tools/bin/../lib/gcc/arm-none-eabi/7.3.1/../../../../arm-none-eabi/lib/thumb/v7e-m/fpv4-sp/hard\libc_nano.a(lib_a-memcmp.o)
                              Core/Src/DataFlash.o (memcmp)
d:/st/stm32cubeide_1.0.2/stm32cubeide/plugins/com.st.stm32cube.ide.mcu.externaltools.gnu-tools-for-stm32.7-2018-q2-update.win32_1.0.0.201904181610/tools/bin/../lib/gcc/arm-none-eabi/7.3.1/../../../../arm-none-eabi/lib/thumb/v7e-m/fpv4-sp/hard\libc_nano.a(lib_a-memcpy-stub.o)
                              Core/Src/DynSizeVector.o (memcpy)
d:/st/stm32cubeide_1.0.2/stm32cubeide/plugins/com.st.stm32cube.ide.mcu.externaltools.gnu-tools-for-stm32.7-2018-q2-update.win32_1.0.0.201904181610/tools/bin/../lib/gcc/arm-none-eabi/7.3.1/../../../../arm-none-eabi/lib/thumb/v7e-m/fpv4-sp/hard\libc_nano.a(lib_a-memset.o)
                              d:/st/stm32cubeide_1.0.2/stm32cubeide/plugins/com.st.stm32cube.ide.mcu.externaltools.gnu-tools-for-stm32.7-2018-q2-update.win32_1.0.0.201904181610/tools/bin/../lib/gcc/arm-none-eabi/7.3.1/../../../../arm-none-eabi/lib/thumb/v7e-m/fpv4-sp/hard/crt0.o (memset)
d:/st/stm32cubeide_1.0.2/stm32cubeide/plugins/com.st.stm32cube.ide.mcu.externaltools.gnu-tools-for-stm32.7-2018-q2-update.win32_1.0.0.201904181610/tools/bin/../lib/gcc/arm-none-eabi/7.3.1/../../../../arm-none-eabi/lib/thumb/v7e-m/fpv4-sp/hard\libc_nano.a(lib_a-strcat.o)
                              Core/Src/User_Parametri.o (strcat)
d:/st/stm32cubeide_1.0.2/stm32cubeide/plugins/com.st.stm32cube.ide.mcu.externaltools.gnu-tools-for-stm32.7-2018-q2-update.win32_1.0.0.201904181610/tools/bin/../lib/gcc/arm-none-eabi/7.3.1/../../../../arm-none-eabi/lib/thumb/v7e-m/fpv4-sp/hard\libc_nano.a(lib_a-strcpy.o)
                              Core/Src/User_Parametri.o (strcpy)
d:/st/stm32cubeide_1.0.2/stm32cubeide/plugins/com.st.stm32cube.ide.mcu.externaltools.gnu-tools-for-stm32.7-2018-q2-update.win32_1.0.0.201904181610/tools/bin/../lib/gcc/arm-none-eabi/7.3.1/../../../../arm-none-eabi/lib/thumb/v7e-m/fpv4-sp/hard\libc_nano.a(lib_a-strlen.o)
                              Core/Src/FT_Gpu_Hal.o (strlen)
d:/st/stm32cubeide_1.0.2/stm32cubeide/plugins/com.st.stm32cube.ide.mcu.externaltools.gnu-tools-for-stm32.7-2018-q2-update.win32_1.0.0.201904181610/tools/bin/../lib/gcc/arm-none-eabi/7.3.1/../../../../arm-none-eabi/lib/thumb/v7e-m/fpv4-sp/hard\libc_nano.a(lib_a-strncpy.o)
                              Core/Src/User_Parametri.o (strncpy)
d:/st/stm32cubeide_1.0.2/stm32cubeide/plugins/com.st.stm32cube.ide.mcu.externaltools.gnu-tools-for-stm32.7-2018-q2-update.win32_1.0.0.201904181610/tools/bin/../lib/gcc/arm-none-eabi/7.3.1/../../../../arm-none-eabi/lib/thumb/v7e-m/fpv4-sp/hard\libc_nano.a(lib_a-strtol.o)
                              d:/st/stm32cubeide_1.0.2/stm32cubeide/plugins/com.st.stm32cube.ide.mcu.externaltools.gnu-tools-for-stm32.7-2018-q2-update.win32_1.0.0.201904181610/tools/bin/../lib/gcc/arm-none-eabi/7.3.1/../../../../arm-none-eabi/lib/thumb/v7e-m/fpv4-sp/hard\libc_nano.a(lib_a-atoi.o) (_strtol_r)
d:/st/stm32cubeide_1.0.2/stm32cubeide/plugins/com.st.stm32cube.ide.mcu.externaltools.gnu-tools-for-stm32.7-2018-q2-update.win32_1.0.0.201904181610/tools/bin/../lib/gcc/arm-none-eabi/7.3.1/../../../../arm-none-eabi/lib/thumb/v7e-m/fpv4-sp/hard\libc_nano.a(lib_a-locale.o)
                              d:/st/stm32cubeide_1.0.2/stm32cubeide/plugins/com.st.stm32cube.ide.mcu.externaltools.gnu-tools-for-stm32.7-2018-q2-update.win32_1.0.0.201904181610/tools/bin/../lib/gcc/arm-none-eabi/7.3.1/../../../../arm-none-eabi/lib/thumb/v7e-m/fpv4-sp/hard\libc_nano.a(lib_a-strtol.o) (__locale_ctype_ptr_l)
d:/st/stm32cubeide_1.0.2/stm32cubeide/plugins/com.st.stm32cube.ide.mcu.externaltools.gnu-tools-for-stm32.7-2018-q2-update.win32_1.0.0.201904181610/tools/bin/../lib/gcc/arm-none-eabi/7.3.1/../../../../arm-none-eabi/lib/thumb/v7e-m/fpv4-sp/hard\libc_nano.a(lib_a-mbtowc_r.o)
                              d:/st/stm32cubeide_1.0.2/stm32cubeide/plugins/com.st.stm32cube.ide.mcu.externaltools.gnu-tools-for-stm32.7-2018-q2-update.win32_1.0.0.201904181610/tools/bin/../lib/gcc/arm-none-eabi/7.3.1/../../../../arm-none-eabi/lib/thumb/v7e-m/fpv4-sp/hard\libc_nano.a(lib_a-locale.o) (__ascii_mbtowc)
d:/st/stm32cubeide_1.0.2/stm32cubeide/plugins/com.st.stm32cube.ide.mcu.externaltools.gnu-tools-for-stm32.7-2018-q2-update.win32_1.0.0.201904181610/tools/bin/../lib/gcc/arm-none-eabi/7.3.1/../../../../arm-none-eabi/lib/thumb/v7e-m/fpv4-sp/hard\libc_nano.a(lib_a-strcmp.o)
                              d:/st/stm32cubeide_1.0.2/stm32cubeide/plugins/com.st.stm32cube.ide.mcu.externaltools.gnu-tools-for-stm32.7-2018-q2-update.win32_1.0.0.201904181610/tools/bin/../lib/gcc/arm-none-eabi/7.3.1/../../../../arm-none-eabi/lib/thumb/v7e-m/fpv4-sp/hard\libc_nano.a(lib_a-locale.o) (strcmp)
d:/st/stm32cubeide_1.0.2/stm32cubeide/plugins/com.st.stm32cube.ide.mcu.externaltools.gnu-tools-for-stm32.7-2018-q2-update.win32_1.0.0.201904181610/tools/bin/../lib/gcc/arm-none-eabi/7.3.1/../../../../arm-none-eabi/lib/thumb/v7e-m/fpv4-sp/hard\libc_nano.a(lib_a-wctomb_r.o)
                              d:/st/stm32cubeide_1.0.2/stm32cubeide/plugins/com.st.stm32cube.ide.mcu.externaltools.gnu-tools-for-stm32.7-2018-q2-update.win32_1.0.0.201904181610/tools/bin/../lib/gcc/arm-none-eabi/7.3.1/../../../../arm-none-eabi/lib/thumb/v7e-m/fpv4-sp/hard\libc_nano.a(lib_a-locale.o) (__ascii_wctomb)
d:/st/stm32cubeide_1.0.2/stm32cubeide/plugins/com.st.stm32cube.ide.mcu.externaltools.gnu-tools-for-stm32.7-2018-q2-update.win32_1.0.0.201904181610/tools/bin/../lib/gcc/arm-none-eabi/7.3.1/../../../../arm-none-eabi/lib/thumb/v7e-m/fpv4-sp/hard\libc_nano.a(lib_a-ctype_.o)
                              d:/st/stm32cubeide_1.0.2/stm32cubeide/plugins/com.st.stm32cube.ide.mcu.externaltools.gnu-tools-for-stm32.7-2018-q2-update.win32_1.0.0.201904181610/tools/bin/../lib/gcc/arm-none-eabi/7.3.1/../../../../arm-none-eabi/lib/thumb/v7e-m/fpv4-sp/hard\libc_nano.a(lib_a-locale.o) (_ctype_)
d:/st/stm32cubeide_1.0.2/stm32cubeide/plugins/com.st.stm32cube.ide.mcu.externaltools.gnu-tools-for-stm32.7-2018-q2-update.win32_1.0.0.201904181610/tools/bin/../lib/gcc/arm-none-eabi/7.3.1/thumb/v7e-m/fpv4-sp/hard\libgcc.a(_aeabi_uldivmod.o)
                              Drivers/STM32F4xx_HAL_Driver/Src/stm32f4xx_hal_rcc.o (__aeabi_uldivmod)
d:/st/stm32cubeide_1.0.2/stm32cubeide/plugins/com.st.stm32cube.ide.mcu.externaltools.gnu-tools-for-stm32.7-2018-q2-update.win32_1.0.0.201904181610/tools/bin/../lib/gcc/arm-none-eabi/7.3.1/thumb/v7e-m/fpv4-sp/hard\libgcc.a(_udivmoddi4.o)
                              d:/st/stm32cubeide_1.0.2/stm32cubeide/plugins/com.st.stm32cube.ide.mcu.externaltools.gnu-tools-for-stm32.7-2018-q2-update.win32_1.0.0.201904181610/tools/bin/../lib/gcc/arm-none-eabi/7.3.1/thumb/v7e-m/fpv4-sp/hard\libgcc.a(_aeabi_uldivmod.o) (__udivmoddi4)
d:/st/stm32cubeide_1.0.2/stm32cubeide/plugins/com.st.stm32cube.ide.mcu.externaltools.gnu-tools-for-stm32.7-2018-q2-update.win32_1.0.0.201904181610/tools/bin/../lib/gcc/arm-none-eabi/7.3.1/thumb/v7e-m/fpv4-sp/hard\libgcc.a(_dvmd_tls.o)
                              d:/st/stm32cubeide_1.0.2/stm32cubeide/plugins/com.st.stm32cube.ide.mcu.externaltools.gnu-tools-for-stm32.7-2018-q2-update.win32_1.0.0.201904181610/tools/bin/../lib/gcc/arm-none-eabi/7.3.1/thumb/v7e-m/fpv4-sp/hard\libgcc.a(_aeabi_uldivmod.o) (__aeabi_ldiv0)

Allocating common symbols
Common symbol       size              file

TWaitPB             0x2               Core/Src/DatiStufa.o
NumFan              0x1               Core/Src/DatiStufa.o
OssigenoResiduo     0x1               Core/Src/DatiStufa.o
Anain               0x6               Core/Src/adc.o
Pot3_TOffFan1       0x2               Core/Src/DatiStufa.o
Pot7_TOnFan1        0x2               Core/Src/DatiStufa.o
LinguaDef           0x1               Core/Src/DatiStufa.o
AccC_AttuaFan1      0x2               Core/Src/DatiStufa.o
SpeC_TOnCoclea      0x2               Core/Src/DatiStufa.o
Pot6_AttuaFan3      0x2               Core/Src/DatiStufa.o
AccC                0x2               Core/Src/DatiStufa.o
PortataAriaSet      0x2               Core/Src/DatiStufa.o
Pot4_TOnCoclea      0x2               Core/Src/DatiStufa.o
ScuotDurataCiclo    0x2               Core/Src/DatiStufa.o
AccB_AttuaFan1      0x2               Core/Src/DatiStufa.o
TPreAccCaldo        0x2               Core/Src/DatiStufa.o
RaffB_TOnCoclea     0x2               Core/Src/DatiStufa.o
PreAcc2_AttuaFan1   0x2               Core/Src/DatiStufa.o
PreAcc1             0x2               Core/Src/DatiStufa.o
Pot1_AttuaFan3      0x2               Core/Src/DatiStufa.o
iTempAmbPAN         0x2               Core/Src/DatiStufa.o
TPreAlmPorta        0x2               Core/Src/DatiStufa.o
PuliziaB_Esp        0x2               Core/Src/DatiStufa.o
H2O_Temp            0x2               Core/Src/DatiStufa.o
EspRitardoDec       0x2               Core/Src/DatiStufa.o
AccB_AttuaFan3      0x2               Core/Src/DatiStufa.o
TPreAcc2            0x2               Core/Src/DatiStufa.o
SpeA_TOffFan1       0x2               Core/Src/DatiStufa.o
Pot3_TOnFan1        0x2               Core/Src/DatiStufa.o
IstTempAcqua        0x1               Core/Src/DatiStufa.o
StDownload          0x1               Core/Src/user.o
WaitSetResult       0x20              Core/Src/user.o
InpBMap25           0x2               Core/Src/DatiStufa.o
RaffA_TOffFan1      0x2               Core/Src/DatiStufa.o
PreAccCaldo_Giri2   0x2               Core/Src/DatiStufa.o
AccC_TOffCoclea     0x2               Core/Src/DatiStufa.o
ServNumber          0x8               Core/Src/DatiStufa.o
PuliziaB_AttuaFan3  0x2               Core/Src/DatiStufa.o
GiriMinEspSet       0x2               Core/Src/DatiStufa.o
TempFumi            0x2               Core/Src/DatiStufa.o
hspi2               0x58              Core/Src/main.o
TBlackout           0x2               Core/Src/DatiStufa.o
FireOnA_AttuaFan2   0x2               Core/Src/DatiStufa.o
SpeA_TOnFan1        0x2               Core/Src/DatiStufa.o
FireOnA_TOffFan1    0x2               Core/Src/DatiStufa.o
PwrMode             0x1               Core/Src/OT_Plus_ph_layer.o
LedTimerHandle      0x4               Core/Src/main.o
SpeC_TOnFan1        0x2               Core/Src/DatiStufa.o
Fan3Set             0x2               Core/Src/DatiStufa.o
iCronoPrg           0x1               Core/Src/user.o
PreTempAmbPAN       0x2               Core/Src/OT_Plus.o
GainSanitari        0x2               Core/Src/DatiStufa.o
Pot7_AttuaFan2      0x2               Core/Src/DatiStufa.o
Pot2_Esp            0x2               Core/Src/DatiStufa.o
PreAccCaldo_TOnFan1
                    0x2               Core/Src/DatiStufa.o
RicEspAcc           0x2               Core/Src/DatiStufa.o
DeltaSanitari       0x1               Core/Src/DatiStufa.o
AccC_AttuaFan3      0x2               Core/Src/DatiStufa.o
Pot6_AttuaFan1      0x2               Core/Src/DatiStufa.o
host                0x14              Core/Src/user.o
FotoresThresOn      0x2               Core/Src/DatiStufa.o
Local_ISO3166_1_Code
                    0x3               Core/Src/DatiStufa.o
Pot7_TOffFan1       0x2               Core/Src/DatiStufa.o
InpBMap24           0x2               Core/Src/DatiStufa.o
RaffB_AttuaFan3     0x2               Core/Src/DatiStufa.o
Pot4_Giri2          0x2               Core/Src/DatiStufa.o
PreAcc2_TOffFan1    0x2               Core/Src/DatiStufa.o
TempAlarmFumi       0x2               Core/Src/DatiStufa.o
TempPreAlarmFumi    0x2               Core/Src/DatiStufa.o
SecCounter          0x4               Core/Src/rtc.o
Pulizia_Portata     0x2               Core/Src/DatiStufa.o
SpeB_TOnFan1        0x2               Core/Src/DatiStufa.o
PotMaxGiri          0x2               Core/Src/DatiStufa.o
ResRevision         0x1               Core/Src/res.o
PanEnab3            0x1               Core/Src/DatiStufa.o
Pulizia             0x2               Core/Src/DatiStufa.o
PreAccCaldo_TOffCoclea
                    0x2               Core/Src/DatiStufa.o
BacklightLevel      0x2               Core/Src/user.o
GradienteECO        0x1               Core/Src/DatiStufa.o
Pulizia_TOnCoclea   0x2               Core/Src/DatiStufa.o
pChLogo             0x10              Core/Src/languages.o
hi2c1               0x54              Core/Src/main.o
PuliziaB_Giri2      0x2               Core/Src/DatiStufa.o
FireOnB_Giri2       0x2               Core/Src/DatiStufa.o
PotRitardoInc       0x2               Core/Src/DatiStufa.o
gBySchedaBuild      0x1               Core/Src/DatiStufa.o
PotMaxPortata       0x2               Core/Src/DatiStufa.o
hiwdg               0xc               Core/Src/main.o
TPB                 0x2               Core/Src/DatiStufa.o
MinOrologio         0x1               Core/Src/DatiStufa.o
Pot5_Giri2          0x2               Core/Src/DatiStufa.o
RaffA_Giri2         0x2               Core/Src/DatiStufa.o
PreAcc2_Esp         0x2               Core/Src/DatiStufa.o
MAINHandle          0x4               Core/Src/main.o
CoilBMap0           0x2               Core/Src/DatiStufa.o
Pot8_Giri2          0x2               Core/Src/DatiStufa.o
DurataPreAllPellet  0x2               Core/Src/DatiStufa.o
Pulizia_AttuaFan1   0x2               Core/Src/DatiStufa.o
FotoresThresOff     0x2               Core/Src/DatiStufa.o
RaffB_TOffCoclea    0x2               Core/Src/DatiStufa.o
TSpeA               0x2               Core/Src/DatiStufa.o
Spenta_AttuaFan3    0x2               Core/Src/DatiStufa.o
iLivMenu            0x1               Core/Src/userMenu.o
userSubState        0x1               Core/Src/user.o
TOffCocleaSet       0x2               Core/Src/DatiStufa.o
RaffB_Esp           0x2               Core/Src/DatiStufa.o
Pot5_TOffFan1       0x2               Core/Src/DatiStufa.o
FireOnB_TOffCoclea  0x2               Core/Src/DatiStufa.o
Fan2Set             0x2               Core/Src/DatiStufa.o
AccA_Giri2          0x2               Core/Src/DatiStufa.o
FireOnB_Esp         0x2               Core/Src/DatiStufa.o
Pot5_TOnFan1        0x2               Core/Src/DatiStufa.o
PreAcc2_AttuaFan2   0x2               Core/Src/DatiStufa.o
SpeB_Portata        0x2               Core/Src/DatiStufa.o
TAlarmPorta         0x2               Core/Src/DatiStufa.o
gBySicurezzaVers    0x1               Core/Src/DatiStufa.o
TempSogliaFumi      0x2               Core/Src/DatiStufa.o
DriverRev           0x1               Core/Src/DatiStufa.o
SpeB_AttuaFan3      0x2               Core/Src/DatiStufa.o
PortaIP             0x2               Core/Src/DatiStufa.o
Pot6_Esp            0x2               Core/Src/DatiStufa.o
Pot6                0x2               Core/Src/DatiStufa.o
SpeA_AttuaFan3      0x2               Core/Src/DatiStufa.o
ContaPID            0x1               Core/Src/DatiStufa.o
PreAcc2NumExec      0x1               Core/Src/DatiStufa.o
PreAcc1_Giri2       0x2               Core/Src/DatiStufa.o
Pot6_TOffCoclea     0x2               Core/Src/DatiStufa.o
TAMeasureInibTimer  0x4               Core/Src/main.o
TipoStufa           0x1               Core/Src/DatiStufa.o
TSetOnPompa         0x1               Core/Src/DatiStufa.o
Pot7_Giri2          0x2               Core/Src/DatiStufa.o
uwTick              0x4               Drivers/STM32F4xx_HAL_Driver/Src/stm32f4xx_hal.o
AccB_TOffCoclea     0x2               Core/Src/DatiStufa.o
xQueueRegistry      0x40              Middlewares/Third_Party/FreeRTOS/Source/queue.o
Pot5_AttuaFan3      0x2               Core/Src/DatiStufa.o
Dns                 0x4               Core/Src/DatiStufa.o
userCounterTime     0x4               Core/Src/user.o
CtrlArea            0x10              Core/Src/res.o
TempOnFumi          0x2               Core/Src/DatiStufa.o
PreAcc1_TOnFan1     0x2               Core/Src/DatiStufa.o
PotIdro             0x1               Core/Src/DatiStufa.o
TWaitScuot          0x2               Core/Src/DatiStufa.o
Pot3_AttuaFan2      0x2               Core/Src/DatiStufa.o
Pot4_AttuaFan3      0x2               Core/Src/DatiStufa.o
SpeC_Portata        0x2               Core/Src/DatiStufa.o
pFlash              0x20              Drivers/STM32F4xx_HAL_Driver/Src/stm32f4xx_hal_flash.o
ContaDurataEco      0x2               Core/Src/DatiStufa.o
Pot2                0x2               Core/Src/DatiStufa.o
TempP3              0x2               Core/Src/DatiStufa.o
PuliziaB_TOffCoclea
                    0x2               Core/Src/DatiStufa.o
InpBMap21           0x2               Core/Src/DatiStufa.o
RAMFontTableAddr    0x3c              Core/Src/fonts.o
OT_Stat             0x1               Core/Src/OT_Plus.o
Pulizia_TOffFan1    0x2               Core/Src/DatiStufa.o
Pot6_TOnFan1        0x2               Core/Src/DatiStufa.o
Pot1_TOffCoclea     0x2               Core/Src/DatiStufa.o
Pot1_AttuaFan2      0x2               Core/Src/DatiStufa.o
SpeC_TOffFan1       0x2               Core/Src/DatiStufa.o
MinSetFan3          0x1               Core/Src/DatiStufa.o
SpeC_TOffCoclea     0x2               Core/Src/DatiStufa.o
Pot8_Esp            0x2               Core/Src/DatiStufa.o
Pot7_AttuaFan1      0x2               Core/Src/DatiStufa.o
HoldBMap8194        0x2               Core/Src/DatiStufa.o
Pot3_Portata        0x2               Core/Src/DatiStufa.o
SpeA_Portata        0x2               Core/Src/DatiStufa.o
SpeB_TOnCoclea      0x2               Core/Src/DatiStufa.o
StatoStufa          0x1               Core/Src/DatiStufa.o
fontTitle           0x1               Core/Src/res.o
Pot5_AttuaFan2      0x2               Core/Src/DatiStufa.o
Pot3                0x2               Core/Src/DatiStufa.o
SpeB_Giri2          0x2               Core/Src/DatiStufa.o
AccA_TOnFan1        0x2               Core/Src/DatiStufa.o
SpeB_AttuaFan1      0x2               Core/Src/DatiStufa.o
AccB                0x2               Core/Src/DatiStufa.o
Pot2_TOffCoclea     0x2               Core/Src/DatiStufa.o
Spenta_AttuaFan1    0x2               Core/Src/DatiStufa.o
PotMaxCoclea        0x1               Core/Src/DatiStufa.o
PeriodoFan1         0x2               Core/Src/DatiStufa.o
SpeA_TOnCoclea      0x2               Core/Src/DatiStufa.o
iVoceMenu           0x6               Core/Src/userMenu.o
gunTemp             0x1               Core/Src/DatiStufa.o
Spenta_TOffCoclea   0x2               Core/Src/DatiStufa.o
Pulizia_TOffCoclea  0x2               Core/Src/DatiStufa.o
SetpSanitari        0x2               Core/Src/DatiStufa.o
cntRetry            0x1               Core/Src/OT_Plus_data_layer.o
Pot2_TOnCoclea      0x2               Core/Src/DatiStufa.o
FireOnB_AttuaFan2   0x2               Core/Src/DatiStufa.o
DurataMaxPreAllFumi
                    0x2               Core/Src/DatiStufa.o
VBatt               0x2               Core/Src/DecodInput.o
iLimReq             0x1               Core/Src/OT_Plus.o
FireOnA_TOnCoclea   0x2               Core/Src/DatiStufa.o
Pot6_AttuaFan2      0x2               Core/Src/DatiStufa.o
OT_Result           0x1               Core/Src/OT_Plus.o
PuliziaB_Portata    0x2               Core/Src/DatiStufa.o
HoldBMap8315        0x2               Core/Src/DatiStufa.o
DeltaPortata        0x1               Core/Src/DatiStufa.o
AccB_AttuaFan2      0x2               Core/Src/DatiStufa.o
DigInput            0x1               Core/Src/DecodInput.o
PreAccCaldo_AttuaFan1
                    0x2               Core/Src/DatiStufa.o
Pot4_TOffFan1       0x2               Core/Src/DatiStufa.o
PreAccCaldo         0x2               Core/Src/DatiStufa.o
PuliziaB_AttuaFan2  0x2               Core/Src/DatiStufa.o
PreAccCaldo_TOnCoclea
                    0x2               Core/Src/DatiStufa.o
hadc1               0x48              Core/Src/main.o
iFontGroup          0x1               Core/Src/res.o
WPSPin              0x5               Core/Src/DatiStufa.o
Pot4_Portata        0x2               Core/Src/DatiStufa.o
GradienteAlmFumi    0x1               Core/Src/DatiStufa.o
PreAcc1_AttuaFan3   0x2               Core/Src/DatiStufa.o
Pot8_TOnCoclea      0x2               Core/Src/DatiStufa.o
AccA_TOffCoclea     0x2               Core/Src/DatiStufa.o
Pot2_TOnFan1        0x2               Core/Src/DatiStufa.o
Sleep               0x2               Core/Src/crono.o
tmpRFid             0x1               Core/Src/user.o
PreAcc1_TOnCoclea   0x2               Core/Src/DatiStufa.o
SpeC_AttuaFan1      0x2               Core/Src/DatiStufa.o
ResMaintenance      0x1               Core/Src/res.o
Consumo             0x2               Core/Src/DatiStufa.o
AccA_AttuaFan1      0x2               Core/Src/DatiStufa.o
StatoLogicoPassato  0x1               Core/Src/DatiStufa.o
Pot8_Portata        0x2               Core/Src/DatiStufa.o
StructSPI_2         0x4               Core/Src/DatiStufa.o
printfMutexHandle   0x4               Core/Src/main.o
userCurrentState    0x1               Core/Src/user.o
DurataBlkoutRecovery
                    0x2               Core/Src/DatiStufa.o
Spenta_Esp          0x2               Core/Src/DatiStufa.o
fontValue           0x1               Core/Src/res.o
PortataCritica      0x2               Core/Src/DatiStufa.o
AccC_AttuaFan2      0x2               Core/Src/DatiStufa.o
RaffA               0x2               Core/Src/DatiStufa.o
FireOnB_TOffFan1    0x2               Core/Src/DatiStufa.o
FireOnB_AttuaFan1   0x2               Core/Src/DatiStufa.o
SpeC                0x2               Core/Src/DatiStufa.o
PercVBatt           0x2               Core/Src/DecodInput.o
Pot8_TOffFan1       0x2               Core/Src/DatiStufa.o
CryptoKey           0x41              Core/Src/DatiStufa.o
fontMax             0x1               Core/Src/res.o
Pot8                0x2               Core/Src/DatiStufa.o
Pot8_AttuaFan2      0x2               Core/Src/DatiStufa.o
sDescPar            0x5               Core/Src/userMenu.o
Pot1_TOnFan1        0x2               Core/Src/DatiStufa.o
gBySchedaRev        0x1               Core/Src/DatiStufa.o
Pulizia_Giri2       0x2               Core/Src/DatiStufa.o
Pot1_TOnCoclea      0x2               Core/Src/DatiStufa.o
PuliziaB_TOnFan1    0x2               Core/Src/DatiStufa.o
DateTime            0x8               Core/Src/rtc.o
ADCxConvertedValue  0x6               Core/Src/adc.o
PreAcc1NumExec      0x1               Core/Src/DatiStufa.o
TSpeC               0x2               Core/Src/DatiStufa.o
RaffB_AttuaFan2     0x2               Core/Src/DatiStufa.o
Pot2_TOffFan1       0x2               Core/Src/DatiStufa.o
SpeA_TOffCoclea     0x2               Core/Src/DatiStufa.o
TPreAlmAriaCombust  0x2               Core/Src/DatiStufa.o
RicEsp              0x2               Core/Src/DatiStufa.o
Pot7_Portata        0x2               Core/Src/DatiStufa.o
RaffA_TOnFan1       0x2               Core/Src/DatiStufa.o
H2O_TSet            0x1               Core/Src/DatiStufa.o
AccC_TOffFan1       0x2               Core/Src/DatiStufa.o
OT_DL_RFFilter      0x1               Core/Src/OT_Plus_data_layer.o
RaffB_Giri2         0x2               Core/Src/DatiStufa.o
Pot6_TOffFan1       0x2               Core/Src/DatiStufa.o
gBySchedaVers       0x1               Core/Src/DatiStufa.o
FireOnB_AttuaFan3   0x2               Core/Src/DatiStufa.o
AccA_Esp            0x2               Core/Src/DatiStufa.o
SpeC_AttuaFan3      0x2               Core/Src/DatiStufa.o
Pot7_TOnCoclea      0x2               Core/Src/DatiStufa.o
Giri2Set            0x2               Core/Src/DatiStufa.o
VelocitaEspulsore2  0x2               Core/Src/DatiStufa.o
CntSenseBat         0x1               Core/Src/DecodInput.o
ContaDurata2        0x2               Core/Src/DatiStufa.o
cntPausa            0x1               Core/Src/OT_Plus_data_layer.o
TFireOn             0x2               Core/Src/DatiStufa.o
TRaffA              0x2               Core/Src/DatiStufa.o
Vref                0x2               Core/Src/DecodInput.o
TempSogliaScamb     0x2               Core/Src/DatiStufa.o
BattUp              0x1               Core/Src/DecodInput.o
H2O_Flow            0x1               Core/Src/DatiStufa.o
RaffB_TOffFan1      0x2               Core/Src/DatiStufa.o
TipoFrenataCoclea   0x1               Core/Src/DatiStufa.o
hdma_adc1           0x60              Core/Src/main.o
AccA_TOnCoclea      0x2               Core/Src/DatiStufa.o
TipoMotoreEsp2      0x1               Core/Src/DatiStufa.o
DriverCod           0x1               Core/Src/DatiStufa.o
RaffB_Portata       0x2               Core/Src/DatiStufa.o
HoldBMap6           0x2               Core/Src/DatiStufa.o
OpeMode             0x1               Core/Src/main.o
TempP0              0x2               Core/Src/DatiStufa.o
Pot6_Giri2          0x2               Core/Src/DatiStufa.o
Ossigeno            0x1               Core/Src/DatiStufa.o
TOffFan1Set         0x2               Core/Src/DatiStufa.o
hrtc                0x20              Core/Src/main.o
DataFan3            0x4               Core/Src/DatiStufa.o
Spenta_AttuaFan2    0x2               Core/Src/DatiStufa.o
iPageMenu           0x6               Core/Src/userMenu.o
EVEMutexHandle      0x4               Core/Src/main.o
RaffA_Portata       0x2               Core/Src/DatiStufa.o
str1                0x10f             Core/Src/Utils.o
TAccB               0x2               Core/Src/DatiStufa.o
FireOnA             0x2               Core/Src/DatiStufa.o
PreAcc1_TOffCoclea  0x2               Core/Src/DatiStufa.o
AccB_TOffFan1       0x2               Core/Src/DatiStufa.o
AccC_Portata        0x2               Core/Src/DatiStufa.o
userNextPointer     0x4               Core/Src/user.o
PotAttuata          0x1               Core/Src/DatiStufa.o
USERHandle          0x4               Core/Src/main.o
NVRam               0x50              Core/Src/nvram.o
userParValue        0x4               Core/Src/user.o
RicPelletAcc        0x2               Core/Src/DatiStufa.o
PreAcc2             0x2               Core/Src/DatiStufa.o
Pot7_Esp            0x2               Core/Src/DatiStufa.o
Pot4_Esp            0x2               Core/Src/DatiStufa.o
DataSPI0            0x4               Core/Src/DatiStufa.o
Ssid                0x21              Core/Src/DatiStufa.o
AccC_TOnFan1        0x2               Core/Src/DatiStufa.o
IdRF                0x1               Core/Src/DatiStufa.o
Pot2_Portata        0x2               Core/Src/DatiStufa.o
AccB_Esp            0x2               Core/Src/DatiStufa.o
PotRitardoDec       0x2               Core/Src/DatiStufa.o
RaffB_AttuaFan1     0x2               Core/Src/DatiStufa.o
Pot2_AttuaFan2      0x2               Core/Src/DatiStufa.o
AccA_TOffFan1       0x2               Core/Src/DatiStufa.o
StatoLogico         0x1               Core/Src/DatiStufa.o
TempAmb             0x2               Core/Src/DecodInput.o
Pot4_TOnFan1        0x2               Core/Src/DatiStufa.o
SpeB_TOffCoclea     0x2               Core/Src/DatiStufa.o
PreAcc1_TOffFan1    0x2               Core/Src/DatiStufa.o
Pot5_TOnCoclea      0x2               Core/Src/DatiStufa.o
Pot1_Giri2          0x2               Core/Src/DatiStufa.o
TSwitchOnECO        0x2               Core/Src/DatiStufa.o
ParamCode           0x2               Core/Src/DatiStufa.o
gBySicurezzaCod     0x1               Core/Src/DatiStufa.o
Pot4_AttuaFan2      0x2               Core/Src/DatiStufa.o
Pot5                0x2               Core/Src/DatiStufa.o
SpeA_AttuaFan2      0x2               Core/Src/DatiStufa.o
InpBMap23           0x2               Core/Src/DatiStufa.o
Pot1_TOffFan1       0x2               Core/Src/DatiStufa.o
ConfigIdro          0x1               Core/Src/DatiStufa.o
K_Sonda             0x1               Core/Src/DatiStufa.o
AccA_AttuaFan3      0x2               Core/Src/DatiStufa.o
MinSetFan2          0x1               Core/Src/DatiStufa.o
OreSAT              0x2               Core/Src/DatiStufa.o
MinSetFan1          0x1               Core/Src/DatiStufa.o
PreAcc1_Esp         0x2               Core/Src/DatiStufa.o
gStrCmdMB           0x4               Core/Src/DatiStufa.o
FireOnA_AttuaFan1   0x2               Core/Src/DatiStufa.o
SecOrologio         0x1               Core/Src/DatiStufa.o
MinPowerPB          0x1               Core/Src/DatiStufa.o
maxLen              0x1               Core/Src/userMenu.o
Pot3_Giri2          0x2               Core/Src/DatiStufa.o
TAccC               0x2               Core/Src/DatiStufa.o
SpeA_Esp            0x2               Core/Src/DatiStufa.o
FireOnB_TOnCoclea   0x2               Core/Src/DatiStufa.o
Pot5_AttuaFan1      0x2               Core/Src/DatiStufa.o
H2O_TSetSan         0x1               Core/Src/DatiStufa.o
Pot1                0x2               Core/Src/DatiStufa.o
PotCalc             0x1               Core/Src/DatiStufa.o
TShutDownECO        0x2               Core/Src/DatiStufa.o
Spenta_TOnFan1      0x2               Core/Src/DatiStufa.o
TempP2              0x2               Core/Src/DatiStufa.o
AccB_Giri2          0x2               Core/Src/DatiStufa.o
ScuotNCicli         0x1               Core/Src/DatiStufa.o
FireOnB_Portata     0x2               Core/Src/DatiStufa.o
FireOnA_Giri2       0x2               Core/Src/DatiStufa.o
Pot1_Esp            0x2               Core/Src/DatiStufa.o
AccA                0x2               Core/Src/DatiStufa.o
TWarmUp             0x2               Core/Src/DatiStufa.o
PreAcc1_AttuaFan2   0x2               Core/Src/DatiStufa.o
Pot8_TOnFan1        0x2               Core/Src/DatiStufa.o
PuliziaB_TOffFan1   0x2               Core/Src/DatiStufa.o
pByPassCodice       0x1               Core/Src/DatiStufa.o
DeltaTempCaldo      0x1               Core/Src/DatiStufa.o
Pot7_TOffCoclea     0x2               Core/Src/DatiStufa.o
Pot1_AttuaFan1      0x2               Core/Src/DatiStufa.o
PreAcc2_Giri2       0x2               Core/Src/DatiStufa.o
PuliziaB_AttuaFan1  0x2               Core/Src/DatiStufa.o
PuliziaB_TOnCoclea  0x2               Core/Src/DatiStufa.o
pByPassLettera      0x1               Core/Src/DatiStufa.o
cntExit4Alarm       0x1               Core/Src/user.o
RaffA_AttuaFan3     0x2               Core/Src/DatiStufa.o
RaffA_AttuaFan1     0x2               Core/Src/DatiStufa.o
TPreAcc1            0x2               Core/Src/DatiStufa.o
PortataAria         0x2               Core/Src/DatiStufa.o
OreFunz             0x4               Core/Src/DatiStufa.o
CTPHandle           0x4               Core/Src/main.o
Pot7_AttuaFan3      0x2               Core/Src/DatiStufa.o
Ip                  0x4               Core/Src/DatiStufa.o
Pot5_Portata        0x2               Core/Src/DatiStufa.o
GainRisc            0x2               Core/Src/DatiStufa.o
Pot2_Giri2          0x2               Core/Src/DatiStufa.o
SpeA_AttuaFan1      0x2               Core/Src/DatiStufa.o
pStringSet_RawData_Header
                    0x4               Core/Src/languages.o
PuliziaB            0x2               Core/Src/DatiStufa.o
HoldBMap286         0x2               Core/Src/DatiStufa.o
huart6              0x40              Core/Src/main.o
UserRequest         0x1               Core/Src/main.o
PreAcc1_AttuaFan1   0x2               Core/Src/DatiStufa.o
AccB_Portata        0x2               Core/Src/DatiStufa.o
DFMutexHandle       0x4               Core/Src/main.o
Spenta_Portata      0x2               Core/Src/DatiStufa.o
HoldBMap305         0x2               Core/Src/DatiStufa.o
SetIdroPompaOff     0x1               Core/Src/DatiStufa.o
Pulizia_AttuaFan3   0x2               Core/Src/DatiStufa.o
PreAcc2_TOnFan1     0x2               Core/Src/DatiStufa.o
InpBMap115          0x2               Core/Src/DatiStufa.o
Spenta_TOffFan1     0x2               Core/Src/DatiStufa.o
Pot1_Portata        0x2               Core/Src/DatiStufa.o
TOnAux              0x1               Core/Src/DatiStufa.o
LivAccesso          0x1               Core/Src/userMenu.o
StatoAttuazioni     0x1               Core/Src/DatiStufa.o
hspi1               0x58              Core/Src/main.o
Font_RawData_Header
                    0xa2              Core/Src/fonts.o
Pot3_Esp            0x2               Core/Src/DatiStufa.o
FireOnA_Esp         0x2               Core/Src/DatiStufa.o
HoldBMap8316        0x2               Core/Src/DatiStufa.o
gBySicurezzaBuild   0x1               Core/Src/DatiStufa.o
TempoOn             0x2               Core/Src/DatiStufa.o
SpeB_TOffFan1       0x2               Core/Src/DatiStufa.o
rfID                0x1               Core/Src/OT_Plus_ph_layer.o
TFireOnB            0x2               Core/Src/DatiStufa.o
AccB_TOnCoclea      0x2               Core/Src/DatiStufa.o
PreAcc2_AttuaFan3   0x2               Core/Src/DatiStufa.o
OTdelay             0x1               Core/Src/DatiStufa.o
TPBB                0x2               Core/Src/DatiStufa.o
Pot6_TOnCoclea      0x2               Core/Src/DatiStufa.o
Pot4_TOffCoclea     0x2               Core/Src/DatiStufa.o
SigleStati          0xc               Core/Src/res.o
VelocitaEspulsore   0x2               Core/Src/DatiStufa.o
TOnCocleaSet        0x2               Core/Src/DatiStufa.o
pChTipoDesc         0x48              Core/Src/languages.o
RicPellet           0x2               Core/Src/DatiStufa.o
Pot3_AttuaFan1      0x2               Core/Src/DatiStufa.o
Pot2_AttuaFan3      0x2               Core/Src/DatiStufa.o
AttEsp              0x2               Core/Src/DatiStufa.o
FireOnB             0x2               Core/Src/DatiStufa.o
RaffA_TOnCoclea     0x2               Core/Src/DatiStufa.o
huart2              0x40              Core/Src/main.o
RaffA_TOffCoclea    0x2               Core/Src/DatiStufa.o
Pot5_Esp            0x2               Core/Src/DatiStufa.o
PreAccCaldo_AttuaFan2
                    0x2               Core/Src/DatiStufa.o
NumFontGroup        0x1               Core/Src/fonts.o
ResVersion          0x1               Core/Src/res.o
I2CMutexHandle      0x4               Core/Src/main.o
Pot3_TOnCoclea      0x2               Core/Src/DatiStufa.o
RaffB               0x2               Core/Src/DatiStufa.o
AccA_Portata        0x2               Core/Src/DatiStufa.o
SpeA                0x2               Core/Src/DatiStufa.o
str                 0x10f             Core/Src/Utils.o
SpeC_Esp            0x2               Core/Src/DatiStufa.o
Fan1Set             0x2               Core/Src/DatiStufa.o
Spenta              0x2               Core/Src/DatiStufa.o
TOnFan1Set          0x2               Core/Src/DatiStufa.o
Pot8_AttuaFan3      0x2               Core/Src/DatiStufa.o
LivFotores          0x2               Core/Src/DatiStufa.o
OT_DL_Stat          0x1               Core/Src/OT_Plus_data_layer.o
PreAcc2_TOffCoclea  0x2               Core/Src/DatiStufa.o
Pulizia_TOnFan1     0x2               Core/Src/DatiStufa.o
strTab              0x27e             Core/Src/userMenu.o
PesataPellet        0x2               Core/Src/DatiStufa.o
TempOnScamb         0x2               Core/Src/DatiStufa.o
NumLanguage         0x1               Core/Src/DatiStufa.o
PreAccCaldo_Esp     0x2               Core/Src/DatiStufa.o
SystemFlags         0x4               Core/Src/main.o
DeltaTAssenzaFiamma
                    0x1               Core/Src/DatiStufa.o
AccC_TOnCoclea      0x2               Core/Src/DatiStufa.o
NumAcc              0x2               Core/Src/DatiStufa.o
AccC_Giri2          0x2               Core/Src/DatiStufa.o
StatoAllBlack       0x1               Core/Src/DatiStufa.o
SpeB                0x2               Core/Src/DatiStufa.o
gBySicurezzaRev     0x1               Core/Src/DatiStufa.o
HoldBMap23          0x2               Core/Src/DatiStufa.o
SpeC_AttuaFan2      0x2               Core/Src/DatiStufa.o
gBySchedaCod        0x1               Core/Src/DatiStufa.o
OT_NextStat         0x1               Core/Src/OT_Plus.o
Pot7                0x2               Core/Src/DatiStufa.o
TRaffB              0x2               Core/Src/DatiStufa.o
TempP4              0x2               Core/Src/DatiStufa.o
AccB_TOnFan1        0x2               Core/Src/DatiStufa.o
TempOffFumi         0x2               Core/Src/DatiStufa.o
RaffB_TOnFan1       0x2               Core/Src/DatiStufa.o
PreAccCaldo_TOffFan1
                    0x2               Core/Src/DatiStufa.o
FireOnA_TOffCoclea  0x2               Core/Src/DatiStufa.o
str2                0x10f             Core/Src/Utils.o
AlarmRecord         0x32              Core/Src/userAllarmi.o
SpeB_Esp            0x2               Core/Src/DatiStufa.o
RaffA_Esp           0x2               Core/Src/DatiStufa.o
Pot8_TOffCoclea     0x2               Core/Src/DatiStufa.o
Spenta_Giri2        0x2               Core/Src/DatiStufa.o
TempP1              0x2               Core/Src/DatiStufa.o
InpBMap22           0x2               Core/Src/DatiStufa.o
PreAccCaldo_AttuaFan3
                    0x2               Core/Src/DatiStufa.o
OT_DL_Pausa         0x2               Core/Src/OT_Plus_data_layer.o
FireOnA_AttuaFan3   0x2               Core/Src/DatiStufa.o
RaffA_AttuaFan2     0x2               Core/Src/DatiStufa.o
Spenta_TOnCoclea    0x2               Core/Src/DatiStufa.o
Pot5_TOffCoclea     0x2               Core/Src/DatiStufa.o
TempAmbMB           0x2               Core/Src/DatiStufa.o
TipoAllarme         0x1               Core/Src/DatiStufa.o
Gateway             0x4               Core/Src/DatiStufa.o
PreAcc2_Portata     0x2               Core/Src/DatiStufa.o
EspRitardoInc       0x2               Core/Src/DatiStufa.o
OreSATLimite        0x2               Core/Src/DatiStufa.o
PeriodoCoclea       0x2               Core/Src/DatiStufa.o
PressH2OMax         0x1               Core/Src/DatiStufa.o
ContaDurata1        0x1               Core/Src/DatiStufa.o
TouchQueueHandle    0x4               Core/Src/user.o
TSpeB               0x2               Core/Src/DatiStufa.o
Pot2_AttuaFan1      0x2               Core/Src/DatiStufa.o
OT_LimitStep_Requested
                    0x2a              Core/Src/OT_Plus.o
Subnet              0x4               Core/Src/DatiStufa.o
SpeC_Giri2          0x2               Core/Src/DatiStufa.o
Pulizia_AttuaFan2   0x2               Core/Src/DatiStufa.o
TipoFrenataFan1     0x1               Core/Src/DatiStufa.o
FireOnB_TOnFan1     0x2               Core/Src/DatiStufa.o
Pulizia_Esp         0x2               Core/Src/DatiStufa.o
Pot6_Portata        0x2               Core/Src/DatiStufa.o
HoldBMap306         0x2               Core/Src/DatiStufa.o
DriverBuild         0x1               Core/Src/DatiStufa.o
Pot3_AttuaFan3      0x2               Core/Src/DatiStufa.o
PreAcc1_Portata     0x2               Core/Src/DatiStufa.o
fontDesc            0x1               Core/Src/res.o
Pot4_AttuaFan1      0x2               Core/Src/DatiStufa.o
CntChargeBat        0x1               Core/Src/DecodInput.o
Pot4                0x2               Core/Src/DatiStufa.o
FireOnA_Portata     0x2               Core/Src/DatiStufa.o
iLanguage           0x1               Core/Src/DatiStufa.o
AccC_Esp            0x2               Core/Src/DatiStufa.o
DriverVers          0x1               Core/Src/DatiStufa.o
TipoMotoreEsp       0x1               Core/Src/DatiStufa.o
Pot8_AttuaFan1      0x2               Core/Src/DatiStufa.o
Flag                0x1               Core/Src/user.o
PreAccCaldo_Portata
                    0x2               Core/Src/DatiStufa.o
PreAcc2_TOnCoclea   0x2               Core/Src/DatiStufa.o
IndexVisItem        0x19              Core/Src/userMenu.o
SpeA_Giri2          0x2               Core/Src/DatiStufa.o
SpeB_AttuaFan2      0x2               Core/Src/DatiStufa.o
ParamRel            0x2               Core/Src/DatiStufa.o
Pot3_TOffCoclea     0x2               Core/Src/DatiStufa.o
FireOnA_TOnFan1     0x2               Core/Src/DatiStufa.o
AccA_AttuaFan2      0x2               Core/Src/DatiStufa.o

Discarded input sections

 .text          0x0000000000000000        0x0 d:/st/stm32cubeide_1.0.2/stm32cubeide/plugins/com.st.stm32cube.ide.mcu.externaltools.gnu-tools-for-stm32.7-2018-q2-update.win32_1.0.0.201904181610/tools/bin/../lib/gcc/arm-none-eabi/7.3.1/thumb/v7e-m/fpv4-sp/hard/crti.o
 .data          0x0000000000000000        0x0 d:/st/stm32cubeide_1.0.2/stm32cubeide/plugins/com.st.stm32cube.ide.mcu.externaltools.gnu-tools-for-stm32.7-2018-q2-update.win32_1.0.0.201904181610/tools/bin/../lib/gcc/arm-none-eabi/7.3.1/thumb/v7e-m/fpv4-sp/hard/crti.o
 .bss           0x0000000000000000        0x0 d:/st/stm32cubeide_1.0.2/stm32cubeide/plugins/com.st.stm32cube.ide.mcu.externaltools.gnu-tools-for-stm32.7-2018-q2-update.win32_1.0.0.201904181610/tools/bin/../lib/gcc/arm-none-eabi/7.3.1/thumb/v7e-m/fpv4-sp/hard/crti.o
 .data          0x0000000000000000        0x4 d:/st/stm32cubeide_1.0.2/stm32cubeide/plugins/com.st.stm32cube.ide.mcu.externaltools.gnu-tools-for-stm32.7-2018-q2-update.win32_1.0.0.201904181610/tools/bin/../lib/gcc/arm-none-eabi/7.3.1/thumb/v7e-m/fpv4-sp/hard/crtbegin.o
 .text          0x0000000000000000       0x74 d:/st/stm32cubeide_1.0.2/stm32cubeide/plugins/com.st.stm32cube.ide.mcu.externaltools.gnu-tools-for-stm32.7-2018-q2-update.win32_1.0.0.201904181610/tools/bin/../lib/gcc/arm-none-eabi/7.3.1/../../../../arm-none-eabi/lib/thumb/v7e-m/fpv4-sp/hard/crt0.o
 .data          0x0000000000000000        0x0 d:/st/stm32cubeide_1.0.2/stm32cubeide/plugins/com.st.stm32cube.ide.mcu.externaltools.gnu-tools-for-stm32.7-2018-q2-update.win32_1.0.0.201904181610/tools/bin/../lib/gcc/arm-none-eabi/7.3.1/../../../../arm-none-eabi/lib/thumb/v7e-m/fpv4-sp/hard/crt0.o
 .bss           0x0000000000000000        0x0 d:/st/stm32cubeide_1.0.2/stm32cubeide/plugins/com.st.stm32cube.ide.mcu.externaltools.gnu-tools-for-stm32.7-2018-q2-update.win32_1.0.0.201904181610/tools/bin/../lib/gcc/arm-none-eabi/7.3.1/../../../../arm-none-eabi/lib/thumb/v7e-m/fpv4-sp/hard/crt0.o
 .ARM.extab     0x0000000000000000        0x0 d:/st/stm32cubeide_1.0.2/stm32cubeide/plugins/com.st.stm32cube.ide.mcu.externaltools.gnu-tools-for-stm32.7-2018-q2-update.win32_1.0.0.201904181610/tools/bin/../lib/gcc/arm-none-eabi/7.3.1/../../../../arm-none-eabi/lib/thumb/v7e-m/fpv4-sp/hard/crt0.o
 .ARM.exidx     0x0000000000000000        0x8 d:/st/stm32cubeide_1.0.2/stm32cubeide/plugins/com.st.stm32cube.ide.mcu.externaltools.gnu-tools-for-stm32.7-2018-q2-update.win32_1.0.0.201904181610/tools/bin/../lib/gcc/arm-none-eabi/7.3.1/../../../../arm-none-eabi/lib/thumb/v7e-m/fpv4-sp/hard/crt0.o
 .ARM.attributes
                0x0000000000000000       0x20 d:/st/stm32cubeide_1.0.2/stm32cubeide/plugins/com.st.stm32cube.ide.mcu.externaltools.gnu-tools-for-stm32.7-2018-q2-update.win32_1.0.0.201904181610/tools/bin/../lib/gcc/arm-none-eabi/7.3.1/../../../../arm-none-eabi/lib/thumb/v7e-m/fpv4-sp/hard/crt0.o
 .group         0x0000000000000000        0xc Core/Src/DataFlash.o
 .group         0x0000000000000000        0xc Core/Src/DataFlash.o
 .group         0x0000000000000000        0xc Core/Src/DataFlash.o
 .group         0x0000000000000000        0xc Core/Src/DataFlash.o
 .group         0x0000000000000000        0xc Core/Src/DataFlash.o
 .group         0x0000000000000000        0xc Core/Src/DataFlash.o
 .group         0x0000000000000000        0xc Core/Src/DataFlash.o
Memory Configuration

Name             Origin             Length             Attributes
RAM              0x0000000020000000 0x0000000000020000 xrw
FLASH            0x0000000008000000 0x0000000000080000 xr
*default*        0x0000000000000000 0xffffffffffffffff

Linker script and memory map

LOAD d:/st/stm32cubeide_1.0.2/stm32cubeide/plugins/com.st.stm32cube.ide.mcu.externaltools.gnu-tools-for-stm32.7-2018-q2-update.win32_1.0.0.201904181610/tools/bin/../lib/gcc/arm-none-eabi/7.3.1/thumb/v7e-m/fpv4-sp/hard/crti.o
LOAD d:/st/stm32cubeide_1.0.2/stm32cubeide/plugins/com.st.stm32cube.ide.mcu.externaltools.gnu-tools-for-stm32.7-2018-q2-update.win32_1.0.0.201904181610/tools/bin/../lib/gcc/arm-none-eabi/7.3.1/thumb/v7e-m/fpv4-sp/hard/crtbegin.o
LOAD d:/st/stm32cubeide_1.0.2/stm32cubeide/plugins/com.st.stm32cube.ide.mcu.externaltools.gnu-tools-for-stm32.7-2018-q2-update.win32_1.0.0.201904181610/tools/bin/../lib/gcc/arm-none-eabi/7.3.1/../../../../arm-none-eabi/lib/thumb/v7e-m/fpv4-sp/hard/crt0.o
LOAD Core/Src/DataFlash.o
LOAD Core/Src/DatiStufa.o
LOAD Core/Src/DecodInput.o
LOAD Core/Src/DynSizeVector.o
LOAD Core/Src/FT_CoPro_Cmds.o
LOAD Core/Src/FT_Gpu_Hal.o
LOAD Core/Src/Led.o
LOAD Core/Src/OT_Plus.o
LOAD Core/Src/OT_Plus_data_layer.o
LOAD Core/Src/OT_Plus_ph_layer.o
LOAD Core/Src/OT_Plus_tabelle.o
LOAD Core/Src/TimeBase.o
LOAD Core/Src/User_Parametri.o
LOAD Core/Src/Utils.o
LOAD Core/Src/adc.o
LOAD Core/Src/crono.o
LOAD Core/Src/ctp.o
LOAD Core/Src/dwt_stm32_delay.o
LOAD Core/Src/fonts.o
LOAD Core/Src/freertos.o
LOAD Core/Src/i2cm_drv.o
LOAD Core/Src/languages.o
LOAD Core/Src/lis2de12_reg.o
LOAD Core/Src/main.o
LOAD Core/Src/mbcrc.o
LOAD Core/Src/nvram.o
LOAD Core/Src/printf-stdarg.o
LOAD Core/Src/res.o
LOAD Core/Src/rtc.o
LOAD Core/Src/stm32f4xx_hal_msp.o
LOAD Core/Src/stm32f4xx_it.o
LOAD Core/Src/stringhe_ENG.o
LOAD Core/Src/stringhe_ITA.o
LOAD Core/Src/syscalls.o
LOAD Core/Src/system_stm32f4xx.o
LOAD Core/Src/user.o
LOAD Core/Src/userAllarmi.o
LOAD Core/Src/userAvvio.o
LOAD Core/Src/userCrono.o
LOAD Core/Src/userInit.o
LOAD Core/Src/userMenu.o
LOAD Core/Src/userParamCode.o
LOAD Core/Src/userReset.o
LOAD Core/Src/userResources.o
LOAD Drivers/STM32F4xx_HAL_Driver/Src/stm32f4xx_hal.o
LOAD Drivers/STM32F4xx_HAL_Driver/Src/stm32f4xx_hal_adc.o
LOAD Drivers/STM32F4xx_HAL_Driver/Src/stm32f4xx_hal_adc_ex.o
LOAD Drivers/STM32F4xx_HAL_Driver/Src/stm32f4xx_hal_cortex.o
LOAD Drivers/STM32F4xx_HAL_Driver/Src/stm32f4xx_hal_dma.o
LOAD Drivers/STM32F4xx_HAL_Driver/Src/stm32f4xx_hal_dma_ex.o
LOAD Drivers/STM32F4xx_HAL_Driver/Src/stm32f4xx_hal_flash.o
LOAD Drivers/STM32F4xx_HAL_Driver/Src/stm32f4xx_hal_flash_ex.o
LOAD Drivers/STM32F4xx_HAL_Driver/Src/stm32f4xx_hal_flash_ramfunc.o
LOAD Drivers/STM32F4xx_HAL_Driver/Src/stm32f4xx_hal_gpio.o
LOAD Drivers/STM32F4xx_HAL_Driver/Src/stm32f4xx_hal_i2c.o
LOAD Drivers/STM32F4xx_HAL_Driver/Src/stm32f4xx_hal_i2c_ex.o
LOAD Drivers/STM32F4xx_HAL_Driver/Src/stm32f4xx_hal_iwdg.o
LOAD Drivers/STM32F4xx_HAL_Driver/Src/stm32f4xx_hal_pwr.o
LOAD Drivers/STM32F4xx_HAL_Driver/Src/stm32f4xx_hal_pwr_ex.o
LOAD Drivers/STM32F4xx_HAL_Driver/Src/stm32f4xx_hal_rcc.o
LOAD Drivers/STM32F4xx_HAL_Driver/Src/stm32f4xx_hal_rcc_ex.o
LOAD Drivers/STM32F4xx_HAL_Driver/Src/stm32f4xx_hal_rtc.o
LOAD Drivers/STM32F4xx_HAL_Driver/Src/stm32f4xx_hal_rtc_ex.o
LOAD Drivers/STM32F4xx_HAL_Driver/Src/stm32f4xx_hal_spi.o
LOAD Drivers/STM32F4xx_HAL_Driver/Src/stm32f4xx_hal_tim.o
LOAD Drivers/STM32F4xx_HAL_Driver/Src/stm32f4xx_hal_tim_ex.o
LOAD Drivers/STM32F4xx_HAL_Driver/Src/stm32f4xx_hal_uart.o
LOAD Middlewares/Third_Party/FreeRTOS/Source/CMSIS_RTOS/cmsis_os.o
LOAD Middlewares/Third_Party/FreeRTOS/Source/croutine.o
LOAD Middlewares/Third_Party/FreeRTOS/Source/event_groups.o
LOAD Middlewares/Third_Party/FreeRTOS/Source/list.o
LOAD Middlewares/Third_Party/FreeRTOS/Source/queue.o
LOAD Middlewares/Third_Party/FreeRTOS/Source/tasks.o
LOAD Middlewares/Third_Party/FreeRTOS/Source/timers.o
LOAD Middlewares/Third_Party/FreeRTOS/Source/portable/GCC/ARM_CM4F/port.o
LOAD Middlewares/Third_Party/FreeRTOS/Source/portable/MemMang/heap_4.o
LOAD startup/startup_stm32f411xe.o
START GROUP
LOAD d:/st/stm32cubeide_1.0.2/stm32cubeide/plugins/com.st.stm32cube.ide.mcu.externaltools.gnu-tools-for-stm32.7-2018-q2-update.win32_1.0.0.201904181610/tools/bin/../lib/gcc/arm-none-eabi/7.3.1/../../../../arm-none-eabi/lib/thumb/v7e-m/fpv4-sp/hard\libc_nano.a
LOAD d:/st/stm32cubeide_1.0.2/stm32cubeide/plugins/com.st.stm32cube.ide.mcu.externaltools.gnu-tools-for-stm32.7-2018-q2-update.win32_1.0.0.201904181610/tools/bin/../lib/gcc/arm-none-eabi/7.3.1/../../../../arm-none-eabi/lib/thumb/v7e-m/fpv4-sp/hard\libm.a
END GROUP
START GROUP
LOAD d:/st/stm32cubeide_1.0.2/stm32cubeide/plugins/com.st.stm32cube.ide.mcu.externaltools.gnu-tools-for-stm32.7-2018-q2-update.win32_1.0.0.201904181610/tools/bin/../lib/gcc/arm-none-eabi/7.3.1/thumb/v7e-m/fpv4-sp/hard\libgcc.a
LOAD d:/st/stm32cubeide_1.0.2/stm32cubeide/plugins/com.st.stm32cube.ide.mcu.externaltools.gnu-tools-for-stm32.7-2018-q2-update.win32_1.0.0.201904181610/tools/bin/../lib/gcc/arm-none-eabi/7.3.1/../../../../arm-none-eabi/lib/thumb/v7e-m/fpv4-sp/hard\libc_nano.a
END GROUP
START GROUP
LOAD d:/st/stm32cubeide_1.0.2/stm32cubeide/plugins/com.st.stm32cube.ide.mcu.externaltools.gnu-tools-for-stm32.7-2018-q2-update.win32_1.0.0.201904181610/tools/bin/../lib/gcc/arm-none-eabi/7.3.1/thumb/v7e-m/fpv4-sp/hard\libgcc.a
LOAD d:/st/stm32cubeide_1.0.2/stm32cubeide/plugins/com.st.stm32cube.ide.mcu.externaltools.gnu-tools-for-stm32.7-2018-q2-update.win32_1.0.0.201904181610/tools/bin/../lib/gcc/arm-none-eabi/7.3.1/../../../../arm-none-eabi/lib/thumb/v7e-m/fpv4-sp/hard\libc_nano.a
LOAD d:/st/stm32cubeide_1.0.2/stm32cubeide/plugins/com.st.stm32cube.ide.mcu.externaltools.gnu-tools-for-stm32.7-2018-q2-update.win32_1.0.0.201904181610/tools/bin/../lib/gcc/arm-none-eabi/7.3.1/../../../../arm-none-eabi/lib/thumb/v7e-m/fpv4-sp/hard\libnosys.a
END GROUP
START GROUP
LOAD d:/st/stm32cubeide_1.0.2/stm32cubeide/plugins/com.st.stm32cube.ide.mcu.externaltools.gnu-tools-for-stm32.7-2018-q2-update.win32_1.0.0.201904181610/tools/bin/../lib/gcc/arm-none-eabi/7.3.1/thumb/v7e-m/fpv4-sp/hard\libgcc.a
LOAD d:/st/stm32cubeide_1.0.2/stm32cubeide/plugins/com.st.stm32cube.ide.mcu.externaltools.gnu-tools-for-stm32.7-2018-q2-update.win32_1.0.0.201904181610/tools/bin/../lib/gcc/arm-none-eabi/7.3.1/../../../../arm-none-eabi/lib/thumb/v7e-m/fpv4-sp/hard\libc_nano.a
LOAD d:/st/stm32cubeide_1.0.2/stm32cubeide/plugins/com.st.stm32cube.ide.mcu.externaltools.gnu-tools-for-stm32.7-2018-q2-update.win32_1.0.0.201904181610/tools/bin/../lib/gcc/arm-none-eabi/7.3.1/../../../../arm-none-eabi/lib/thumb/v7e-m/fpv4-sp/hard\libnosys.a
END GROUP
LOAD d:/st/stm32cubeide_1.0.2/stm32cubeide/plugins/com.st.stm32cube.ide.mcu.externaltools.gnu-tools-for-stm32.7-2018-q2-update.win32_1.0.0.201904181610/tools/bin/../lib/gcc/arm-none-eabi/7.3.1/thumb/v7e-m/fpv4-sp/hard/crtend.o
LOAD d:/st/stm32cubeide_1.0.2/stm32cubeide/plugins/com.st.stm32cube.ide.mcu.externaltools.gnu-tools-for-stm32.7-2018-q2-update.win32_1.0.0.201904181610/tools/bin/../lib/gcc/arm-none-eabi/7.3.1/thumb/v7e-m/fpv4-sp/hard/crtn.o
                0x0000000020020000                _estack = 0x20020000
                0x0000000000000000                _Min_Heap_Size = 0x0
                0x0000000000000400                _Min_Stack_Size = 0x400

.isr_vector     0x0000000008000000      0x198
                0x0000000008000000                . = ALIGN (0x4)
 *(.isr_vector)
 .isr_vector    0x0000000008000000      0x198 startup/startup_stm32f411xe.o
                0x0000000008000000                g_pfnVectors
                0x0000000008000198                . = ALIGN (0x4)

.text           0x00000000080001a0    0x25768
                0x00000000080001a0                . = ALIGN (0x4)
 *(.text)
 .text          0x00000000080001a0       0x40 d:/st/stm32cubeide_1.0.2/stm32cubeide/plugins/com.st.stm32cube.ide.mcu.externaltools.gnu-tools-for-stm32.7-2018-q2-update.win32_1.0.0.201904181610/tools/bin/../lib/gcc/arm-none-eabi/7.3.1/thumb/v7e-m/fpv4-sp/hard/crtbegin.o
 .text          0x00000000080001e0       0x10 d:/st/stm32cubeide_1.0.2/stm32cubeide/plugins/com.st.stm32cube.ide.mcu.externaltools.gnu-tools-for-stm32.7-2018-q2-update.win32_1.0.0.201904181610/tools/bin/../lib/gcc/arm-none-eabi/7.3.1/../../../../arm-none-eabi/lib/thumb/v7e-m/fpv4-sp/hard\libc_nano.a(lib_a-strlen.o)
                0x00000000080001e0                strlen
 .text          0x00000000080001f0       0x30 d:/st/stm32cubeide_1.0.2/stm32cubeide/plugins/com.st.stm32cube.ide.mcu.externaltools.gnu-tools-for-stm32.7-2018-q2-update.win32_1.0.0.201904181610/tools/bin/../lib/gcc/arm-none-eabi/7.3.1/thumb/v7e-m/fpv4-sp/hard\libgcc.a(_aeabi_uldivmod.o)
                0x00000000080001f0                __aeabi_uldivmod
 .text          0x0000000008000220      0x2cc d:/st/stm32cubeide_1.0.2/stm32cubeide/plugins/com.st.stm32cube.ide.mcu.externaltools.gnu-tools-for-stm32.7-2018-q2-update.win32_1.0.0.201904181610/tools/bin/../lib/gcc/arm-none-eabi/7.3.1/thumb/v7e-m/fpv4-sp/hard\libgcc.a(_udivmoddi4.o)
                0x0000000008000220                __udivmoddi4
 .text          0x00000000080004ec        0x4 d:/st/stm32cubeide_1.0.2/stm32cubeide/plugins/com.st.stm32cube.ide.mcu.externaltools.gnu-tools-for-stm32.7-2018-q2-update.win32_1.0.0.201904181610/tools/bin/../lib/gcc/arm-none-eabi/7.3.1/thumb/v7e-m/fpv4-sp/hard\libgcc.a(_dvmd_tls.o)
                0x00000000080004ec                __aeabi_idiv0
                0x00000000080004ec                __aeabi_ldiv0
 *(.text*)
 .text.dfDelay  0x00000000080004f0        0xe Core/Src/DataFlash.o
 .text.BSP_CS_FLASH
                0x00000000080004fe       0x1e Core/Src/DataFlash.o
 .text.dfWREN   0x000000000800051c       0x38 Core/Src/DataFlash.o
 .text.dfWRDI   0x0000000008000554       0x38 Core/Src/DataFlash.o
 .text.dfWaitBusy
                0x000000000800058c       0x5c Core/Src/DataFlash.o
 .text.df_Init  0x00000000080005e8      0x124 Core/Src/DataFlash.o
                0x00000000080005e8                df_Init
 .text.df_Deinit
                0x000000000800070c       0x18 Core/Src/DataFlash.o
                0x000000000800070c                df_Deinit
 .text.df_EraseSubSector
                0x0000000008000724       0xa0 Core/Src/DataFlash.o
                0x0000000008000724                df_EraseSubSector
 .text.df_Read  0x00000000080007c4       0xbc Core/Src/DataFlash.o
                0x00000000080007c4                df_Read
 .text.df_Write
                0x0000000008000880      0x124 Core/Src/DataFlash.o
                0x0000000008000880                df_Write
 .text.TAFilter
                0x00000000080009a4       0x20 Core/Src/DecodInput.o
 .text.TSFilter
                0x00000000080009c4       0x20 Core/Src/DecodInput.o
 .text.GetTempAmb
                0x00000000080009e4       0xc0 Core/Src/DecodInput.o
 .text.LIS2DE12_read
                0x0000000008000aa4       0x70 Core/Src/DecodInput.o
 .text.GetTempMCP9800
                0x0000000008000b14       0xc4 Core/Src/DecodInput.o
 .text.LIS2DE12_write
                0x0000000008000bd8       0x70 Core/Src/DecodInput.o
 .text.MCP9800_SetConfig
                0x0000000008000c48       0x60 Core/Src/DecodInput.o
 .text.inpInit  0x0000000008000ca8      0x210 Core/Src/DecodInput.o
                0x0000000008000ca8                inpInit
 .text.inpHandler
                0x0000000008000eb8      0x2e8 Core/Src/DecodInput.o
                0x0000000008000eb8                inpHandler
 .text.inpMonitor
                0x00000000080011a0      0x260 Core/Src/DecodInput.o
                0x00000000080011a0                inpMonitor
 .text.DecodSenseCharge
                0x0000000008001400       0x68 Core/Src/DecodInput.o
                0x0000000008001400                DecodSenseCharge
 .text.INT2_Acc_irq
                0x0000000008001468       0x34 Core/Src/DecodInput.o
                0x0000000008001468                INT2_Acc_irq
 .text.inpRestart
                0x000000000800149c       0x80 Core/Src/DecodInput.o
                0x000000000800149c                inpRestart
 .text.inpSuspend
                0x000000000800151c       0x3c Core/Src/DecodInput.o
                0x000000000800151c                inpSuspend
 .text.vector_init
                0x0000000008001558       0x1c Core/Src/DynSizeVector.o
                0x0000000008001558                vector_init
 .text.vector_get
                0x0000000008001574       0x14 Core/Src/DynSizeVector.o
                0x0000000008001574                vector_get
 .text.vector_increment_capacity_if_full
                0x0000000008001588       0x5e Core/Src/DynSizeVector.o
                0x0000000008001588                vector_increment_capacity_if_full
 .text.vector_append
                0x00000000080015e6       0x2e Core/Src/DynSizeVector.o
                0x00000000080015e6                vector_append
 .text.vector_set
                0x0000000008001614       0x5e Core/Src/DynSizeVector.o
                0x0000000008001614                vector_set
 .text.vector_free
                0x0000000008001672        0xa Core/Src/DynSizeVector.o
                0x0000000008001672                vector_free
 .text.Ft_Gpu_CoCmd_SendStr
                0x000000000800167c        0x8 Core/Src/FT_CoPro_Cmds.o
 .text.Ft_Gpu_Copro_SendCmd
                0x0000000008001684        0x8 Core/Src/FT_CoPro_Cmds.o
                0x0000000008001684                Ft_Gpu_Copro_SendCmd
 .text.Ft_Gpu_CoCmd_Text
                0x000000000800168c       0x38 Core/Src/FT_CoPro_Cmds.o
                0x000000000800168c                Ft_Gpu_CoCmd_Text
 .text.Ft_Gpu_CoCmd_LoadIdentity
                0x00000000080016c4        0xc Core/Src/FT_CoPro_Cmds.o
                0x00000000080016c4                Ft_Gpu_CoCmd_LoadIdentity
 .text.Ft_Gpu_CoCmd_Spinner
                0x00000000080016d0       0x2e Core/Src/FT_CoPro_Cmds.o
                0x00000000080016d0                Ft_Gpu_CoCmd_Spinner
 .text.Ft_Gpu_CoCmd_BgColor
                0x00000000080016fe       0x18 Core/Src/FT_CoPro_Cmds.o
                0x00000000080016fe                Ft_Gpu_CoCmd_BgColor
 .text.Ft_Gpu_CoCmd_Swap
                0x0000000008001716        0xc Core/Src/FT_CoPro_Cmds.o
                0x0000000008001716                Ft_Gpu_CoCmd_Swap
 .text.Ft_Gpu_CoCmd_Slider
                0x0000000008001722       0x4c Core/Src/FT_CoPro_Cmds.o
                0x0000000008001722                Ft_Gpu_CoCmd_Slider
 .text.Ft_Gpu_CoCmd_FgColor
                0x000000000800176e       0x18 Core/Src/FT_CoPro_Cmds.o
                0x000000000800176e                Ft_Gpu_CoCmd_FgColor
 .text.Ft_Gpu_CoCmd_Button
                0x0000000008001786       0x4a Core/Src/FT_CoPro_Cmds.o
                0x0000000008001786                Ft_Gpu_CoCmd_Button
 .text.Ft_Gpu_CoCmd_Scrollbar
                0x00000000080017d0       0x54 Core/Src/FT_CoPro_Cmds.o
                0x00000000080017d0                Ft_Gpu_CoCmd_Scrollbar
 .text.Ft_Gpu_CoCmd_SetFont
                0x0000000008001824       0x22 Core/Src/FT_CoPro_Cmds.o
                0x0000000008001824                Ft_Gpu_CoCmd_SetFont
 .text.Ft_Gpu_CoCmd_Scale
                0x0000000008001846       0x22 Core/Src/FT_CoPro_Cmds.o
                0x0000000008001846                Ft_Gpu_CoCmd_Scale
 .text.Ft_Gpu_CoCmd_SetMatrix
                0x0000000008001868        0xc Core/Src/FT_CoPro_Cmds.o
                0x0000000008001868                Ft_Gpu_CoCmd_SetMatrix
 .text.Ft_Gpu_CoCmd_Keys
                0x0000000008001874       0x4a Core/Src/FT_CoPro_Cmds.o
                0x0000000008001874                Ft_Gpu_CoCmd_Keys
 .text.Ft_Gpu_CoCmd_Dlstart
                0x00000000080018be        0xc Core/Src/FT_CoPro_Cmds.o
                0x00000000080018be                Ft_Gpu_CoCmd_Dlstart
 *fill*         0x00000000080018ca        0x2 
 .text.Ft_Gpu_Hal_Init
                0x00000000080018cc       0x24 Core/Src/FT_Gpu_Hal.o
                0x00000000080018cc                Ft_Gpu_Hal_Init
 .text.Ft_Gpu_Hal_Open
                0x00000000080018f0        0xc Core/Src/FT_Gpu_Hal.o
                0x00000000080018f0                Ft_Gpu_Hal_Open
 .text.Ft_Gpu_Hal_StartTransfer
                0x00000000080018fc       0x9c Core/Src/FT_Gpu_Hal.o
                0x00000000080018fc                Ft_Gpu_Hal_StartTransfer
 .text.Ft_Gpu_Hal_StartCmdTransfer
                0x0000000008001998        0xe Core/Src/FT_Gpu_Hal.o
                0x0000000008001998                Ft_Gpu_Hal_StartCmdTransfer
 *fill*         0x00000000080019a6        0x2 
 .text.Ft_Gpu_Hal_Transfer8
                0x00000000080019a8       0x60 Core/Src/FT_Gpu_Hal.o
                0x00000000080019a8                Ft_Gpu_Hal_Transfer8
 .text.Ft_Gpu_Hal_Transfer16
                0x0000000008001a08       0x36 Core/Src/FT_Gpu_Hal.o
                0x0000000008001a08                Ft_Gpu_Hal_Transfer16
 .text.Ft_Gpu_Hal_Transfer32
                0x0000000008001a3e       0x34 Core/Src/FT_Gpu_Hal.o
                0x0000000008001a3e                Ft_Gpu_Hal_Transfer32
 *fill*         0x0000000008001a72        0x2 
 .text.Ft_Gpu_Hal_EndTransfer
                0x0000000008001a74       0x2c Core/Src/FT_Gpu_Hal.o
                0x0000000008001a74                Ft_Gpu_Hal_EndTransfer
 .text.Ft_Gpu_Hal_Rd8
                0x0000000008001aa0       0x20 Core/Src/FT_Gpu_Hal.o
                0x0000000008001aa0                Ft_Gpu_Hal_Rd8
 .text.Ft_Gpu_Hal_Rd16
                0x0000000008001ac0       0x20 Core/Src/FT_Gpu_Hal.o
                0x0000000008001ac0                Ft_Gpu_Hal_Rd16
 .text.Ft_Gpu_Hal_Rd32
                0x0000000008001ae0       0x20 Core/Src/FT_Gpu_Hal.o
                0x0000000008001ae0                Ft_Gpu_Hal_Rd32
 .text.Ft_Gpu_Hal_Wr8
                0x0000000008001b00       0x1e Core/Src/FT_Gpu_Hal.o
                0x0000000008001b00                Ft_Gpu_Hal_Wr8
 .text.Ft_Gpu_Hal_Wr16
                0x0000000008001b1e       0x1e Core/Src/FT_Gpu_Hal.o
                0x0000000008001b1e                Ft_Gpu_Hal_Wr16
 .text.Ft_Gpu_Hal_Wr32
                0x0000000008001b3c       0x1e Core/Src/FT_Gpu_Hal.o
                0x0000000008001b3c                Ft_Gpu_Hal_Wr32
 *fill*         0x0000000008001b5a        0x2 
 .text.Ft_Gpu_HostCommand
                0x0000000008001b5c       0xac Core/Src/FT_Gpu_Hal.o
                0x0000000008001b5c                Ft_Gpu_HostCommand
 .text.Ft_Gpu_PLL_FreqSelect
                0x0000000008001c08        0x8 Core/Src/FT_Gpu_Hal.o
                0x0000000008001c08                Ft_Gpu_PLL_FreqSelect
 .text.Ft_Gpu_PowerModeSwitch
                0x0000000008001c10        0x8 Core/Src/FT_Gpu_Hal.o
                0x0000000008001c10                Ft_Gpu_PowerModeSwitch
 .text.Ft_Gpu_CoreReset
                0x0000000008001c18        0xa Core/Src/FT_Gpu_Hal.o
                0x0000000008001c18                Ft_Gpu_CoreReset
 *fill*         0x0000000008001c22        0x2 
 .text.Ft_Gpu_Hal_Updatecmdfifo
                0x0000000008001c24       0x24 Core/Src/FT_Gpu_Hal.o
                0x0000000008001c24                Ft_Gpu_Hal_Updatecmdfifo
 .text.Ft_Gpu_Cmdfifo_Freespace
                0x0000000008001c48       0x20 Core/Src/FT_Gpu_Hal.o
                0x0000000008001c48                Ft_Gpu_Cmdfifo_Freespace
 .text.Ft_Gpu_Hal_CheckCmdBuffer
                0x0000000008001c68       0x12 Core/Src/FT_Gpu_Hal.o
                0x0000000008001c68                Ft_Gpu_Hal_CheckCmdBuffer
 .text.Ft_Gpu_Hal_WrCmd32
                0x0000000008001c7a       0x24 Core/Src/FT_Gpu_Hal.o
                0x0000000008001c7a                Ft_Gpu_Hal_WrCmd32
 *fill*         0x0000000008001c9e        0x2 
 .text.Ft_Gpu_Hal_Powercycle
                0x0000000008001ca0       0x50 Core/Src/FT_Gpu_Hal.o
                0x0000000008001ca0                Ft_Gpu_Hal_Powercycle
 .text.Ft_Gpu_Hal_WrMem
                0x0000000008001cf0       0x2c Core/Src/FT_Gpu_Hal.o
                0x0000000008001cf0                Ft_Gpu_Hal_WrMem
 .text.Ft_Gpu_Hal_RdMem
                0x0000000008001d1c       0x2e Core/Src/FT_Gpu_Hal.o
                0x0000000008001d1c                Ft_Gpu_Hal_RdMem
 .text.Ft_Gpu_Hal_Sleep
                0x0000000008001d4a        0xa Core/Src/FT_Gpu_Hal.o
                0x0000000008001d4a                Ft_Gpu_Hal_Sleep
 .text.Ft_Gpu_Hal_WaitCmdfifo_empty
                0x0000000008001d54       0x38 Core/Src/FT_Gpu_Hal.o
                0x0000000008001d54                Ft_Gpu_Hal_WaitCmdfifo_empty
 .text.Ft_Gpu_Hal_WrCmdBuf
                0x0000000008001d8c       0x76 Core/Src/FT_Gpu_Hal.o
                0x0000000008001d8c                Ft_Gpu_Hal_WrCmdBuf
 .text.DriveLed
                0x0000000008001e02       0x1e Core/Src/Led.o
 .text.ToggleLed
                0x0000000008001e20       0x18 Core/Src/Led.o
 .text.led_Init
                0x0000000008001e38       0x28 Core/Src/Led.o
                0x0000000008001e38                led_Init
 .text.led_Handler
                0x0000000008001e60      0x13c Core/Src/Led.o
                0x0000000008001e60                led_Handler
 .text.led_Set  0x0000000008001f9c       0x1c Core/Src/Led.o
                0x0000000008001f9c                led_Set
 .text.SetHoldingReg
                0x0000000008001fb8       0x8c Core/Src/OT_Plus.o
 .text.SetLimits
                0x0000000008002044       0x60 Core/Src/OT_Plus.o
 .text.SetCoil  0x00000000080020a4       0x7c Core/Src/OT_Plus.o
 .text.SetInputReg
                0x0000000008002120      0x1a4 Core/Src/OT_Plus.o
 .text.OT_Init  0x00000000080022c4       0x70 Core/Src/OT_Plus.o
                0x00000000080022c4                OT_Init
 .text.OT_Send  0x0000000008002334       0x58 Core/Src/OT_Plus.o
                0x0000000008002334                OT_Send
 .text.ReqLimits
                0x000000000800238c       0x70 Core/Src/OT_Plus.o
 .text.SendTembAmb
                0x00000000080023fc       0xa4 Core/Src/OT_Plus.o
 .text.OT_Send_SetReq
                0x00000000080024a0       0x44 Core/Src/OT_Plus.o
                0x00000000080024a0                OT_Send_SetReq
 .text.OT_RxPkt
                0x00000000080024e4      0x7fc Core/Src/OT_Plus.o
 .text.OT_Handler
                0x0000000008002ce0      0x2c8 Core/Src/OT_Plus.o
                0x0000000008002ce0                OT_Handler
 .text.OT_ReqSound
                0x0000000008002fa8       0x48 Core/Src/OT_Plus.o
                0x0000000008002fa8                OT_ReqSound
 .text.OT_GetResult
                0x0000000008002ff0       0x14 Core/Src/OT_Plus.o
                0x0000000008002ff0                OT_GetResult
 .text.OT_RestartRequests
                0x0000000008003004       0xd0 Core/Src/OT_Plus.o
                0x0000000008003004                OT_RestartRequests
 .text.SendVerFW
                0x00000000080030d4       0xcc Core/Src/OT_Plus.o
                0x00000000080030d4                SendVerFW
 .text.OT_ExitStandby
                0x00000000080031a0       0x6c Core/Src/OT_Plus.o
                0x00000000080031a0                OT_ExitStandby
 .text.OT_PH_RxPkt
                0x000000000800320c       0x14 Core/Src/OT_Plus_data_layer.o
 .text.NextPkt  0x0000000008003220       0x6c Core/Src/OT_Plus_data_layer.o
 .text.PeekPkt  0x000000000800328c       0x64 Core/Src/OT_Plus_data_layer.o
                0x000000000800328c                PeekPkt
 .text.OT_DL_Init
                0x00000000080032f0       0x98 Core/Src/OT_Plus_data_layer.o
                0x00000000080032f0                OT_DL_Init
 .text.OT_DL_SetLimitReqFunc
                0x0000000008003388        0xc Core/Src/OT_Plus_data_layer.o
                0x0000000008003388                OT_DL_SetLimitReqFunc
 .text.OT_DL_Send
                0x0000000008003394       0xc8 Core/Src/OT_Plus_data_layer.o
                0x0000000008003394                OT_DL_Send
 .text.OT_DL_FlushOneShotQueue
                0x000000000800345c       0x10 Core/Src/OT_Plus_data_layer.o
                0x000000000800345c                OT_DL_FlushOneShotQueue
 .text.OT_DL_FlushCycleQueue
                0x000000000800346c       0x10 Core/Src/OT_Plus_data_layer.o
                0x000000000800346c                OT_DL_FlushCycleQueue
 .text.OT_DL_Restart
                0x000000000800347c       0x1c Core/Src/OT_Plus_data_layer.o
                0x000000000800347c                OT_DL_Restart
 .text.OT_DL_Handler
                0x0000000008003498      0x574 Core/Src/OT_Plus_data_layer.o
                0x0000000008003498                OT_DL_Handler
 .text.OT_PH_RxCfg
                0x0000000008003a0c       0x10 Core/Src/OT_Plus_ph_layer.o
 .text.OT_ResetRX
                0x0000000008003a1c       0x34 Core/Src/OT_Plus_ph_layer.o
                0x0000000008003a1c                OT_ResetRX
 .text.OT_ResetRXTX
                0x0000000008003a50       0x3c Core/Src/OT_Plus_ph_layer.o
                0x0000000008003a50                OT_ResetRXTX
 .text.OT_PH_Init
                0x0000000008003a8c       0x8c Core/Src/OT_Plus_ph_layer.o
                0x0000000008003a8c                OT_PH_Init
 .text.HAL_UART_RxCpltCallback
                0x0000000008003b18       0x50 Core/Src/OT_Plus_ph_layer.o
                0x0000000008003b18                HAL_UART_RxCpltCallback
 .text.HAL_UART_TxCpltCallback
                0x0000000008003b68       0x60 Core/Src/OT_Plus_ph_layer.o
                0x0000000008003b68                HAL_UART_TxCpltCallback
 .text.HAL_UART_ErrorCallback
                0x0000000008003bc8       0x2a Core/Src/OT_Plus_ph_layer.o
                0x0000000008003bc8                HAL_UART_ErrorCallback
 *fill*         0x0000000008003bf2        0x2 
 .text.OT_PH_Send
                0x0000000008003bf4       0xcc Core/Src/OT_Plus_ph_layer.o
                0x0000000008003bf4                OT_PH_Send
 .text.OT_RxTimeout
                0x0000000008003cc0       0x84 Core/Src/OT_Plus_ph_layer.o
                0x0000000008003cc0                OT_RxTimeout
 .text.OT_PH_GetRCQ2Cfg
                0x0000000008003d44      0x1fc Core/Src/OT_Plus_ph_layer.o
                0x0000000008003d44                OT_PH_GetRCQ2Cfg
 .text.OT_PH_SetRCQ2Cfg
                0x0000000008003f40      0x234 Core/Src/OT_Plus_ph_layer.o
                0x0000000008003f40                OT_PH_SetRCQ2Cfg
 .text.OT_PH_SetLowPower
                0x0000000008004174       0x34 Core/Src/OT_Plus_ph_layer.o
                0x0000000008004174                OT_PH_SetLowPower
 .text.OT_PH_SetFullPower
                0x00000000080041a8       0x14 Core/Src/OT_Plus_ph_layer.o
                0x00000000080041a8                OT_PH_SetFullPower
 .text.starttimer
                0x00000000080041bc       0x34 Core/Src/TimeBase.o
                0x00000000080041bc                starttimer
 .text.checktimer
                0x00000000080041f0       0x48 Core/Src/TimeBase.o
                0x00000000080041f0                checktimer
 .text.readtimer
                0x0000000008004238       0x48 Core/Src/TimeBase.o
                0x0000000008004238                readtimer
 .text.userDelLeadingZero
                0x0000000008004280       0x56 Core/Src/User_Parametri.o
                0x0000000008004280                userDelLeadingZero
 *fill*         0x00000000080042d6        0x2 
 .text.SearchParam
                0x00000000080042d8       0x88 Core/Src/User_Parametri.o
                0x00000000080042d8                SearchParam
 .text.userGetParCode
                0x0000000008004360       0xac Core/Src/User_Parametri.o
                0x0000000008004360                userGetParCode
 .text.userSetPar
                0x000000000800440c      0xa80 Core/Src/User_Parametri.o
                0x000000000800440c                userSetPar
 .text.userEscPar
                0x0000000008004e8c        0x2 Core/Src/User_Parametri.o
                0x0000000008004e8c                userEscPar
 *fill*         0x0000000008004e8e        0x2 
 .text.userIsReadOnlyVar
                0x0000000008004e90       0x24 Core/Src/User_Parametri.o
                0x0000000008004e90                userIsReadOnlyVar
 .text.userIsFlagVar
                0x0000000008004eb4       0x34 Core/Src/User_Parametri.o
                0x0000000008004eb4                userIsFlagVar
 .text.userReqPar
                0x0000000008004ee8      0x3d4 Core/Src/User_Parametri.o
                0x0000000008004ee8                userReqPar
 .text.userGetMinMaxStep
                0x00000000080052bc      0x15c Core/Src/User_Parametri.o
                0x00000000080052bc                userGetMinMaxStep
 .text.userIncPar
                0x0000000008005418      0x13c Core/Src/User_Parametri.o
                0x0000000008005418                userIncPar
 .text.userDecPar
                0x0000000008005554      0x154 Core/Src/User_Parametri.o
                0x0000000008005554                userDecPar
 .text.userScriviOraSleep
                0x00000000080056a8      0x158 Core/Src/User_Parametri.o
                0x00000000080056a8                userScriviOraSleep
 .text.userVisPar
                0x0000000008005800     0x1a00 Core/Src/User_Parametri.o
                0x0000000008005800                userVisPar
 .text.userGetOraSleep
                0x0000000008007200       0xec Core/Src/User_Parametri.o
                0x0000000008007200                userGetOraSleep
 .text.userGetPar
                0x00000000080072ec      0x17c Core/Src/User_Parametri.o
                0x00000000080072ec                userGetPar
 .text.userVisEPar
                0x0000000008007468       0x98 Core/Src/User_Parametri.o
                0x0000000008007468                userVisEPar
 .text.UpdateSleepTime
                0x0000000008007500       0x6c Core/Src/User_Parametri.o
                0x0000000008007500                UpdateSleepTime
 .text.userSetNetworkFlags
                0x000000000800756c       0x60 Core/Src/User_Parametri.o
                0x000000000800756c                userSetNetworkFlags
 .text.Ascii2Hex
                0x00000000080075cc       0x34 Core/Src/Utils.o
                0x00000000080075cc                Ascii2Hex
 .text.Hex2Ascii
                0x0000000008007600       0x1a Core/Src/Utils.o
                0x0000000008007600                Hex2Ascii
 .text.itoa     0x000000000800761a       0x74 Core/Src/Utils.o
                0x000000000800761a                itoa
 .text.SetBitBMap
                0x000000000800768e       0x14 Core/Src/Utils.o
                0x000000000800768e                SetBitBMap
 .text.ResBitBMap
                0x00000000080076a2       0x14 Core/Src/Utils.o
                0x00000000080076a2                ResBitBMap
 .text.GetBitBMap
                0x00000000080076b6       0x16 Core/Src/Utils.o
                0x00000000080076b6                GetBitBMap
 .text.DWordLittle2BigEndian
                0x00000000080076cc       0x20 Core/Src/Utils.o
                0x00000000080076cc                DWordLittle2BigEndian
 .text.CalcChecksum
                0x00000000080076ec       0x18 Core/Src/Utils.o
                0x00000000080076ec                CalcChecksum
 .text.adcFiltro4Ana
                0x0000000008007704       0x24 Core/Src/adc.o
 .text.adcInit  0x0000000008007728       0x28 Core/Src/adc.o
                0x0000000008007728                adcInit
 .text.HAL_ADC_ErrorCallback
                0x0000000008007750       0x18 Core/Src/adc.o
                0x0000000008007750                HAL_ADC_ErrorCallback
 .text.adcStart
                0x0000000008007768       0x28 Core/Src/adc.o
                0x0000000008007768                adcStart
 .text.HAL_ADC_ConvCpltCallback
                0x0000000008007790       0x84 Core/Src/adc.o
                0x0000000008007790                HAL_ADC_ConvCpltCallback
 .text.GestSleep
                0x0000000008007814       0xe4 Core/Src/crono.o
 .text.IsCronoON
                0x00000000080078f8       0xe4 Core/Src/crono.o
 .text.GestCronoSleep
                0x00000000080079dc      0x4a0 Core/Src/crono.o
                0x00000000080079dc                GestCronoSleep
 .text.AllineaStatoCrono
                0x0000000008007e7c       0xc0 Core/Src/crono.o
                0x0000000008007e7c                AllineaStatoCrono
 .text.AttuaStatoCrono
                0x0000000008007f3c      0x24c Core/Src/crono.o
                0x0000000008007f3c                AttuaStatoCrono
 .text.IsCronoProfile
                0x0000000008008188       0x68 Core/Src/crono.o
                0x0000000008008188                IsCronoProfile
 .text.LoadCronoProfile
                0x00000000080081f0       0xa4 Core/Src/crono.o
                0x00000000080081f0                LoadCronoProfile
 .text.search_in_list
                0x0000000008008294       0x34 Core/Src/ctp.o
 .text.create_list
                0x00000000080082c8       0x38 Core/Src/ctp.o
 .text.add_to_list_end
                0x0000000008008300       0x44 Core/Src/ctp.o
 .text.delete_list
                0x0000000008008344       0x24 Core/Src/ctp.o
 .text.HAL_GPIO_EXTI_Callback
                0x0000000008008368       0x38 Core/Src/ctp.o
                0x0000000008008368                HAL_GPIO_EXTI_Callback
 .text.CTP_Task
                0x00000000080083a0      0x198 Core/Src/ctp.o
                0x00000000080083a0                CTP_Task
 .text.CTP_TagRegister
                0x0000000008008538       0x1c Core/Src/ctp.o
                0x0000000008008538                CTP_TagRegister
 .text.CTP_TagDeregisterAll
                0x0000000008008554        0x8 Core/Src/ctp.o
                0x0000000008008554                CTP_TagDeregisterAll
 .text.CTP_SetTag
                0x000000000800855c       0x2e Core/Src/ctp.o
                0x000000000800855c                CTP_SetTag
 *fill*         0x000000000800858a        0x2 
 .text.DWT_Delay_Init
                0x000000000800858c       0x44 Core/Src/dwt_stm32_delay.o
                0x000000000800858c                DWT_Delay_Init
 .text.DWT_Delay_us
                0x00000000080085d0       0x38 Core/Src/dwt_stm32_delay.o
                0x00000000080085d0                DWT_Delay_us
 .text.vApplicationIdleHook
                0x0000000008008608       0xec Core/Src/freertos.o
                0x0000000008008608                vApplicationIdleHook
 .text.vApplicationTickHook
                0x00000000080086f4        0xc Core/Src/freertos.o
                0x00000000080086f4                vApplicationTickHook
 .text.vApplicationStackOverflowHook
                0x0000000008008700       0x10 Core/Src/freertos.o
                0x0000000008008700                vApplicationStackOverflowHook
 .text.vApplicationMallocFailedHook
                0x0000000008008710       0x10 Core/Src/freertos.o
                0x0000000008008710                vApplicationMallocFailedHook
 .text.i2cInit  0x0000000008008720        0xc Core/Src/i2cm_drv.o
                0x0000000008008720                i2cInit
 .text.i2cWriteBuffer
                0x000000000800872c       0xa0 Core/Src/i2cm_drv.o
                0x000000000800872c                i2cWriteBuffer
 .text.i2cWriteReadBuffer
                0x00000000080087cc       0x88 Core/Src/i2cm_drv.o
                0x00000000080087cc                i2cWriteReadBuffer
 .text.lis2de12_read_reg
                0x0000000008008854        0xa Core/Src/lis2de12_reg.o
                0x0000000008008854                lis2de12_read_reg
 .text.lis2de12_write_reg
                0x000000000800885e        0xa Core/Src/lis2de12_reg.o
                0x000000000800885e                lis2de12_write_reg
 .text.lis2de12_filter_reference_get
                0x0000000008008868        0xe Core/Src/lis2de12_reg.o
                0x0000000008008868                lis2de12_filter_reference_get
 .text.lis2de12_device_id_get
                0x0000000008008876        0xe Core/Src/lis2de12_reg.o
                0x0000000008008876                lis2de12_device_id_get
 .text.lis2de12_int2_gen_source_get
                0x0000000008008884        0xe Core/Src/lis2de12_reg.o
                0x0000000008008884                lis2de12_int2_gen_source_get
 *fill*         0x0000000008008892        0x2 
 .text.MX_GPIO_Init
                0x0000000008008894      0x1dc Core/Src/main.o
 .text.MX_DMA_Init
                0x0000000008008a70       0x34 Core/Src/main.o
 .text.LedTimer_Callback
                0x0000000008008aa4       0x24 Core/Src/main.o
                0x0000000008008aa4                LedTimer_Callback
 .text.CreateMutex
                0x0000000008008ac8       0x4c Core/Src/main.o
                0x0000000008008ac8                CreateMutex
 .text.DeleteMutex
                0x0000000008008b14       0x4c Core/Src/main.o
                0x0000000008008b14                DeleteMutex
 .text.SystemReset
                0x0000000008008b60        0xa Core/Src/main.o
                0x0000000008008b60                SystemReset
 *fill*         0x0000000008008b6a        0x2 
 .text.SystemRestart
                0x0000000008008b6c       0xa0 Core/Src/main.o
                0x0000000008008b6c                SystemRestart
 .text.outbyte  0x0000000008008c0c       0x18 Core/Src/main.o
                0x0000000008008c0c                outbyte
 .text.SleepOnBatteryCharge
                0x0000000008008c24      0x2ec Core/Src/main.o
                0x0000000008008c24                SleepOnBatteryCharge
 .text.Check4StandbyPause
                0x0000000008008f10      0x4a8 Core/Src/main.o
 .text.Main_Task
                0x00000000080093b8       0xbc Core/Src/main.o
                0x00000000080093b8                Main_Task
 .text.LOCKprintf
                0x0000000008009474       0x2c Core/Src/main.o
                0x0000000008009474                LOCKprintf
 .text.UNLOCKprintf
                0x00000000080094a0       0x28 Core/Src/main.o
                0x00000000080094a0                UNLOCKprintf
 .text.Error_Handler
                0x00000000080094c8       0x10 Core/Src/main.o
                0x00000000080094c8                Error_Handler
 .text.MX_USART6_UART_Init
                0x00000000080094d8       0x34 Core/Src/main.o
 .text.SystemOff
                0x000000000800950c      0x380 Core/Src/main.o
                0x000000000800950c                SystemOff
 .text.MX_RTC_Init
                0x000000000800988c       0x44 Core/Src/main.o
 .text.MX_USART2_UART_Init
                0x00000000080098d0       0x34 Core/Src/main.o
 .text.MX_ADC1_Init
                0x0000000008009904       0xa8 Core/Src/main.o
 .text.MX_SPI2_Init
                0x00000000080099ac       0x40 Core/Src/main.o
 .text.MX_I2C1_Init
                0x00000000080099ec       0x3c Core/Src/main.o
 .text.SystemClock_Config
                0x0000000008009a28       0xd4 Core/Src/main.o
                0x0000000008009a28                SystemClock_Config
 .text.MX_SPI1_Init
                0x0000000008009afc       0x54 Core/Src/main.o
                0x0000000008009afc                MX_SPI1_Init
 .text.main     0x0000000008009b50      0x144 Core/Src/main.o
                0x0000000008009b50                main
 .text.assert_failed
                0x0000000008009c94       0x14 Core/Src/main.o
                0x0000000008009c94                assert_failed
 .text.CalcCrcBuff
                0x0000000008009ca8       0x34 Core/Src/mbcrc.o
                0x0000000008009ca8                CalcCrcBuff
 .text.ResetStatSec
                0x0000000008009cdc       0x54 Core/Src/nvram.o
 .text.CheckPar
                0x0000000008009d30      0x180 Core/Src/nvram.o
 .text.nvramUpdate
                0x0000000008009eb0       0x38 Core/Src/nvram.o
                0x0000000008009eb0                nvramUpdate
 .text.CronoDef
                0x0000000008009ee8       0x48 Core/Src/nvram.o
                0x0000000008009ee8                CronoDef
 .text.CfgDef   0x0000000008009f30       0x18 Core/Src/nvram.o
                0x0000000008009f30                CfgDef
 .text.nvramInit
                0x0000000008009f48       0x78 Core/Src/nvram.o
                0x0000000008009f48                nvramInit
 .text.RecConfig
                0x0000000008009fc0        0x2 Core/Src/nvram.o
                0x0000000008009fc0                RecConfig
 *fill*         0x0000000008009fc2        0x2 
 .text.ScriviCrono
                0x0000000008009fc4       0x18 Core/Src/nvram.o
                0x0000000008009fc4                ScriviCrono
 .text.ScriviCronoProfile
                0x0000000008009fdc       0x20 Core/Src/nvram.o
                0x0000000008009fdc                ScriviCronoProfile
 .text.ScriviCronoProgWeekStart
                0x0000000008009ffc       0x28 Core/Src/nvram.o
                0x0000000008009ffc                ScriviCronoProgWeekStart
 .text.ScriviCronoProgWeekStop
                0x000000000800a024       0x2c Core/Src/nvram.o
                0x000000000800a024                ScriviCronoProgWeekStop
 .text.ScriviCronoProgWeekAbil
                0x000000000800a050       0x1c Core/Src/nvram.o
                0x000000000800a050                ScriviCronoProgWeekAbil
 .text.ScriviCronoProgWeekTempAria
                0x000000000800a06c       0x1c Core/Src/nvram.o
                0x000000000800a06c                ScriviCronoProgWeekTempAria
 .text.ScriviCronoProgWeekTempH2O
                0x000000000800a088       0x1c Core/Src/nvram.o
                0x000000000800a088                ScriviCronoProgWeekTempH2O
 .text.ScriviCronoProgWeekFire
                0x000000000800a0a4       0x1c Core/Src/nvram.o
                0x000000000800a0a4                ScriviCronoProgWeekFire
 .text.ScriviRFid
                0x000000000800a0c0       0x1c Core/Src/nvram.o
                0x000000000800a0c0                ScriviRFid
 .text.printchar
                0x000000000800a0dc       0x18 Core/Src/printf-stdarg.o
 .text.prints   0x000000000800a0f4       0x80 Core/Src/printf-stdarg.o
 .text.printi   0x000000000800a174       0xa2 Core/Src/printf-stdarg.o
 *fill*         0x000000000800a216        0x2 
 .text.print    0x000000000800a218      0x144 Core/Src/printf-stdarg.o
 .text.myprintf
                0x000000000800a35c       0x2e Core/Src/printf-stdarg.o
                0x000000000800a35c                myprintf
 .text.mysprintf
                0x000000000800a38a       0x20 Core/Src/printf-stdarg.o
                0x000000000800a38a                mysprintf
 *fill*         0x000000000800a3aa        0x2 
 .text.bm_search_in_list
                0x000000000800a3ac       0x34 Core/Src/res.o
 .text.DefaultFont
                0x000000000800a3e0       0x40 Core/Src/res.o
 .text.InitSetMsg
                0x000000000800a420      0x110 Core/Src/res.o
 .text.CheckSetMsg
                0x000000000800a530       0x90 Core/Src/res.o
 .text.bm_create_list
                0x000000000800a5c0       0x38 Core/Src/res.o
 .text.bm_add_to_list_end
                0x000000000800a5f8       0x44 Core/Src/res.o
 .text.bm_delete_from_list
                0x000000000800a63c       0x60 Core/Src/res.o
 .text.bm_delete_list
                0x000000000800a69c       0x24 Core/Src/res.o
 .text.res_bm_Load
                0x000000000800a6c0       0xd0 Core/Src/res.o
                0x000000000800a6c0                res_bm_Load
 .text.res_bm_Release
                0x000000000800a790       0x10 Core/Src/res.o
                0x000000000800a790                res_bm_Release
 .text.res_bm_GetHeader
                0x000000000800a7a0       0x1c Core/Src/res.o
                0x000000000800a7a0                res_bm_GetHeader
 .text.res_bm_GetGRAM
                0x000000000800a7bc        0xc Core/Src/res.o
                0x000000000800a7bc                res_bm_GetGRAM
 .text.res_bm_ReleaseAll
                0x000000000800a7c8       0x14 Core/Src/res.o
                0x000000000800a7c8                res_bm_ReleaseAll
 .text.res_bm_Reset
                0x000000000800a7dc       0x48 Core/Src/res.o
                0x000000000800a7dc                res_bm_Reset
 .text.GetMsg   0x000000000800a824      0x148 Core/Src/res.o
                0x000000000800a824                GetMsg
 .text.LoadFonts
                0x000000000800a96c      0x338 Core/Src/res.o
                0x000000000800a96c                LoadFonts
 .text.res_Init
                0x000000000800aca4      0x118 Core/Src/res.o
                0x000000000800aca4                res_Init
 .text.HAL_RTCEx_WakeUpTimerEventCallback
                0x000000000800adbc       0x40 Core/Src/rtc.o
                0x000000000800adbc                HAL_RTCEx_WakeUpTimerEventCallback
 .text.rtcRd    0x000000000800adfc       0x84 Core/Src/rtc.o
                0x000000000800adfc                rtcRd
 .text.rtcCheckDateTime
                0x000000000800ae80      0x11c Core/Src/rtc.o
                0x000000000800ae80                rtcCheckDateTime
 .text.DateTime2Sec
                0x000000000800af9c      0x110 Core/Src/rtc.o
                0x000000000800af9c                DateTime2Sec
 .text.rtcInit  0x000000000800b0ac      0x138 Core/Src/rtc.o
                0x000000000800b0ac                rtcInit
 .text.rtcWr    0x000000000800b1e4       0xa4 Core/Src/rtc.o
                0x000000000800b1e4                rtcWr
 .text.Sec2DateTime
                0x000000000800b288      0x16c Core/Src/rtc.o
                0x000000000800b288                Sec2DateTime
 .text.rtcStrMakeDate
                0x000000000800b3f4       0x6c Core/Src/rtc.o
                0x000000000800b3f4                rtcStrMakeDate
 .text.rtcStrMakeTime
                0x000000000800b460       0x8c Core/Src/rtc.o
                0x000000000800b460                rtcStrMakeTime
 .text.ScriviData
                0x000000000800b4ec       0x10 Core/Src/rtc.o
                0x000000000800b4ec                ScriviData
 .text.ScriviOra
                0x000000000800b4fc       0x10 Core/Src/rtc.o
                0x000000000800b4fc                ScriviOra
 .text.rtcGetWeekDay
                0x000000000800b50c       0x70 Core/Src/rtc.o
                0x000000000800b50c                rtcGetWeekDay
 .text.i2cReset
                0x000000000800b57c       0xc0 Core/Src/stm32f4xx_hal_msp.o
                0x000000000800b57c                i2cReset
 .text.HAL_MspInit
                0x000000000800b63c       0x44 Core/Src/stm32f4xx_hal_msp.o
                0x000000000800b63c                HAL_MspInit
 .text.HAL_ADC_MspInit
                0x000000000800b680       0xa8 Core/Src/stm32f4xx_hal_msp.o
                0x000000000800b680                HAL_ADC_MspInit
 .text.HAL_ADC_MspDeInit
                0x000000000800b728       0x40 Core/Src/stm32f4xx_hal_msp.o
                0x000000000800b728                HAL_ADC_MspDeInit
 .text.HAL_I2C_MspInit
                0x000000000800b768       0x78 Core/Src/stm32f4xx_hal_msp.o
                0x000000000800b768                HAL_I2C_MspInit
 .text.HAL_I2C_MspDeInit
                0x000000000800b7e0       0x2c Core/Src/stm32f4xx_hal_msp.o
                0x000000000800b7e0                HAL_I2C_MspDeInit
 .text.HAL_RTC_MspInit
                0x000000000800b80c       0x2c Core/Src/stm32f4xx_hal_msp.o
                0x000000000800b80c                HAL_RTC_MspInit
 .text.HAL_SPI_MspInit
                0x000000000800b838       0xf0 Core/Src/stm32f4xx_hal_msp.o
                0x000000000800b838                HAL_SPI_MspInit
 .text.HAL_SPI_MspDeInit
                0x000000000800b928       0x5c Core/Src/stm32f4xx_hal_msp.o
                0x000000000800b928                HAL_SPI_MspDeInit
 .text.HAL_UART_MspInit
                0x000000000800b984       0xec Core/Src/stm32f4xx_hal_msp.o
                0x000000000800b984                HAL_UART_MspInit
 .text.HAL_UART_MspDeInit
                0x000000000800ba70       0x5c Core/Src/stm32f4xx_hal_msp.o
                0x000000000800ba70                HAL_UART_MspDeInit
 .text.NMI_Handler
                0x000000000800bacc        0x2 Core/Src/stm32f4xx_it.o
                0x000000000800bacc                NMI_Handler
 .text.HardFault_Handler
                0x000000000800bace        0x2 Core/Src/stm32f4xx_it.o
                0x000000000800bace                HardFault_Handler
 .text.MemManage_Handler
                0x000000000800bad0        0x2 Core/Src/stm32f4xx_it.o
                0x000000000800bad0                MemManage_Handler
 .text.BusFault_Handler
                0x000000000800bad2        0x2 Core/Src/stm32f4xx_it.o
                0x000000000800bad2                BusFault_Handler
 .text.UsageFault_Handler
                0x000000000800bad4        0x2 Core/Src/stm32f4xx_it.o
                0x000000000800bad4                UsageFault_Handler
 .text.DebugMon_Handler
                0x000000000800bad6        0x2 Core/Src/stm32f4xx_it.o
                0x000000000800bad6                DebugMon_Handler
 .text.SysTick_Handler
                0x000000000800bad8        0xc Core/Src/stm32f4xx_it.o
                0x000000000800bad8                SysTick_Handler
 .text.RTC_WKUP_IRQHandler
                0x000000000800bae4       0x10 Core/Src/stm32f4xx_it.o
                0x000000000800bae4                RTC_WKUP_IRQHandler
 .text.EXTI1_IRQHandler
                0x000000000800baf4        0xa Core/Src/stm32f4xx_it.o
                0x000000000800baf4                EXTI1_IRQHandler
 .text.EXTI4_IRQHandler
                0x000000000800bafe        0xa Core/Src/stm32f4xx_it.o
                0x000000000800bafe                EXTI4_IRQHandler
 .text.EXTI9_5_IRQHandler
                0x000000000800bb08        0xa Core/Src/stm32f4xx_it.o
                0x000000000800bb08                EXTI9_5_IRQHandler
 *fill*         0x000000000800bb12        0x2 
 .text.USART2_IRQHandler
                0x000000000800bb14       0x10 Core/Src/stm32f4xx_it.o
                0x000000000800bb14                USART2_IRQHandler
 .text.DMA2_Stream0_IRQHandler
                0x000000000800bb24       0x10 Core/Src/stm32f4xx_it.o
                0x000000000800bb24                DMA2_Stream0_IRQHandler
 .text.USART6_IRQHandler
                0x000000000800bb34       0x10 Core/Src/stm32f4xx_it.o
                0x000000000800bb34                USART6_IRQHandler
 .text.SystemInit
                0x000000000800bb44       0x4c Core/Src/system_stm32f4xx.o
                0x000000000800bb44                SystemInit
 .text.ft800MeasureFreq
                0x000000000800bb90       0x38 Core/Src/user.o
 .text.ft800TuneFreq
                0x000000000800bbc8       0x54 Core/Src/user.o
 .text.SetBacklight
                0x000000000800bc1c       0x8c Core/Src/user.o
                0x000000000800bc1c                SetBacklight
 .text.Ft_App_WrCoCmd_Buffer
                0x000000000800bca8       0x18 Core/Src/user.o
                0x000000000800bca8                Ft_App_WrCoCmd_Buffer
 .text.Ft_App_WrDlCmd_Buffer
                0x000000000800bcc0       0x18 Core/Src/user.o
                0x000000000800bcc0                Ft_App_WrDlCmd_Buffer
 .text.Ft_App_WrCoStr_Buffer
                0x000000000800bcd8       0x34 Core/Src/user.o
                0x000000000800bcd8                Ft_App_WrCoStr_Buffer
 .text.Ft_App_Flush_DL_Buffer
                0x000000000800bd0c       0x24 Core/Src/user.o
                0x000000000800bd0c                Ft_App_Flush_DL_Buffer
 .text.Ft_App_Flush_Co_Buffer
                0x000000000800bd30       0x24 Core/Src/user.o
                0x000000000800bd30                Ft_App_Flush_Co_Buffer
 .text.Get_UserColorHex
                0x000000000800bd54       0x28 Core/Src/user.o
                0x000000000800bd54                Get_UserColorHex
 .text.User_Init
                0x000000000800bd7c      0x268 Core/Src/user.o
                0x000000000800bd7c                User_Init
 .text.TagRegister
                0x000000000800bfe4       0x40 Core/Src/user.o
                0x000000000800bfe4                TagRegister
 .text.FlushTouchQueue
                0x000000000800c024       0x24 Core/Src/user.o
                0x000000000800c024                FlushTouchQueue
 .text.Read_Keypad
                0x000000000800c048       0x30 Core/Src/user.o
                0x000000000800c048                Read_Keypad
 .text.Char2Font
                0x000000000800c078        0xa Core/Src/user.o
                0x000000000800c078                Char2Font
 *fill*         0x000000000800c082        0x2 
 .text.Ft_Gpu_Font_WH
                0x000000000800c084       0x40 Core/Src/user.o
                0x000000000800c084                Ft_Gpu_Font_WH
 .text.GetStringWidth
                0x000000000800c0c4       0x22 Core/Src/user.o
                0x000000000800c0c4                GetStringWidth
 .text.GetFont4StringWidth
                0x000000000800c0e6       0x38 Core/Src/user.o
                0x000000000800c0e6                GetFont4StringWidth
 *fill*         0x000000000800c11e        0x2 
 .text.String2Font
                0x000000000800c120       0x30 Core/Src/user.o
                0x000000000800c120                String2Font
 .text.user_Touch_Calibrate
                0x000000000800c150       0x74 Core/Src/user.o
                0x000000000800c150                user_Touch_Calibrate
 .text.Check4StatusChange
                0x000000000800c1c4      0x110 Core/Src/user.o
                0x000000000800c1c4                Check4StatusChange
 .text.userSetTempUM
                0x000000000800c2d4       0x30 Core/Src/user.o
                0x000000000800c2d4                userSetTempUM
 .text.userGetServicePassword
                0x000000000800c304       0x58 Core/Src/user.o
                0x000000000800c304                userGetServicePassword
 .text.ShowWaitSetResultPopup
                0x000000000800c35c      0x33c Core/Src/user.o
                0x000000000800c35c                ShowWaitSetResultPopup
 .text.ExecTipoStufa
                0x000000000800c698       0x24 Core/Src/user.o
                0x000000000800c698                ExecTipoStufa
 .text.ExecTipoDef
                0x000000000800c6bc       0x64 Core/Src/user.o
                0x000000000800c6bc                ExecTipoDef
 .text.ExecUpdateLang
                0x000000000800c720       0x28 Core/Src/user.o
                0x000000000800c720                ExecUpdateLang
 .text.ExecSetTempUM
                0x000000000800c748       0x18 Core/Src/user.o
                0x000000000800c748                ExecSetTempUM
 .text.ExecBypass
                0x000000000800c760       0x54 Core/Src/user.o
                0x000000000800c760                ExecBypass
 .text.ExecBypassTra
                0x000000000800c7b4       0x54 Core/Src/user.o
                0x000000000800c7b4                ExecBypassTra
 .text.ExecTaraTC
                0x000000000800c808       0x54 Core/Src/user.o
                0x000000000800c808                ExecTaraTC
 .text.ExecSetRFid
                0x000000000800c85c       0x2c Core/Src/user.o
                0x000000000800c85c                ExecSetRFid
 .text.ExecLocalSetRFid
                0x000000000800c888       0x18 Core/Src/user.o
                0x000000000800c888                ExecLocalSetRFid
 .text.userVisShutDown
                0x000000000800c8a0       0x84 Core/Src/user.o
                0x000000000800c8a0                userVisShutDown
 .text.userVisLowPower
                0x000000000800c924       0x1c Core/Src/user.o
                0x000000000800c924                userVisLowPower
 .text.userVisPause
                0x000000000800c940       0x68 Core/Src/user.o
                0x000000000800c940                userVisPause
 .text.userExitPause
                0x000000000800c9a8       0x70 Core/Src/user.o
                0x000000000800c9a8                userExitPause
 .text.User_Task
                0x000000000800ca18      0x16c Core/Src/user.o
                0x000000000800ca18                User_Task
 .text.userStartOTLongPause
                0x000000000800cb84       0x1c Core/Src/user.o
                0x000000000800cb84                userStartOTLongPause
 .text.userPause
                0x000000000800cba0      0x170 Core/Src/user.o
 .text.GetVisPercVBatt
                0x000000000800cd10       0x34 Core/Src/user.o
                0x000000000800cd10                GetVisPercVBatt
 .text.IsToView_PreCarPellet
                0x000000000800cd44       0x14 Core/Src/user.o
                0x000000000800cd44                IsToView_PreCarPellet
 .text.IsToView_Pulizia
                0x000000000800cd58       0x14 Core/Src/user.o
                0x000000000800cd58                IsToView_Pulizia
 .text.IsToView_AttivaPompa
                0x000000000800cd6c       0x28 Core/Src/user.o
                0x000000000800cd6c                IsToView_AttivaPompa
 .text.IsServiceReq
                0x000000000800cd94       0x10 Core/Src/user.o
                0x000000000800cd94                IsServiceReq
 .text.IsSensAriaFail
                0x000000000800cda4       0x10 Core/Src/user.o
                0x000000000800cda4                IsSensAriaFail
 .text.IsSensH2OFail
                0x000000000800cdb4       0x10 Core/Src/user.o
                0x000000000800cdb4                IsSensH2OFail
 .text.IsPressostH2OFail
                0x000000000800cdc4       0x10 Core/Src/user.o
                0x000000000800cdc4                IsPressostH2OFail
 .text.IsPressH2OAlarm
                0x000000000800cdd4        0xc Core/Src/user.o
                0x000000000800cdd4                IsPressH2OAlarm
 .text.IsSensPortFail
                0x000000000800cde0       0x10 Core/Src/user.o
                0x000000000800cde0                IsSensPortFail
 .text.IsFinePellet
                0x000000000800cdf0       0x10 Core/Src/user.o
                0x000000000800cdf0                IsFinePellet
 .text.IsPortaAperta
                0x000000000800ce00       0x10 Core/Src/user.o
                0x000000000800ce00                IsPortaAperta
 .text.userIsCrono
                0x000000000800ce10       0x14 Core/Src/user.o
                0x000000000800ce10                userIsCrono
 .text.userIsSleep
                0x000000000800ce24       0x10 Core/Src/user.o
                0x000000000800ce24                userIsSleep
 .text.userIsIdro
                0x000000000800ce34       0x10 Core/Src/user.o
                0x000000000800ce34                userIsIdro
 .text.IsCtrlPortata
                0x000000000800ce44       0x10 Core/Src/user.o
                0x000000000800ce44                IsCtrlPortata
 .text.IsCtrlLambda
                0x000000000800ce54       0x10 Core/Src/user.o
                0x000000000800ce54                IsCtrlLambda
 .text.IsFan1Info
                0x000000000800ce64       0x24 Core/Src/user.o
                0x000000000800ce64                IsFan1Info
 .text.IsFan2Info
                0x000000000800ce88       0x40 Core/Src/user.o
                0x000000000800ce88                IsFan2Info
 .text.IsPressIdro
                0x000000000800cec8       0x10 Core/Src/user.o
                0x000000000800cec8                IsPressIdro
 .text.IsWiFi   0x000000000800ced8       0x10 Core/Src/user.o
                0x000000000800ced8                IsWiFi
 .text.IsWiFiNet
                0x000000000800cee8       0x18 Core/Src/user.o
                0x000000000800cee8                IsWiFiNet
 .text.IsCtrlAria
                0x000000000800cf00       0x14 Core/Src/user.o
                0x000000000800cf00                IsCtrlAria
 .text.IsSensPellet
                0x000000000800cf14       0x10 Core/Src/user.o
                0x000000000800cf14                IsSensPellet
 .text.IsTermocoppia
                0x000000000800cf24       0x10 Core/Src/user.o
                0x000000000800cf24                IsTermocoppia
 .text.IsTempoCoclea
                0x000000000800cf34       0x14 Core/Src/user.o
                0x000000000800cf34                IsTempoCoclea
 .text.IsGiriCoclea
                0x000000000800cf48       0x10 Core/Src/user.o
                0x000000000800cf48                IsGiriCoclea
 .text.IsCoclea2
                0x000000000800cf58       0x10 Core/Src/user.o
                0x000000000800cf58                IsCoclea2
 .text.IsTOffCoclea
                0x000000000800cf68       0x28 Core/Src/user.o
                0x000000000800cf68                IsTOffCoclea
 .text.IsPeriodoCoclea
                0x000000000800cf90       0x28 Core/Src/user.o
                0x000000000800cf90                IsPeriodoCoclea
 .text.IsTipoFrenCoclea
                0x000000000800cfb8       0x18 Core/Src/user.o
                0x000000000800cfb8                IsTipoFrenCoclea
 .text.IsEsp2   0x000000000800cfd0       0x28 Core/Src/user.o
                0x000000000800cfd0                IsEsp2
 .text.IsEsp2Giri
                0x000000000800cff8       0x28 Core/Src/user.o
                0x000000000800cff8                IsEsp2Giri
 .text.IsTOffCoclea2
                0x000000000800d020       0x28 Core/Src/user.o
                0x000000000800d020                IsTOffCoclea2
 .text.IsPeriodoCoclea2
                0x000000000800d048       0x28 Core/Src/user.o
                0x000000000800d048                IsPeriodoCoclea2
 .text.IsTipoFrenCoclea2
                0x000000000800d070       0x18 Core/Src/user.o
                0x000000000800d070                IsTipoFrenCoclea2
 .text.IsRipristino
                0x000000000800d088       0x10 Core/Src/user.o
                0x000000000800d088                IsRipristino
 .text.IsTMaxPreAlm
                0x000000000800d098       0x14 Core/Src/user.o
                0x000000000800d098                IsTMaxPreAlm
 .text.IsTermostato
                0x000000000800d0ac       0x10 Core/Src/user.o
                0x000000000800d0ac                IsTermostato
 .text.IsDTempEco
                0x000000000800d0bc        0xe Core/Src/user.o
                0x000000000800d0bc                IsDTempEco
 *fill*         0x000000000800d0ca        0x2 
 .text.IsTPreA06
                0x000000000800d0cc       0x14 Core/Src/user.o
                0x000000000800d0cc                IsTPreA06
 .text.IsPot1   0x000000000800d0e0       0x14 Core/Src/user.o
                0x000000000800d0e0                IsPot1
 .text.IsPot2   0x000000000800d0f4       0x18 Core/Src/user.o
                0x000000000800d0f4                IsPot2
 .text.IsPot3   0x000000000800d10c       0x18 Core/Src/user.o
                0x000000000800d10c                IsPot3
 .text.IsPot4   0x000000000800d124       0x18 Core/Src/user.o
                0x000000000800d124                IsPot4
 .text.IsPot5   0x000000000800d13c       0x18 Core/Src/user.o
                0x000000000800d13c                IsPot5
 .text.IsPot6   0x000000000800d154       0x18 Core/Src/user.o
                0x000000000800d154                IsPot6
 .text.IsFotoresistenza
                0x000000000800d16c       0x10 Core/Src/user.o
                0x000000000800d16c                IsFotoresistenza
 .text.IsCollaudoMan
                0x000000000800d17c       0x10 Core/Src/user.o
                0x000000000800d17c                IsCollaudoMan
 .text.IsCollaudoAuto
                0x000000000800d18c       0x10 Core/Src/user.o
                0x000000000800d18c                IsCollaudoAuto
 .text.IsFan1Test
                0x000000000800d19c       0x14 Core/Src/user.o
                0x000000000800d19c                IsFan1Test
 .text.IsFan2Test
                0x000000000800d1b0       0x14 Core/Src/user.o
                0x000000000800d1b0                IsFan2Test
 .text.IsScuotitore
                0x000000000800d1c4        0xc Core/Src/user.o
                0x000000000800d1c4                IsScuotitore
 .text.IsCocleaItem
                0x000000000800d1d0       0x28 Core/Src/user.o
                0x000000000800d1d0                IsCocleaItem
 .text.IsPreAccHotItem
                0x000000000800d1f8       0x18 Core/Src/user.o
                0x000000000800d1f8                IsPreAccHotItem
 .text.IsAccBItem
                0x000000000800d210       0x18 Core/Src/user.o
                0x000000000800d210                IsAccBItem
 .text.IsWiFiIPvalid
                0x000000000800d228       0x20 Core/Src/user.o
                0x000000000800d228                IsWiFiIPvalid
 .text.VisAlmRec
                0x000000000800d248      0x508 Core/Src/userAllarmi.o
 .text.EVE_WinList
                0x000000000800d750      0x664 Core/Src/userAllarmi.o
                0x000000000800d750                EVE_WinList
 .text.IsValidAlmRec
                0x000000000800ddb4       0x1a Core/Src/userAllarmi.o
                0x000000000800ddb4                IsValidAlmRec
 *fill*         0x000000000800ddce        0x2 
 .text.AlarmPut
                0x000000000800ddd0      0x108 Core/Src/userAllarmi.o
                0x000000000800ddd0                AlarmPut
 .text.AlarmInit
                0x000000000800ded8       0x7c Core/Src/userAllarmi.o
                0x000000000800ded8                AlarmInit
 .text.AlarmGet
                0x000000000800df54       0x38 Core/Src/userAllarmi.o
                0x000000000800df54                AlarmGet
 .text.IsAlmRec
                0x000000000800df8c       0x10 Core/Src/userAllarmi.o
                0x000000000800df8c                IsAlmRec
 .text.WinAlmRec
                0x000000000800df9c      0x1b0 Core/Src/userAllarmi.o
                0x000000000800df9c                WinAlmRec
 .text.AlarmEraseAll
                0x000000000800e14c       0x50 Core/Src/userAllarmi.o
                0x000000000800e14c                AlarmEraseAll
 .text.IsMBTempAmb
                0x000000000800e19c       0x18 Core/Src/userAvvio.o
 .text.Check4CmdGroup
                0x000000000800e1b4       0x3c Core/Src/userAvvio.o
 .text.userVisStandby
                0x000000000800e1f0       0x5c Core/Src/userAvvio.o
 .text.ExecUnlock
                0x000000000800e24c       0x40 Core/Src/userAvvio.o
 .text.userVisSetpTemp
                0x000000000800e28c       0xd0 Core/Src/userAvvio.o
 .text.WinAlarm
                0x000000000800e35c      0x898 Core/Src/userAvvio.o
 .text.userVisTemp
                0x000000000800ebf4      0x414 Core/Src/userAvvio.o
 .text.WinSetFan
                0x000000000800f008      0x944 Core/Src/userAvvio.o
 .text.WinSetIdro
                0x000000000800f94c      0x96c Core/Src/userAvvio.o
 .text.WinESM   0x00000000080102b8      0x714 Core/Src/userAvvio.o
 .text.userVisAvvio
                0x00000000080109cc       0x94 Core/Src/userAvvio.o
                0x00000000080109cc                userVisAvvio
 .text.ReleaseAllBitmapAvvio
                0x0000000008010a60       0x20 Core/Src/userAvvio.o
                0x0000000008010a60                ReleaseAllBitmapAvvio
 .text.LoadAllBitmapAvvio
                0x0000000008010a80       0xa0 Core/Src/userAvvio.o
                0x0000000008010a80                LoadAllBitmapAvvio
 .text.userStandby
                0x0000000008010b20      0xb5c Core/Src/userAvvio.o
                0x0000000008010b20                userStandby
 .text.WinSetPower
                0x000000000801167c      0x5dc Core/Src/userAvvio.o
                0x000000000801167c                WinSetPower
 .text.WinSetTemp
                0x0000000008011c58      0x63c Core/Src/userAvvio.o
                0x0000000008011c58                WinSetTemp
 .text.userAvvio
                0x0000000008012294     0x2478 Core/Src/userAvvio.o
                0x0000000008012294                userAvvio
 .text.userRestartOff
                0x000000000801470c      0x4e4 Core/Src/userAvvio.o
                0x000000000801470c                userRestartOff
 .text.LoadAllBitmapCrono
                0x0000000008014bf0       0xa0 Core/Src/userCrono.o
 .text.ReleaseAllBitmapCrono
                0x0000000008014c90       0x5c Core/Src/userCrono.o
 .text.userPostSetCronoPar
                0x0000000008014cec       0xa4 Core/Src/userCrono.o
                0x0000000008014cec                userPostSetCronoPar
 .text.userVisCrono
                0x0000000008014d90        0xa Core/Src/userCrono.o
                0x0000000008014d90                userVisCrono
 *fill*         0x0000000008014d9a        0x2 
 .text.userToggleCronoEnable
                0x0000000008014d9c       0x58 Core/Src/userCrono.o
                0x0000000008014d9c                userToggleCronoEnable
 .text.userCrono
                0x0000000008014df4      0x908 Core/Src/userCrono.o
                0x0000000008014df4                userCrono
 .text.InitPassword
                0x00000000080156fc       0x18 Core/Src/userInit.o
                0x00000000080156fc                InitPassword
 .text.InitLogo
                0x0000000008015714       0x34 Core/Src/userInit.o
                0x0000000008015714                InitLogo
 .text.InitTipoDesc
                0x0000000008015748       0x58 Core/Src/userInit.o
                0x0000000008015748                InitTipoDesc
 .text.userVisInit
                0x00000000080157a0       0xd0 Core/Src/userInit.o
                0x00000000080157a0                userVisInit
 .text.userCollectParam
                0x0000000008015870       0xc0 Core/Src/userInit.o
                0x0000000008015870                userCollectParam
 .text.userInit
                0x0000000008015930      0x250 Core/Src/userInit.o
                0x0000000008015930                userInit
 .text.GetRealParCode
                0x0000000008015b80       0x98 Core/Src/userMenu.o
 .text.EnterVisParCod
                0x0000000008015c18       0x28 Core/Src/userMenu.o
 .text.setup_menu_draw
                0x0000000008015c40      0xc44 Core/Src/userMenu.o
 .text.setup_menu_init
                0x0000000008016884       0xd4 Core/Src/userMenu.o
 .text.VisMenu  0x0000000008016958       0xe8 Core/Src/userMenu.o
 .text.RetMenu  0x0000000008016a40       0x38 Core/Src/userMenu.o
 .text.RetMenuSettings
                0x0000000008016a78       0x14 Core/Src/userMenu.o
 .text.RetMenuTest
                0x0000000008016a8c       0x14 Core/Src/userMenu.o
 .text.RetMenuAlarms
                0x0000000008016aa0       0x14 Core/Src/userMenu.o
 .text.RetMenuAttuaPot
                0x0000000008016ab4       0x14 Core/Src/userMenu.o
 .text.RetMenuAttuaTra
                0x0000000008016ac8       0x14 Core/Src/userMenu.o
 .text.RetMenuCtrl
                0x0000000008016adc       0x14 Core/Src/userMenu.o
 .text.RetMenuSysCfg
                0x0000000008016af0       0x14 Core/Src/userMenu.o
 .text.RetMenuTec
                0x0000000008016b04       0x14 Core/Src/userMenu.o
                0x0000000008016b04                RetMenuTec
 .text.RetMainMenu
                0x0000000008016b18       0x40 Core/Src/userMenu.o
 .text.userExitMenu
                0x0000000008016b58       0x44 Core/Src/userMenu.o
                0x0000000008016b58                userExitMenu
 .text.ExitMenuCronoProg
                0x0000000008016b9c       0xdc Core/Src/userMenu.o
                0x0000000008016b9c                ExitMenuCronoProg
 .text.CheckMenuAccess
                0x0000000008016c78       0x40 Core/Src/userMenu.o
                0x0000000008016c78                CheckMenuAccess
 .text.EnterMenu
                0x0000000008016cb8       0xcc Core/Src/userMenu.o
 .text.EnterMenuAttua
                0x0000000008016d84       0x24 Core/Src/userMenu.o
 .text.EnterMenuLoads
                0x0000000008016da8       0x24 Core/Src/userMenu.o
 .text.EnterMenuCmd
                0x0000000008016dcc       0x24 Core/Src/userMenu.o
 .text.EnterMenuRicette
                0x0000000008016df0       0x24 Core/Src/userMenu.o
 .text.EnterMenuTec
                0x0000000008016e14       0x24 Core/Src/userMenu.o
 .text.EnterMenuTest
                0x0000000008016e38       0x24 Core/Src/userMenu.o
 .text.EnterMenuAlarms
                0x0000000008016e5c       0x24 Core/Src/userMenu.o
 .text.EnterMenuSensAria
                0x0000000008016e80       0x24 Core/Src/userMenu.o
 .text.EnterMenuSensPlt
                0x0000000008016ea4       0x24 Core/Src/userMenu.o
 .text.EnterMenuAlmFumi
                0x0000000008016ec8       0x24 Core/Src/userMenu.o
 .text.EnterMenuAttuaPot
                0x0000000008016eec       0x24 Core/Src/userMenu.o
 .text.EnterMenuInterp
                0x0000000008016f10       0x24 Core/Src/userMenu.o
 .text.EnterMenuPuliz
                0x0000000008016f34       0x24 Core/Src/userMenu.o
 .text.EnterMenuPot6
                0x0000000008016f58       0x24 Core/Src/userMenu.o
 .text.EnterMenuPot5
                0x0000000008016f7c       0x24 Core/Src/userMenu.o
 .text.EnterMenuPot4
                0x0000000008016fa0       0x24 Core/Src/userMenu.o
 .text.EnterMenuPot3
                0x0000000008016fc4       0x24 Core/Src/userMenu.o
 .text.EnterMenuPot2
                0x0000000008016fe8       0x24 Core/Src/userMenu.o
 .text.EnterMenuPot1
                0x000000000801700c       0x24 Core/Src/userMenu.o
 .text.EnterMenuPB
                0x0000000008017030       0x24 Core/Src/userMenu.o
 .text.EnterMenuRitPot
                0x0000000008017054       0x24 Core/Src/userMenu.o
 .text.EnterMenuRitEsp
                0x0000000008017078       0x24 Core/Src/userMenu.o
 .text.EnterMenuTFunz
                0x000000000801709c       0x24 Core/Src/userMenu.o
 .text.EnterMenuParPot
                0x00000000080170c0       0x24 Core/Src/userMenu.o
 .text.EnterMenuAttuaTra
                0x00000000080170e4       0x24 Core/Src/userMenu.o
 .text.EnterMenuRaffA
                0x0000000008017108       0x24 Core/Src/userMenu.o
 .text.EnterMenuSpeB
                0x000000000801712c       0x24 Core/Src/userMenu.o
 .text.EnterMenuSpeA
                0x0000000008017150       0x24 Core/Src/userMenu.o
 .text.EnterMenuFireONA
                0x0000000008017174       0x24 Core/Src/userMenu.o
 .text.EnterMenuAccB
                0x0000000008017198       0x24 Core/Src/userMenu.o
 .text.EnterMenuAccA
                0x00000000080171bc       0x24 Core/Src/userMenu.o
 .text.EnterMenuPreAccHot
                0x00000000080171e0       0x24 Core/Src/userMenu.o
 .text.EnterMenuPreAcc2
                0x0000000008017204       0x24 Core/Src/userMenu.o
 .text.EnterMenuPreAcc1
                0x0000000008017228       0x24 Core/Src/userMenu.o
 .text.EnterMenuParTra
                0x000000000801724c       0x24 Core/Src/userMenu.o
 .text.EnterMenuIdro
                0x0000000008017270       0x24 Core/Src/userMenu.o
 .text.EnterMenuCtrl
                0x0000000008017294       0x24 Core/Src/userMenu.o
 .text.EnterMenuScuot
                0x00000000080172b8       0x24 Core/Src/userMenu.o
 .text.EnterMenuEco
                0x00000000080172dc       0x24 Core/Src/userMenu.o
 .text.EnterMenuRicTra
                0x0000000008017300       0x24 Core/Src/userMenu.o
 .text.EnterMenuSysCfg
                0x0000000008017324       0x24 Core/Src/userMenu.o
 .text.EnterMenuFan3
                0x0000000008017348       0x24 Core/Src/userMenu.o
 .text.EnterMenuFan2
                0x000000000801736c       0x24 Core/Src/userMenu.o
 .text.EnterMenuFan1
                0x0000000008017390       0x24 Core/Src/userMenu.o
 .text.EnterMenuFanAmb
                0x00000000080173b4       0x24 Core/Src/userMenu.o
 .text.EnterMenuCoclea
                0x00000000080173d8       0x24 Core/Src/userMenu.o
 .text.EnterMenuBlkout
                0x00000000080173fc       0x24 Core/Src/userMenu.o
 .text.EnterMenuGen
                0x0000000008017420       0x24 Core/Src/userMenu.o
 .text.EnterMenuSettings
                0x0000000008017444       0x24 Core/Src/userMenu.o
 .text.userIsWarning
                0x0000000008017468       0x10 Core/Src/userMenu.o
                0x0000000008017468                userIsWarning
 .text.WinSetString
                0x0000000008017478      0xca8 Core/Src/userMenu.o
                0x0000000008017478                WinSetString
 .text.WinSetParam
                0x0000000008018120      0x64c Core/Src/userMenu.o
                0x0000000008018120                WinSetParam
 .text.WinSetTime
                0x000000000801876c      0x7e4 Core/Src/userMenu.o
                0x000000000801876c                WinSetTime
 .text.WinSetDate
                0x0000000008018f50      0xc00 Core/Src/userMenu.o
                0x0000000008018f50                WinSetDate
 .text.WinPassword
                0x0000000008019b50      0x9b4 Core/Src/userMenu.o
                0x0000000008019b50                WinPassword
 .text.userVisHidPass
                0x000000000801a504       0xa8 Core/Src/userMenu.o
 .text.WinConfirm
                0x000000000801a5ac      0x31c Core/Src/userMenu.o
                0x000000000801a5ac                WinConfirm
 .text.ConfTaraTC
                0x000000000801a8c8       0x44 Core/Src/userMenu.o
 .text.ConfBypass
                0x000000000801a90c       0x34 Core/Src/userMenu.o
 .text.ConfBypassTra
                0x000000000801a940       0x34 Core/Src/userMenu.o
 .text.ConfTipoDef
                0x000000000801a974       0x34 Core/Src/userMenu.o
 .text.WinSetParWaitResult
                0x000000000801a9a8       0xd0 Core/Src/userMenu.o
                0x000000000801a9a8                WinSetParWaitResult
 .text.ConfOreSAT
                0x000000000801aa78       0x74 Core/Src/userMenu.o
 .text.WinSetDisplay
                0x000000000801aaec      0x804 Core/Src/userMenu.o
                0x000000000801aaec                WinSetDisplay
 .text.userMenu
                0x000000000801b2f0      0xeec Core/Src/userMenu.o
                0x000000000801b2f0                userMenu
 .text.EnterMenuInfo
                0x000000000801c1dc       0x24 Core/Src/userMenu.o
                0x000000000801c1dc                EnterMenuInfo
 .text.RetMenuInfo
                0x000000000801c200       0x14 Core/Src/userMenu.o
                0x000000000801c200                RetMenuInfo
 .text.EnterMenuNetwork
                0x000000000801c214       0x24 Core/Src/userMenu.o
                0x000000000801c214                EnterMenuNetwork
 .text.EnterMenuWarn
                0x000000000801c238       0x24 Core/Src/userMenu.o
                0x000000000801c238                EnterMenuWarn
 .text.EnterMainMenu
                0x000000000801c25c       0x70 Core/Src/userMenu.o
                0x000000000801c25c                EnterMainMenu
 .text.EnterLocalSettings
                0x000000000801c2cc       0x70 Core/Src/userMenu.o
                0x000000000801c2cc                EnterLocalSettings
 .text.EnterMenuCronoProg
                0x000000000801c33c       0x28 Core/Src/userMenu.o
                0x000000000801c33c                EnterMenuCronoProg
 .text.userVisReqParCod
                0x000000000801c364       0x3c Core/Src/userParamCode.o
                0x000000000801c364                userVisReqParCod
 .text.userParamCode
                0x000000000801c3a0     0x114c Core/Src/userParamCode.o
                0x000000000801c3a0                userParamCode
 .text.userParamVis
                0x000000000801d4ec      0x7cc Core/Src/userParamCode.o
                0x000000000801d4ec                userParamVis
 .text.userVisReset
                0x000000000801dcb8       0xdc Core/Src/userReset.o
                0x000000000801dcb8                userVisReset
 .text.userReset
                0x000000000801dd94      0x420 Core/Src/userReset.o
                0x000000000801dd94                userReset
 .text.VisVersion
                0x000000000801e1b4      0x134 Core/Src/userResources.o
 .text.GoToSleepOnBatteryCharge
                0x000000000801e2e8       0x64 Core/Src/userResources.o
 .text.userVisBattery
                0x000000000801e34c       0x30 Core/Src/userResources.o
                0x000000000801e34c                userVisBattery
 .text.userVisResources
                0x000000000801e37c       0x38 Core/Src/userResources.o
                0x000000000801e37c                userVisResources
 .text.userResources
                0x000000000801e3b4      0x124 Core/Src/userResources.o
                0x000000000801e3b4                userResources
 .text.userBattery
                0x000000000801e4d8      0x3bc Core/Src/userResources.o
                0x000000000801e4d8                userBattery
 .text.HAL_InitTick
                0x000000000801e894       0x4c Drivers/STM32F4xx_HAL_Driver/Src/stm32f4xx_hal.o
                0x000000000801e894                HAL_InitTick
 .text.HAL_Init
                0x000000000801e8e0       0x34 Drivers/STM32F4xx_HAL_Driver/Src/stm32f4xx_hal.o
                0x000000000801e8e0                HAL_Init
 .text.HAL_IncTick
                0x000000000801e914       0x18 Drivers/STM32F4xx_HAL_Driver/Src/stm32f4xx_hal.o
                0x000000000801e914                HAL_IncTick
 .text.HAL_GetTick
                0x000000000801e92c        0xc Drivers/STM32F4xx_HAL_Driver/Src/stm32f4xx_hal.o
                0x000000000801e92c                HAL_GetTick
 .text.HAL_Delay
                0x000000000801e938       0x28 Drivers/STM32F4xx_HAL_Driver/Src/stm32f4xx_hal.o
                0x000000000801e938                HAL_Delay
 .text.ADC_Init
                0x000000000801e960      0x14c Drivers/STM32F4xx_HAL_Driver/Src/stm32f4xx_hal_adc.o
 .text.HAL_ADC_Init
                0x000000000801eaac      0x1dc Drivers/STM32F4xx_HAL_Driver/Src/stm32f4xx_hal_adc.o
                0x000000000801eaac                HAL_ADC_Init
 .text.HAL_ADC_DeInit
                0x000000000801ec88       0x58 Drivers/STM32F4xx_HAL_Driver/Src/stm32f4xx_hal_adc.o
                0x000000000801ec88                HAL_ADC_DeInit
 .text.HAL_ADC_Start_DMA
                0x000000000801ece0      0x17c Drivers/STM32F4xx_HAL_Driver/Src/stm32f4xx_hal_adc.o
                0x000000000801ece0                HAL_ADC_Start_DMA
 .text.HAL_ADC_Stop_DMA
                0x000000000801ee5c       0x78 Drivers/STM32F4xx_HAL_Driver/Src/stm32f4xx_hal_adc.o
                0x000000000801ee5c                HAL_ADC_Stop_DMA
 .text.ADC_DMAConvCplt
                0x000000000801eed4       0x62 Drivers/STM32F4xx_HAL_Driver/Src/stm32f4xx_hal_adc.o
 .text.HAL_ADC_ConvHalfCpltCallback
                0x000000000801ef36        0x2 Drivers/STM32F4xx_HAL_Driver/Src/stm32f4xx_hal_adc.o
                0x000000000801ef36                HAL_ADC_ConvHalfCpltCallback
 .text.ADC_DMAHalfConvCplt
                0x000000000801ef38        0xa Drivers/STM32F4xx_HAL_Driver/Src/stm32f4xx_hal_adc.o
 .text.ADC_DMAError
                0x000000000801ef42       0x16 Drivers/STM32F4xx_HAL_Driver/Src/stm32f4xx_hal_adc.o
 .text.HAL_ADC_ConfigChannel
                0x000000000801ef58      0x1d0 Drivers/STM32F4xx_HAL_Driver/Src/stm32f4xx_hal_adc.o
                0x000000000801ef58                HAL_ADC_ConfigChannel
 .text.HAL_NVIC_SetPriorityGrouping
                0x000000000801f128       0x3c Drivers/STM32F4xx_HAL_Driver/Src/stm32f4xx_hal_cortex.o
                0x000000000801f128                HAL_NVIC_SetPriorityGrouping
 .text.HAL_NVIC_SetPriority
                0x000000000801f164       0x8c Drivers/STM32F4xx_HAL_Driver/Src/stm32f4xx_hal_cortex.o
                0x000000000801f164                HAL_NVIC_SetPriority
 .text.HAL_NVIC_EnableIRQ
                0x000000000801f1f0       0x2c Drivers/STM32F4xx_HAL_Driver/Src/stm32f4xx_hal_cortex.o
                0x000000000801f1f0                HAL_NVIC_EnableIRQ
 .text.HAL_NVIC_DisableIRQ
                0x000000000801f21c       0x2c Drivers/STM32F4xx_HAL_Driver/Src/stm32f4xx_hal_cortex.o
                0x000000000801f21c                HAL_NVIC_DisableIRQ
 .text.HAL_NVIC_SystemReset
                0x000000000801f248       0x24 Drivers/STM32F4xx_HAL_Driver/Src/stm32f4xx_hal_cortex.o
                0x000000000801f248                HAL_NVIC_SystemReset
 .text.HAL_SYSTICK_Config
                0x000000000801f26c       0x2c Drivers/STM32F4xx_HAL_Driver/Src/stm32f4xx_hal_cortex.o
                0x000000000801f26c                HAL_SYSTICK_Config
 .text.DMA_SetConfig
                0x000000000801f298       0x2c Drivers/STM32F4xx_HAL_Driver/Src/stm32f4xx_hal_dma.o
 .text.DMA_CalcBaseAndBitshift
                0x000000000801f2c4       0x3c Drivers/STM32F4xx_HAL_Driver/Src/stm32f4xx_hal_dma.o
 .text.DMA_CheckFifoParam
                0x000000000801f300       0x8e Drivers/STM32F4xx_HAL_Driver/Src/stm32f4xx_hal_dma.o
 *fill*         0x000000000801f38e        0x2 
 .text.HAL_DMA_Init
                0x000000000801f390      0x290 Drivers/STM32F4xx_HAL_Driver/Src/stm32f4xx_hal_dma.o
                0x000000000801f390                HAL_DMA_Init
 .text.HAL_DMA_DeInit
                0x000000000801f620       0xd4 Drivers/STM32F4xx_HAL_Driver/Src/stm32f4xx_hal_dma.o
                0x000000000801f620                HAL_DMA_DeInit
 .text.HAL_DMA_Start_IT
                0x000000000801f6f4       0xa0 Drivers/STM32F4xx_HAL_Driver/Src/stm32f4xx_hal_dma.o
                0x000000000801f6f4                HAL_DMA_Start_IT
 .text.HAL_DMA_Abort
                0x000000000801f794       0x94 Drivers/STM32F4xx_HAL_Driver/Src/stm32f4xx_hal_dma.o
                0x000000000801f794                HAL_DMA_Abort
 .text.HAL_DMA_Abort_IT
                0x000000000801f828       0x26 Drivers/STM32F4xx_HAL_Driver/Src/stm32f4xx_hal_dma.o
                0x000000000801f828                HAL_DMA_Abort_IT
 *fill*         0x000000000801f84e        0x2 
 .text.HAL_DMA_IRQHandler
                0x000000000801f850      0x1dc Drivers/STM32F4xx_HAL_Driver/Src/stm32f4xx_hal_dma.o
                0x000000000801f850                HAL_DMA_IRQHandler
 .text.HAL_GPIO_Init
                0x000000000801fa2c      0x2b4 Drivers/STM32F4xx_HAL_Driver/Src/stm32f4xx_hal_gpio.o
                0x000000000801fa2c                HAL_GPIO_Init
 .text.HAL_GPIO_DeInit
                0x000000000801fce0      0x134 Drivers/STM32F4xx_HAL_Driver/Src/stm32f4xx_hal_gpio.o
                0x000000000801fce0                HAL_GPIO_DeInit
 .text.HAL_GPIO_ReadPin
                0x000000000801fe14       0x28 Drivers/STM32F4xx_HAL_Driver/Src/stm32f4xx_hal_gpio.o
                0x000000000801fe14                HAL_GPIO_ReadPin
 .text.HAL_GPIO_WritePin
                0x000000000801fe3c       0x38 Drivers/STM32F4xx_HAL_Driver/Src/stm32f4xx_hal_gpio.o
                0x000000000801fe3c                HAL_GPIO_WritePin
 .text.HAL_GPIO_TogglePin
                0x000000000801fe74       0x20 Drivers/STM32F4xx_HAL_Driver/Src/stm32f4xx_hal_gpio.o
                0x000000000801fe74                HAL_GPIO_TogglePin
 .text.HAL_GPIO_EXTI_IRQHandler
                0x000000000801fe94       0x1c Drivers/STM32F4xx_HAL_Driver/Src/stm32f4xx_hal_gpio.o
                0x000000000801fe94                HAL_GPIO_EXTI_IRQHandler
 .text.I2C_IsAcknowledgeFailed
                0x000000000801feb0       0x2a Drivers/STM32F4xx_HAL_Driver/Src/stm32f4xx_hal_i2c.o
 .text.I2C_WaitOnFlagUntilTimeout
                0x000000000801feda       0x68 Drivers/STM32F4xx_HAL_Driver/Src/stm32f4xx_hal_i2c.o
 .text.I2C_WaitOnMasterAddressFlagUntilTimeout
                0x000000000801ff42       0x90 Drivers/STM32F4xx_HAL_Driver/Src/stm32f4xx_hal_i2c.o
 .text.I2C_WaitOnTXEFlagUntilTimeout
                0x000000000801ffd2       0x4e Drivers/STM32F4xx_HAL_Driver/Src/stm32f4xx_hal_i2c.o
 .text.I2C_RequestMemoryWrite
                0x0000000008020020       0xd8 Drivers/STM32F4xx_HAL_Driver/Src/stm32f4xx_hal_i2c.o
 .text.I2C_RequestMemoryRead
                0x00000000080200f8      0x148 Drivers/STM32F4xx_HAL_Driver/Src/stm32f4xx_hal_i2c.o
 .text.I2C_WaitOnBTFFlagUntilTimeout
                0x0000000008020240       0x4e Drivers/STM32F4xx_HAL_Driver/Src/stm32f4xx_hal_i2c.o
 .text.I2C_WaitOnRXNEFlagUntilTimeout
                0x000000000802028e       0x5c Drivers/STM32F4xx_HAL_Driver/Src/stm32f4xx_hal_i2c.o
 *fill*         0x00000000080202ea        0x2 
 .text.HAL_I2C_Init
                0x00000000080202ec      0x1f8 Drivers/STM32F4xx_HAL_Driver/Src/stm32f4xx_hal_i2c.o
                0x00000000080202ec                HAL_I2C_Init
 .text.HAL_I2C_DeInit
                0x00000000080204e4       0x60 Drivers/STM32F4xx_HAL_Driver/Src/stm32f4xx_hal_i2c.o
                0x00000000080204e4                HAL_I2C_DeInit
 .text.HAL_I2C_Mem_Write
                0x0000000008020544      0x194 Drivers/STM32F4xx_HAL_Driver/Src/stm32f4xx_hal_i2c.o
                0x0000000008020544                HAL_I2C_Mem_Write
 .text.HAL_I2C_Mem_Read
                0x00000000080206d8      0x300 Drivers/STM32F4xx_HAL_Driver/Src/stm32f4xx_hal_i2c.o
                0x00000000080206d8                HAL_I2C_Mem_Read
 .text.HAL_I2C_IsDeviceReady
                0x00000000080209d8      0x18c Drivers/STM32F4xx_HAL_Driver/Src/stm32f4xx_hal_i2c.o
                0x00000000080209d8                HAL_I2C_IsDeviceReady
 .text.HAL_I2C_GetState
                0x0000000008020b64        0x6 Drivers/STM32F4xx_HAL_Driver/Src/stm32f4xx_hal_i2c.o
                0x0000000008020b64                HAL_I2C_GetState
 *fill*         0x0000000008020b6a        0x2 
 .text.HAL_PWR_EnableWakeUpPin
                0x0000000008020b6c       0x28 Drivers/STM32F4xx_HAL_Driver/Src/stm32f4xx_hal_pwr.o
                0x0000000008020b6c                HAL_PWR_EnableWakeUpPin
 .text.HAL_PWR_DisableWakeUpPin
                0x0000000008020b94       0x28 Drivers/STM32F4xx_HAL_Driver/Src/stm32f4xx_hal_pwr.o
                0x0000000008020b94                HAL_PWR_DisableWakeUpPin
 .text.HAL_PWR_EnterSLEEPMode
                0x0000000008020bbc       0x4c Drivers/STM32F4xx_HAL_Driver/Src/stm32f4xx_hal_pwr.o
                0x0000000008020bbc                HAL_PWR_EnterSLEEPMode
 .text.HAL_PWR_EnterSTOPMode
                0x0000000008020c08       0x68 Drivers/STM32F4xx_HAL_Driver/Src/stm32f4xx_hal_pwr.o
                0x0000000008020c08                HAL_PWR_EnterSTOPMode
 .text.HAL_PWR_EnterSTANDBYMode
                0x0000000008020c70       0x20 Drivers/STM32F4xx_HAL_Driver/Src/stm32f4xx_hal_pwr.o
                0x0000000008020c70                HAL_PWR_EnterSTANDBYMode
 .text.HAL_PWREx_EnableBkUpReg
                0x0000000008020c90       0x34 Drivers/STM32F4xx_HAL_Driver/Src/stm32f4xx_hal_pwr_ex.o
                0x0000000008020c90                HAL_PWREx_EnableBkUpReg
 .text.HAL_PWREx_EnableFlashPowerDown
                0x0000000008020cc4        0xc Drivers/STM32F4xx_HAL_Driver/Src/stm32f4xx_hal_pwr_ex.o
                0x0000000008020cc4                HAL_PWREx_EnableFlashPowerDown
 .text.HAL_RCC_OscConfig
                0x0000000008020cd0      0x4a0 Drivers/STM32F4xx_HAL_Driver/Src/stm32f4xx_hal_rcc.o
                0x0000000008020cd0                HAL_RCC_OscConfig
 .text.HAL_RCC_GetSysClockFreq
                0x0000000008021170       0xd8 Drivers/STM32F4xx_HAL_Driver/Src/stm32f4xx_hal_rcc.o
                0x0000000008021170                HAL_RCC_GetSysClockFreq
 .text.HAL_RCC_ClockConfig
                0x0000000008021248      0x214 Drivers/STM32F4xx_HAL_Driver/Src/stm32f4xx_hal_rcc.o
                0x0000000008021248                HAL_RCC_ClockConfig
 .text.HAL_RCC_GetHCLKFreq
                0x000000000802145c        0xc Drivers/STM32F4xx_HAL_Driver/Src/stm32f4xx_hal_rcc.o
                0x000000000802145c                HAL_RCC_GetHCLKFreq
 .text.HAL_RCC_GetPCLK1Freq
                0x0000000008021468       0x20 Drivers/STM32F4xx_HAL_Driver/Src/stm32f4xx_hal_rcc.o
                0x0000000008021468                HAL_RCC_GetPCLK1Freq
 .text.HAL_RCC_GetPCLK2Freq
                0x0000000008021488       0x20 Drivers/STM32F4xx_HAL_Driver/Src/stm32f4xx_hal_rcc.o
                0x0000000008021488                HAL_RCC_GetPCLK2Freq
 .text.HAL_RCCEx_PeriphCLKConfig
                0x00000000080214a8      0x2cc Drivers/STM32F4xx_HAL_Driver/Src/stm32f4xx_hal_rcc_ex.o
                0x00000000080214a8                HAL_RCCEx_PeriphCLKConfig
 .text.HAL_RTC_WaitForSynchro
                0x0000000008021774       0x32 Drivers/STM32F4xx_HAL_Driver/Src/stm32f4xx_hal_rtc.o
                0x0000000008021774                HAL_RTC_WaitForSynchro
 .text.RTC_EnterInitMode
                0x00000000080217a6       0x3c Drivers/STM32F4xx_HAL_Driver/Src/stm32f4xx_hal_rtc.o
                0x00000000080217a6                RTC_EnterInitMode
 *fill*         0x00000000080217e2        0x2 
 .text.HAL_RTC_Init
                0x00000000080217e4      0x14c Drivers/STM32F4xx_HAL_Driver/Src/stm32f4xx_hal_rtc.o
                0x00000000080217e4                HAL_RTC_Init
 .text.RTC_ByteToBcd2
                0x0000000008021930       0x16 Drivers/STM32F4xx_HAL_Driver/Src/stm32f4xx_hal_rtc.o
                0x0000000008021930                RTC_ByteToBcd2
 .text.RTC_Bcd2ToByte
                0x0000000008021946       0x12 Drivers/STM32F4xx_HAL_Driver/Src/stm32f4xx_hal_rtc.o
                0x0000000008021946                RTC_Bcd2ToByte
 .text.HAL_RTC_SetTime
                0x0000000008021958      0x218 Drivers/STM32F4xx_HAL_Driver/Src/stm32f4xx_hal_rtc.o
                0x0000000008021958                HAL_RTC_SetTime
 .text.HAL_RTC_GetTime
                0x0000000008021b70       0x70 Drivers/STM32F4xx_HAL_Driver/Src/stm32f4xx_hal_rtc.o
                0x0000000008021b70                HAL_RTC_GetTime
 .text.HAL_RTC_SetDate
                0x0000000008021be0      0x174 Drivers/STM32F4xx_HAL_Driver/Src/stm32f4xx_hal_rtc.o
                0x0000000008021be0                HAL_RTC_SetDate
 .text.HAL_RTC_GetDate
                0x0000000008021d54       0x5c Drivers/STM32F4xx_HAL_Driver/Src/stm32f4xx_hal_rtc.o
                0x0000000008021d54                HAL_RTC_GetDate
 .text.HAL_RTCEx_SetWakeUpTimer_IT
                0x0000000008021db0      0x13c Drivers/STM32F4xx_HAL_Driver/Src/stm32f4xx_hal_rtc_ex.o
                0x0000000008021db0                HAL_RTCEx_SetWakeUpTimer_IT
 .text.HAL_RTCEx_DeactivateWakeUpTimer
                0x0000000008021eec       0x70 Drivers/STM32F4xx_HAL_Driver/Src/stm32f4xx_hal_rtc_ex.o
                0x0000000008021eec                HAL_RTCEx_DeactivateWakeUpTimer
 .text.HAL_RTCEx_WakeUpTimerIRQHandler
                0x0000000008021f5c       0x3c Drivers/STM32F4xx_HAL_Driver/Src/stm32f4xx_hal_rtc_ex.o
                0x0000000008021f5c                HAL_RTCEx_WakeUpTimerIRQHandler
 .text.HAL_RTCEx_BKUPWrite
                0x0000000008021f98       0x28 Drivers/STM32F4xx_HAL_Driver/Src/stm32f4xx_hal_rtc_ex.o
                0x0000000008021f98                HAL_RTCEx_BKUPWrite
 .text.HAL_RTCEx_BKUPRead
                0x0000000008021fc0       0x24 Drivers/STM32F4xx_HAL_Driver/Src/stm32f4xx_hal_rtc_ex.o
                0x0000000008021fc0                HAL_RTCEx_BKUPRead
 .text.SPI_WaitFlagStateUntilTimeout
                0x0000000008021fe4       0x96 Drivers/STM32F4xx_HAL_Driver/Src/stm32f4xx_hal_spi.o
 .text.SPI_CheckFlag_BSY
                0x000000000802207a       0x28 Drivers/STM32F4xx_HAL_Driver/Src/stm32f4xx_hal_spi.o
 *fill*         0x00000000080220a2        0x2 
 .text.HAL_SPI_Init
                0x00000000080220a4      0x1a4 Drivers/STM32F4xx_HAL_Driver/Src/stm32f4xx_hal_spi.o
                0x00000000080220a4                HAL_SPI_Init
 .text.HAL_SPI_DeInit
                0x0000000008022248       0x68 Drivers/STM32F4xx_HAL_Driver/Src/stm32f4xx_hal_spi.o
                0x0000000008022248                HAL_SPI_DeInit
 .text.HAL_SPI_Transmit
                0x00000000080222b0      0x1c0 Drivers/STM32F4xx_HAL_Driver/Src/stm32f4xx_hal_spi.o
                0x00000000080222b0                HAL_SPI_Transmit
 .text.HAL_SPI_TransmitReceive
                0x0000000008022470      0x24c Drivers/STM32F4xx_HAL_Driver/Src/stm32f4xx_hal_spi.o
                0x0000000008022470                HAL_SPI_TransmitReceive
 .text.HAL_SPI_Receive
                0x00000000080226bc      0x168 Drivers/STM32F4xx_HAL_Driver/Src/stm32f4xx_hal_spi.o
                0x00000000080226bc                HAL_SPI_Receive
 .text.UART_EndRxTransfer
                0x0000000008022824       0x1c Drivers/STM32F4xx_HAL_Driver/Src/stm32f4xx_hal_uart.o
 .text.UART_Transmit_IT
                0x0000000008022840       0x68 Drivers/STM32F4xx_HAL_Driver/Src/stm32f4xx_hal_uart.o
 .text.UART_SetConfig
                0x00000000080228a8      0x3a0 Drivers/STM32F4xx_HAL_Driver/Src/stm32f4xx_hal_uart.o
 .text.UART_WaitOnFlagUntilTimeout
                0x0000000008022c48       0x62 Drivers/STM32F4xx_HAL_Driver/Src/stm32f4xx_hal_uart.o
 *fill*         0x0000000008022caa        0x2 
 .text.HAL_UART_Init
                0x0000000008022cac      0x100 Drivers/STM32F4xx_HAL_Driver/Src/stm32f4xx_hal_uart.o
                0x0000000008022cac                HAL_UART_Init
 .text.HAL_UART_DeInit
                0x0000000008022dac       0x54 Drivers/STM32F4xx_HAL_Driver/Src/stm32f4xx_hal_uart.o
                0x0000000008022dac                HAL_UART_DeInit
 .text.HAL_UART_Transmit
                0x0000000008022e00       0xe0 Drivers/STM32F4xx_HAL_Driver/Src/stm32f4xx_hal_uart.o
                0x0000000008022e00                HAL_UART_Transmit
 .text.HAL_UART_Receive
                0x0000000008022ee0       0xe4 Drivers/STM32F4xx_HAL_Driver/Src/stm32f4xx_hal_uart.o
                0x0000000008022ee0                HAL_UART_Receive
 .text.HAL_UART_Transmit_IT
                0x0000000008022fc4       0x48 Drivers/STM32F4xx_HAL_Driver/Src/stm32f4xx_hal_uart.o
                0x0000000008022fc4                HAL_UART_Transmit_IT
 .text.HAL_UART_Receive_IT
                0x000000000802300c       0x52 Drivers/STM32F4xx_HAL_Driver/Src/stm32f4xx_hal_uart.o
                0x000000000802300c                HAL_UART_Receive_IT
 .text.UART_EndTransmit_IT
                0x000000000802305e       0x1a Drivers/STM32F4xx_HAL_Driver/Src/stm32f4xx_hal_uart.o
 .text.UART_Receive_IT
                0x0000000008023078       0x92 Drivers/STM32F4xx_HAL_Driver/Src/stm32f4xx_hal_uart.o
 *fill*         0x000000000802310a        0x2 
 .text.HAL_UART_IRQHandler
                0x000000000802310c      0x120 Drivers/STM32F4xx_HAL_Driver/Src/stm32f4xx_hal_uart.o
                0x000000000802310c                HAL_UART_IRQHandler
 .text.UART_DMAAbortOnError
                0x000000000802322c       0x10 Drivers/STM32F4xx_HAL_Driver/Src/stm32f4xx_hal_uart.o
 .text.makeFreeRtosPriority
                0x000000000802323c        0xc Middlewares/Third_Party/FreeRTOS/Source/CMSIS_RTOS/cmsis_os.o
 .text.inHandlerMode
                0x0000000008023248        0xc Middlewares/Third_Party/FreeRTOS/Source/CMSIS_RTOS/cmsis_os.o
 .text.osKernelStart
                0x0000000008023254        0xa Middlewares/Third_Party/FreeRTOS/Source/CMSIS_RTOS/cmsis_os.o
                0x0000000008023254                osKernelStart
 .text.osKernelRunning
                0x000000000802325e       0x12 Middlewares/Third_Party/FreeRTOS/Source/CMSIS_RTOS/cmsis_os.o
                0x000000000802325e                osKernelRunning
 .text.osKernelSysTick
                0x0000000008023270       0x14 Middlewares/Third_Party/FreeRTOS/Source/CMSIS_RTOS/cmsis_os.o
                0x0000000008023270                osKernelSysTick
 .text.osThreadCreate
                0x0000000008023284       0x34 Middlewares/Third_Party/FreeRTOS/Source/CMSIS_RTOS/cmsis_os.o
                0x0000000008023284                osThreadCreate
 .text.osDelay  0x00000000080232b8       0x12 Middlewares/Third_Party/FreeRTOS/Source/CMSIS_RTOS/cmsis_os.o
                0x00000000080232b8                osDelay
 *fill*         0x00000000080232ca        0x2 
 .text.osTimerCreate
                0x00000000080232cc       0x28 Middlewares/Third_Party/FreeRTOS/Source/CMSIS_RTOS/cmsis_os.o
                0x00000000080232cc                osTimerCreate
 .text.osTimerStart
                0x00000000080232f4       0x6c Middlewares/Third_Party/FreeRTOS/Source/CMSIS_RTOS/cmsis_os.o
                0x00000000080232f4                osTimerStart
 .text.osTimerStop
                0x0000000008023360       0x64 Middlewares/Third_Party/FreeRTOS/Source/CMSIS_RTOS/cmsis_os.o
                0x0000000008023360                osTimerStop
 .text.osMutexCreate
                0x00000000080233c4        0xa Middlewares/Third_Party/FreeRTOS/Source/CMSIS_RTOS/cmsis_os.o
                0x00000000080233c4                osMutexCreate
 *fill*         0x00000000080233ce        0x2 
 .text.osMutexWait
                0x00000000080233d0       0x74 Middlewares/Third_Party/FreeRTOS/Source/CMSIS_RTOS/cmsis_os.o
                0x00000000080233d0                osMutexWait
 .text.osMutexRelease
                0x0000000008023444       0x5c Middlewares/Third_Party/FreeRTOS/Source/CMSIS_RTOS/cmsis_os.o
                0x0000000008023444                osMutexRelease
 .text.osMutexDelete
                0x00000000080234a0       0x18 Middlewares/Third_Party/FreeRTOS/Source/CMSIS_RTOS/cmsis_os.o
                0x00000000080234a0                osMutexDelete
 .text.osMessageCreate
                0x00000000080234b8        0xe Middlewares/Third_Party/FreeRTOS/Source/CMSIS_RTOS/cmsis_os.o
                0x00000000080234b8                osMessageCreate
 *fill*         0x00000000080234c6        0x2 
 .text.osMessagePut
                0x00000000080234c8       0x68 Middlewares/Third_Party/FreeRTOS/Source/CMSIS_RTOS/cmsis_os.o
                0x00000000080234c8                osMessagePut
 .text.osMessageGet
                0x0000000008023530       0xa0 Middlewares/Third_Party/FreeRTOS/Source/CMSIS_RTOS/cmsis_os.o
                0x0000000008023530                osMessageGet
 .text.osSystickHandler
                0x00000000080235d0       0x10 Middlewares/Third_Party/FreeRTOS/Source/CMSIS_RTOS/cmsis_os.o
                0x00000000080235d0                osSystickHandler
 .text.osThreadSuspendAll
                0x00000000080235e0        0xa Middlewares/Third_Party/FreeRTOS/Source/CMSIS_RTOS/cmsis_os.o
                0x00000000080235e0                osThreadSuspendAll
 .text.osThreadResumeAll
                0x00000000080235ea       0x12 Middlewares/Third_Party/FreeRTOS/Source/CMSIS_RTOS/cmsis_os.o
                0x00000000080235ea                osThreadResumeAll
 .text.vListInitialise
                0x00000000080235fc       0x16 Middlewares/Third_Party/FreeRTOS/Source/list.o
                0x00000000080235fc                vListInitialise
 .text.vListInitialiseItem
                0x0000000008023612        0x6 Middlewares/Third_Party/FreeRTOS/Source/list.o
                0x0000000008023612                vListInitialiseItem
 .text.vListInsertEnd
                0x0000000008023618       0x18 Middlewares/Third_Party/FreeRTOS/Source/list.o
                0x0000000008023618                vListInsertEnd
 .text.vListInsert
                0x0000000008023630       0x34 Middlewares/Third_Party/FreeRTOS/Source/list.o
                0x0000000008023630                vListInsert
 .text.uxListRemove
                0x0000000008023664       0x26 Middlewares/Third_Party/FreeRTOS/Source/list.o
                0x0000000008023664                uxListRemove
 .text.prvIsQueueFull
                0x000000000802368a       0x1e Middlewares/Third_Party/FreeRTOS/Source/queue.o
 .text.prvIsQueueEmpty
                0x00000000080236a8       0x1a Middlewares/Third_Party/FreeRTOS/Source/queue.o
 .text.prvCopyDataToQueue
                0x00000000080236c2       0x76 Middlewares/Third_Party/FreeRTOS/Source/queue.o
 .text.prvCopyDataFromQueue
                0x0000000008023738       0x24 Middlewares/Third_Party/FreeRTOS/Source/queue.o
 .text.prvUnlockQueue
                0x000000000802375c       0x6e Middlewares/Third_Party/FreeRTOS/Source/queue.o
 *fill*         0x00000000080237ca        0x2 
 .text.xQueueGenericReset
                0x00000000080237cc       0x90 Middlewares/Third_Party/FreeRTOS/Source/queue.o
                0x00000000080237cc                xQueueGenericReset
 .text.prvInitialiseNewQueue
                0x000000000802385c       0x1c Middlewares/Third_Party/FreeRTOS/Source/queue.o
 .text.xQueueGenericCreate
                0x0000000008023878       0x58 Middlewares/Third_Party/FreeRTOS/Source/queue.o
                0x0000000008023878                xQueueGenericCreate
 .text.xQueueGenericSend
                0x00000000080238d0      0x1ac Middlewares/Third_Party/FreeRTOS/Source/queue.o
                0x00000000080238d0                xQueueGenericSend
 .text.prvInitialiseMutex
                0x0000000008023a7c       0x18 Middlewares/Third_Party/FreeRTOS/Source/queue.o
 .text.xQueueCreateMutex
                0x0000000008023a94       0x16 Middlewares/Third_Party/FreeRTOS/Source/queue.o
                0x0000000008023a94                xQueueCreateMutex
 *fill*         0x0000000008023aaa        0x2 
 .text.xQueueGenericSendFromISR
                0x0000000008023aac       0xf0 Middlewares/Third_Party/FreeRTOS/Source/queue.o
                0x0000000008023aac                xQueueGenericSendFromISR
 .text.xQueueGiveFromISR
                0x0000000008023b9c       0xd4 Middlewares/Third_Party/FreeRTOS/Source/queue.o
                0x0000000008023b9c                xQueueGiveFromISR
 .text.xQueueGenericReceive
                0x0000000008023c70      0x1d4 Middlewares/Third_Party/FreeRTOS/Source/queue.o
                0x0000000008023c70                xQueueGenericReceive
 .text.xQueueReceiveFromISR
                0x0000000008023e44       0xc4 Middlewares/Third_Party/FreeRTOS/Source/queue.o
                0x0000000008023e44                xQueueReceiveFromISR
 .text.vQueueAddToRegistry
                0x0000000008023f08       0x28 Middlewares/Third_Party/FreeRTOS/Source/queue.o
                0x0000000008023f08                vQueueAddToRegistry
 .text.vQueueUnregisterQueue
                0x0000000008023f30       0x2c Middlewares/Third_Party/FreeRTOS/Source/queue.o
                0x0000000008023f30                vQueueUnregisterQueue
 .text.vQueueDelete
                0x0000000008023f5c       0x34 Middlewares/Third_Party/FreeRTOS/Source/queue.o
                0x0000000008023f5c                vQueueDelete
 .text.vQueueWaitForMessageRestricted
                0x0000000008023f90       0x52 Middlewares/Third_Party/FreeRTOS/Source/queue.o
                0x0000000008023f90                vQueueWaitForMessageRestricted
 *fill*         0x0000000008023fe2        0x2 
 .text.prvResetNextTaskUnblockTime
                0x0000000008023fe4       0x2c Middlewares/Third_Party/FreeRTOS/Source/tasks.o
 .text.prvDeleteTCB
                0x0000000008024010       0x12 Middlewares/Third_Party/FreeRTOS/Source/tasks.o
 .text.prvInitialiseNewTask
                0x0000000008024022       0x90 Middlewares/Third_Party/FreeRTOS/Source/tasks.o
 *fill*         0x00000000080240b2        0x2 
 .text.prvInitialiseTaskLists
                0x00000000080240b4       0x68 Middlewares/Third_Party/FreeRTOS/Source/tasks.o
 .text.prvAddNewTaskToReadyList
                0x000000000802411c       0xa8 Middlewares/Third_Party/FreeRTOS/Source/tasks.o
 .text.prvAddCurrentTaskToDelayedList
                0x00000000080241c4       0x98 Middlewares/Third_Party/FreeRTOS/Source/tasks.o
 .text.xTaskCreate
                0x000000000802425c       0x62 Middlewares/Third_Party/FreeRTOS/Source/tasks.o
                0x000000000802425c                xTaskCreate
 *fill*         0x00000000080242be        0x2 
 .text.vTaskStartScheduler
                0x00000000080242c0       0x94 Middlewares/Third_Party/FreeRTOS/Source/tasks.o
                0x00000000080242c0                vTaskStartScheduler
 .text.vTaskEndScheduler
                0x0000000008024354       0x24 Middlewares/Third_Party/FreeRTOS/Source/tasks.o
                0x0000000008024354                vTaskEndScheduler
 .text.vTaskSuspendAll
                0x0000000008024378       0x10 Middlewares/Third_Party/FreeRTOS/Source/tasks.o
                0x0000000008024378                vTaskSuspendAll
 .text.xTaskGetTickCount
                0x0000000008024388        0xc Middlewares/Third_Party/FreeRTOS/Source/tasks.o
                0x0000000008024388                xTaskGetTickCount
 .text.xTaskGetTickCountFromISR
                0x0000000008024394       0x10 Middlewares/Third_Party/FreeRTOS/Source/tasks.o
                0x0000000008024394                xTaskGetTickCountFromISR
 .text.xTaskIncrementTick
                0x00000000080243a4      0x138 Middlewares/Third_Party/FreeRTOS/Source/tasks.o
                0x00000000080243a4                xTaskIncrementTick
 .text.xTaskResumeAll
                0x00000000080244dc      0x108 Middlewares/Third_Party/FreeRTOS/Source/tasks.o
                0x00000000080244dc                xTaskResumeAll
 .text.vTaskDelay
                0x00000000080245e4       0x58 Middlewares/Third_Party/FreeRTOS/Source/tasks.o
                0x00000000080245e4                vTaskDelay
 .text.prvCheckTasksWaitingTermination
                0x000000000802463c       0x5c Middlewares/Third_Party/FreeRTOS/Source/tasks.o
 .text.prvIdleTask
                0x0000000008024698       0x30 Middlewares/Third_Party/FreeRTOS/Source/tasks.o
 .text.vTaskSwitchContext
                0x00000000080246c8       0xd8 Middlewares/Third_Party/FreeRTOS/Source/tasks.o
                0x00000000080246c8                vTaskSwitchContext
 .text.vTaskPlaceOnEventList
                0x00000000080247a0       0x40 Middlewares/Third_Party/FreeRTOS/Source/tasks.o
                0x00000000080247a0                vTaskPlaceOnEventList
 .text.vTaskPlaceOnEventListRestricted
                0x00000000080247e0       0x48 Middlewares/Third_Party/FreeRTOS/Source/tasks.o
                0x00000000080247e0                vTaskPlaceOnEventListRestricted
 .text.xTaskRemoveFromEventList
                0x0000000008024828       0x98 Middlewares/Third_Party/FreeRTOS/Source/tasks.o
                0x0000000008024828                xTaskRemoveFromEventList
 .text.vTaskSetTimeOutState
                0x00000000080248c0       0x3c Middlewares/Third_Party/FreeRTOS/Source/tasks.o
                0x00000000080248c0                vTaskSetTimeOutState
 .text.xTaskCheckForTimeOut
                0x00000000080248fc       0x98 Middlewares/Third_Party/FreeRTOS/Source/tasks.o
                0x00000000080248fc                xTaskCheckForTimeOut
 .text.vTaskMissedYield
                0x0000000008024994        0xc Middlewares/Third_Party/FreeRTOS/Source/tasks.o
                0x0000000008024994                vTaskMissedYield
 .text.xTaskGetSchedulerState
                0x00000000080249a0       0x20 Middlewares/Third_Party/FreeRTOS/Source/tasks.o
                0x00000000080249a0                xTaskGetSchedulerState
 .text.vTaskPriorityInherit
                0x00000000080249c0       0xa0 Middlewares/Third_Party/FreeRTOS/Source/tasks.o
                0x00000000080249c0                vTaskPriorityInherit
 .text.xTaskPriorityDisinherit
                0x0000000008024a60       0xcc Middlewares/Third_Party/FreeRTOS/Source/tasks.o
                0x0000000008024a60                xTaskPriorityDisinherit
 .text.pvTaskIncrementMutexHeldCount
                0x0000000008024b2c       0x1c Middlewares/Third_Party/FreeRTOS/Source/tasks.o
                0x0000000008024b2c                pvTaskIncrementMutexHeldCount
 .text.prvGetNextExpireTime
                0x0000000008024b48       0x20 Middlewares/Third_Party/FreeRTOS/Source/timers.o
 .text.prvInsertTimerInActiveList
                0x0000000008024b68       0x48 Middlewares/Third_Party/FreeRTOS/Source/timers.o
 .text.prvCheckForValidListAndQueue
                0x0000000008024bb0       0x5c Middlewares/Third_Party/FreeRTOS/Source/timers.o
 .text.prvInitialiseNewTimer
                0x0000000008024c0c       0x50 Middlewares/Third_Party/FreeRTOS/Source/timers.o
 .text.xTimerCreateTimerTask
                0x0000000008024c5c       0x5c Middlewares/Third_Party/FreeRTOS/Source/timers.o
                0x0000000008024c5c                xTimerCreateTimerTask
 .text.xTimerCreate
                0x0000000008024cb8       0x32 Middlewares/Third_Party/FreeRTOS/Source/timers.o
                0x0000000008024cb8                xTimerCreate
 *fill*         0x0000000008024cea        0x2 
 .text.xTimerGenericCommand
                0x0000000008024cec       0x78 Middlewares/Third_Party/FreeRTOS/Source/timers.o
                0x0000000008024cec                xTimerGenericCommand
 .text.prvSwitchTimerLists
                0x0000000008024d64       0x88 Middlewares/Third_Party/FreeRTOS/Source/timers.o
 .text.prvSampleTimeNow
                0x0000000008024dec       0x2c Middlewares/Third_Party/FreeRTOS/Source/timers.o
 .text.prvProcessExpiredTimer
                0x0000000008024e18       0x70 Middlewares/Third_Party/FreeRTOS/Source/timers.o
 .text.prvProcessTimerOrBlockTask
                0x0000000008024e88       0x74 Middlewares/Third_Party/FreeRTOS/Source/timers.o
 .text.prvProcessReceivedCommands
                0x0000000008024efc      0x10c Middlewares/Third_Party/FreeRTOS/Source/timers.o
 .text.prvTimerTask
                0x0000000008025008       0x16 Middlewares/Third_Party/FreeRTOS/Source/timers.o
 *fill*         0x000000000802501e        0x2 
 .text.prvPortStartFirstTask
                0x0000000008025020       0x20 Middlewares/Third_Party/FreeRTOS/Source/portable/GCC/ARM_CM4F/port.o
 .text.vPortEnableVFP
                0x0000000008025040       0x14 Middlewares/Third_Party/FreeRTOS/Source/portable/GCC/ARM_CM4F/port.o
 .text.prvTaskExitError
                0x0000000008025054       0x44 Middlewares/Third_Party/FreeRTOS/Source/portable/GCC/ARM_CM4F/port.o
 .text.pxPortInitialiseStack
                0x0000000008025098       0x2c Middlewares/Third_Party/FreeRTOS/Source/portable/GCC/ARM_CM4F/port.o
                0x0000000008025098                pxPortInitialiseStack
 *fill*         0x00000000080250c4        0xc 
 .text.SVC_Handler
                0x00000000080250d0       0x24 Middlewares/Third_Party/FreeRTOS/Source/portable/GCC/ARM_CM4F/port.o
                0x00000000080250d0                SVC_Handler
 .text.vPortEndScheduler
                0x00000000080250f4        0x2 Middlewares/Third_Party/FreeRTOS/Source/portable/GCC/ARM_CM4F/port.o
                0x00000000080250f4                vPortEndScheduler
 *fill*         0x00000000080250f6        0x2 
 .text.vPortEnterCritical
                0x00000000080250f8       0x54 Middlewares/Third_Party/FreeRTOS/Source/portable/GCC/ARM_CM4F/port.o
                0x00000000080250f8                vPortEnterCritical
 .text.vPortExitCritical
                0x000000000802514c       0x3c Middlewares/Third_Party/FreeRTOS/Source/portable/GCC/ARM_CM4F/port.o
                0x000000000802514c                vPortExitCritical
 *fill*         0x0000000008025188        0x8 
 .text.PendSV_Handler
                0x0000000008025190       0x64 Middlewares/Third_Party/FreeRTOS/Source/portable/GCC/ARM_CM4F/port.o
                0x0000000008025190                PendSV_Handler
 .text.xPortSysTickHandler
                0x00000000080251f4       0x2c Middlewares/Third_Party/FreeRTOS/Source/portable/GCC/ARM_CM4F/port.o
                0x00000000080251f4                xPortSysTickHandler
 .text.vPortSetupTimerInterrupt
                0x0000000008025220       0x2c Middlewares/Third_Party/FreeRTOS/Source/portable/GCC/ARM_CM4F/port.o
                0x0000000008025220                vPortSetupTimerInterrupt
 .text.xPortStartScheduler
                0x000000000802524c      0x104 Middlewares/Third_Party/FreeRTOS/Source/portable/GCC/ARM_CM4F/port.o
                0x000000000802524c                xPortStartScheduler
 .text.vPortValidateInterruptPriority
                0x0000000008025350       0x78 Middlewares/Third_Party/FreeRTOS/Source/portable/GCC/ARM_CM4F/port.o
                0x0000000008025350                vPortValidateInterruptPriority
 .text.prvHeapInit
                0x00000000080253c8       0x64 Middlewares/Third_Party/FreeRTOS/Source/portable/MemMang/heap_4.o
 .text.prvInsertBlockIntoFreeList
                0x000000000802542c       0x58 Middlewares/Third_Party/FreeRTOS/Source/portable/MemMang/heap_4.o
 .text.pvPortMalloc
                0x0000000008025484      0x13c Middlewares/Third_Party/FreeRTOS/Source/portable/MemMang/heap_4.o
                0x0000000008025484                pvPortMalloc
 .text.vPortFree
                0x00000000080255c0       0x88 Middlewares/Third_Party/FreeRTOS/Source/portable/MemMang/heap_4.o
                0x00000000080255c0                vPortFree
 .text.Reset_Handler
                0x0000000008025648       0x50 startup/startup_stm32f411xe.o
                0x0000000008025648                Reset_Handler
 .text.Default_Handler
                0x0000000008025698        0x2 startup/startup_stm32f411xe.o
                0x0000000008025698                RTC_Alarm_IRQHandler
                0x0000000008025698                EXTI2_IRQHandler
                0x0000000008025698                SPI4_IRQHandler
                0x0000000008025698                TIM1_CC_IRQHandler
                0x0000000008025698                DMA2_Stream5_IRQHandler
                0x0000000008025698                DMA1_Stream5_IRQHandler
                0x0000000008025698                PVD_IRQHandler
                0x0000000008025698                SDIO_IRQHandler
                0x0000000008025698                TAMP_STAMP_IRQHandler
                0x0000000008025698                EXTI3_IRQHandler
                0x0000000008025698                TIM1_UP_TIM10_IRQHandler
                0x0000000008025698                I2C3_ER_IRQHandler
                0x0000000008025698                EXTI0_IRQHandler
                0x0000000008025698                I2C2_EV_IRQHandler
                0x0000000008025698                DMA1_Stream2_IRQHandler
                0x0000000008025698                FPU_IRQHandler
                0x0000000008025698                DMA2_Stream2_IRQHandler
                0x0000000008025698                SPI1_IRQHandler
                0x0000000008025698                TIM1_BRK_TIM9_IRQHandler
                0x0000000008025698                DMA2_Stream3_IRQHandler
                0x0000000008025698                TIM4_IRQHandler
                0x0000000008025698                I2C1_EV_IRQHandler
                0x0000000008025698                DMA1_Stream6_IRQHandler
                0x0000000008025698                DMA1_Stream1_IRQHandler
                0x0000000008025698                TIM3_IRQHandler
                0x0000000008025698                RCC_IRQHandler
                0x0000000008025698                Default_Handler
                0x0000000008025698                EXTI15_10_IRQHandler
                0x0000000008025698                ADC_IRQHandler
                0x0000000008025698                DMA1_Stream7_IRQHandler
                0x0000000008025698                SPI5_IRQHandler
                0x0000000008025698                TIM5_IRQHandler
                0x0000000008025698                DMA2_Stream7_IRQHandler
                0x0000000008025698                I2C3_EV_IRQHandler
                0x0000000008025698                SPI2_IRQHandler
                0x0000000008025698                DMA1_Stream0_IRQHandler
                0x0000000008025698                WWDG_IRQHandler
                0x0000000008025698                TIM2_IRQHandler
                0x0000000008025698                OTG_FS_WKUP_IRQHandler
                0x0000000008025698                TIM1_TRG_COM_TIM11_IRQHandler
                0x0000000008025698                I2C2_ER_IRQHandler
                0x0000000008025698                DMA2_Stream1_IRQHandler
                0x0000000008025698                FLASH_IRQHandler
                0x0000000008025698                DMA2_Stream4_IRQHandler
                0x0000000008025698                USART1_IRQHandler
                0x0000000008025698                OTG_FS_IRQHandler
                0x0000000008025698                SPI3_IRQHandler
                0x0000000008025698                DMA1_Stream4_IRQHandler
                0x0000000008025698                I2C1_ER_IRQHandler
                0x0000000008025698                DMA2_Stream6_IRQHandler
                0x0000000008025698                DMA1_Stream3_IRQHandler
 .text.atoi     0x000000000802569a        0x8 d:/st/stm32cubeide_1.0.2/stm32cubeide/plugins/com.st.stm32cube.ide.mcu.externaltools.gnu-tools-for-stm32.7-2018-q2-update.win32_1.0.0.201904181610/tools/bin/../lib/gcc/arm-none-eabi/7.3.1/../../../../arm-none-eabi/lib/thumb/v7e-m/fpv4-sp/hard\libc_nano.a(lib_a-atoi.o)
                0x000000000802569a                atoi
 *fill*         0x00000000080256a2        0x2 
 .text.__libc_init_array
                0x00000000080256a4       0x48 d:/st/stm32cubeide_1.0.2/stm32cubeide/plugins/com.st.stm32cube.ide.mcu.externaltools.gnu-tools-for-stm32.7-2018-q2-update.win32_1.0.0.201904181610/tools/bin/../lib/gcc/arm-none-eabi/7.3.1/../../../../arm-none-eabi/lib/thumb/v7e-m/fpv4-sp/hard\libc_nano.a(lib_a-init.o)
                0x00000000080256a4                __libc_init_array
 .text.memcmp   0x00000000080256ec       0x1e d:/st/stm32cubeide_1.0.2/stm32cubeide/plugins/com.st.stm32cube.ide.mcu.externaltools.gnu-tools-for-stm32.7-2018-q2-update.win32_1.0.0.201904181610/tools/bin/../lib/gcc/arm-none-eabi/7.3.1/../../../../arm-none-eabi/lib/thumb/v7e-m/fpv4-sp/hard\libc_nano.a(lib_a-memcmp.o)
                0x00000000080256ec                memcmp
 .text.memcpy   0x000000000802570a       0x16 d:/st/stm32cubeide_1.0.2/stm32cubeide/plugins/com.st.stm32cube.ide.mcu.externaltools.gnu-tools-for-stm32.7-2018-q2-update.win32_1.0.0.201904181610/tools/bin/../lib/gcc/arm-none-eabi/7.3.1/../../../../arm-none-eabi/lib/thumb/v7e-m/fpv4-sp/hard\libc_nano.a(lib_a-memcpy-stub.o)
                0x000000000802570a                memcpy
 .text.memset   0x0000000008025720       0x10 d:/st/stm32cubeide_1.0.2/stm32cubeide/plugins/com.st.stm32cube.ide.mcu.externaltools.gnu-tools-for-stm32.7-2018-q2-update.win32_1.0.0.201904181610/tools/bin/../lib/gcc/arm-none-eabi/7.3.1/../../../../arm-none-eabi/lib/thumb/v7e-m/fpv4-sp/hard\libc_nano.a(lib_a-memset.o)
                0x0000000008025720                memset
 .text.strcat   0x0000000008025730       0x1e d:/st/stm32cubeide_1.0.2/stm32cubeide/plugins/com.st.stm32cube.ide.mcu.externaltools.gnu-tools-for-stm32.7-2018-q2-update.win32_1.0.0.201904181610/tools/bin/../lib/gcc/arm-none-eabi/7.3.1/../../../../arm-none-eabi/lib/thumb/v7e-m/fpv4-sp/hard\libc_nano.a(lib_a-strcat.o)
                0x0000000008025730                strcat
 .text.strcpy   0x000000000802574e       0x10 d:/st/stm32cubeide_1.0.2/stm32cubeide/plugins/com.st.stm32cube.ide.mcu.externaltools.gnu-tools-for-stm32.7-2018-q2-update.win32_1.0.0.201904181610/tools/bin/../lib/gcc/arm-none-eabi/7.3.1/../../../../arm-none-eabi/lib/thumb/v7e-m/fpv4-sp/hard\libc_nano.a(lib_a-strcpy.o)
                0x000000000802574e                strcpy
 .text.strncpy  0x000000000802575e       0x2a d:/st/stm32cubeide_1.0.2/stm32cubeide/plugins/com.st.stm32cube.ide.mcu.externaltools.gnu-tools-for-stm32.7-2018-q2-update.win32_1.0.0.201904181610/tools/bin/../lib/gcc/arm-none-eabi/7.3.1/../../../../arm-none-eabi/lib/thumb/v7e-m/fpv4-sp/hard\libc_nano.a(lib_a-strncpy.o)
                0x000000000802575e                strncpy
 .text._strtol_l.isra.0
                0x0000000008025788       0xf6 d:/st/stm32cubeide_1.0.2/stm32cubeide/plugins/com.st.stm32cube.ide.mcu.externaltools.gnu-tools-for-stm32.7-2018-q2-update.win32_1.0.0.201904181610/tools/bin/../lib/gcc/arm-none-eabi/7.3.1/../../../../arm-none-eabi/lib/thumb/v7e-m/fpv4-sp/hard\libc_nano.a(lib_a-strtol.o)
 *fill*         0x000000000802587e        0x2 
 .text.strtol   0x0000000008025880       0x2c d:/st/stm32cubeide_1.0.2/stm32cubeide/plugins/com.st.stm32cube.ide.mcu.externaltools.gnu-tools-for-stm32.7-2018-q2-update.win32_1.0.0.201904181610/tools/bin/../lib/gcc/arm-none-eabi/7.3.1/../../../../arm-none-eabi/lib/thumb/v7e-m/fpv4-sp/hard\libc_nano.a(lib_a-strtol.o)
                0x0000000008025880                strtol
 .text.__locale_ctype_ptr_l
                0x00000000080258ac        0x6 d:/st/stm32cubeide_1.0.2/stm32cubeide/plugins/com.st.stm32cube.ide.mcu.externaltools.gnu-tools-for-stm32.7-2018-q2-update.win32_1.0.0.201904181610/tools/bin/../lib/gcc/arm-none-eabi/7.3.1/../../../../arm-none-eabi/lib/thumb/v7e-m/fpv4-sp/hard\libc_nano.a(lib_a-locale.o)
                0x00000000080258ac                __locale_ctype_ptr_l
 .text.__ascii_mbtowc
                0x00000000080258b2       0x24 d:/st/stm32cubeide_1.0.2/stm32cubeide/plugins/com.st.stm32cube.ide.mcu.externaltools.gnu-tools-for-stm32.7-2018-q2-update.win32_1.0.0.201904181610/tools/bin/../lib/gcc/arm-none-eabi/7.3.1/../../../../arm-none-eabi/lib/thumb/v7e-m/fpv4-sp/hard\libc_nano.a(lib_a-mbtowc_r.o)
                0x00000000080258b2                __ascii_mbtowc
 .text.__ascii_wctomb
                0x00000000080258d6       0x1a d:/st/stm32cubeide_1.0.2/stm32cubeide/plugins/com.st.stm32cube.ide.mcu.externaltools.gnu-tools-for-stm32.7-2018-q2-update.win32_1.0.0.201904181610/tools/bin/../lib/gcc/arm-none-eabi/7.3.1/../../../../arm-none-eabi/lib/thumb/v7e-m/fpv4-sp/hard\libc_nano.a(lib_a-wctomb_r.o)
                0x00000000080258d6                __ascii_wctomb
 *(.glue_7)
 .glue_7        0x00000000080258f0        0x0 linker stubs
 *(.glue_7t)
 .glue_7t       0x00000000080258f0        0x0 linker stubs
 *(.eh_frame)
 .eh_frame      0x00000000080258f0        0x0 d:/st/stm32cubeide_1.0.2/stm32cubeide/plugins/com.st.stm32cube.ide.mcu.externaltools.gnu-tools-for-stm32.7-2018-q2-update.win32_1.0.0.201904181610/tools/bin/../lib/gcc/arm-none-eabi/7.3.1/thumb/v7e-m/fpv4-sp/hard/crtbegin.o
 *(.init)
 .init          0x00000000080258f0        0x4 d:/st/stm32cubeide_1.0.2/stm32cubeide/plugins/com.st.stm32cube.ide.mcu.externaltools.gnu-tools-for-stm32.7-2018-q2-update.win32_1.0.0.201904181610/tools/bin/../lib/gcc/arm-none-eabi/7.3.1/thumb/v7e-m/fpv4-sp/hard/crti.o
                0x00000000080258f0                _init
 .init          0x00000000080258f4        0x8 d:/st/stm32cubeide_1.0.2/stm32cubeide/plugins/com.st.stm32cube.ide.mcu.externaltools.gnu-tools-for-stm32.7-2018-q2-update.win32_1.0.0.201904181610/tools/bin/../lib/gcc/arm-none-eabi/7.3.1/thumb/v7e-m/fpv4-sp/hard/crtn.o
 *(.fini)
 .fini          0x00000000080258fc        0x4 d:/st/stm32cubeide_1.0.2/stm32cubeide/plugins/com.st.stm32cube.ide.mcu.externaltools.gnu-tools-for-stm32.7-2018-q2-update.win32_1.0.0.201904181610/tools/bin/../lib/gcc/arm-none-eabi/7.3.1/thumb/v7e-m/fpv4-sp/hard/crti.o
                0x00000000080258fc                _fini
 .fini          0x0000000008025900        0x8 d:/st/stm32cubeide_1.0.2/stm32cubeide/plugins/com.st.stm32cube.ide.mcu.externaltools.gnu-tools-for-stm32.7-2018-q2-update.win32_1.0.0.201904181610/tools/bin/../lib/gcc/arm-none-eabi/7.3.1/thumb/v7e-m/fpv4-sp/hard/crtn.o
                0x0000000008025908                . = ALIGN (0x4)
                0x0000000008025908                _etext = .

.vfp11_veneer   0x0000000008025908        0x0
 .vfp11_veneer  0x0000000008025908        0x0 linker stubs

.v4_bx          0x0000000008025908        0x0
 .v4_bx         0x0000000008025908        0x0 linker stubs

.iplt           0x0000000008025908        0x0
 .iplt          0x0000000008025908        0x0 d:/st/stm32cubeide_1.0.2/stm32cubeide/plugins/com.st.stm32cube.ide.mcu.externaltools.gnu-tools-for-stm32.7-2018-q2-update.win32_1.0.0.201904181610/tools/bin/../lib/gcc/arm-none-eabi/7.3.1/thumb/v7e-m/fpv4-sp/hard/crtbegin.o

.rodata         0x0000000008025908     0xf4d0
                0x0000000008025908                . = ALIGN (0x4)
 *(.rodata)
 .rodata        0x0000000008025908        0x8 Core/Src/ctp.o
 .rodata        0x0000000008025910       0x28 Core/Src/main.o
 .rodata        0x0000000008025938       0x14 Core/Src/user.o
 *(.rodata*)
 .rodata.inpInit.str1.4
                0x000000000802594c       0x1a Core/Src/DecodInput.o
 *fill*         0x0000000008025966        0x2 
 .rodata.inpMonitor.str1.4
                0x0000000008025968       0xf7 Core/Src/DecodInput.o
                                         0xfb (size before relaxing)
 *fill*         0x0000000008025a5f        0x1 
 .rodata.Ft_Gpu_Hal_StartTransfer.str1.4
                0x0000000008025a60       0x18 Core/Src/FT_Gpu_Hal.o
 .rodata.Ft_Gpu_Hal_Transfer8.str1.4
                0x0000000008025a78       0x18 Core/Src/FT_Gpu_Hal.o
 .rodata.Ft_Gpu_HostCommand.str1.4
                0x0000000008025a90       0x24 Core/Src/FT_Gpu_Hal.o
 .rodata.reqAccumBmap
                0x0000000008025ab4        0xa Core/Src/OT_Plus.o
                0x0000000008025ab4                reqAccumBmap
 *fill*         0x0000000008025abe        0x2 
 .rodata.reqConfigIdro
                0x0000000008025ac0        0xa Core/Src/OT_Plus.o
                0x0000000008025ac0                reqConfigIdro
 *fill*         0x0000000008025aca        0x2 
 .rodata.reqEcoBmap_NFan
                0x0000000008025acc        0xa Core/Src/OT_Plus.o
                0x0000000008025acc                reqEcoBmap_NFan
 *fill*         0x0000000008025ad6        0x2 
 .rodata.reqFireFan
                0x0000000008025ad8        0xa Core/Src/OT_Plus.o
                0x0000000008025ad8                reqFireFan
 *fill*         0x0000000008025ae2        0x2 
 .rodata.reqISOCode
                0x0000000008025ae4        0xa Core/Src/OT_Plus.o
                0x0000000008025ae4                reqISOCode
 *fill*         0x0000000008025aee        0x2 
 .rodata.reqInputStato_Misure_1
                0x0000000008025af0        0xa Core/Src/OT_Plus.o
                0x0000000008025af0                reqInputStato_Misure_1
 *fill*         0x0000000008025afa        0x2 
 .rodata.reqInputStato_Misure_2
                0x0000000008025afc        0xa Core/Src/OT_Plus.o
                0x0000000008025afc                reqInputStato_Misure_2
 *fill*         0x0000000008025b06        0x2 
 .rodata.reqLimitsFireFan
                0x0000000008025b08        0xa Core/Src/OT_Plus.o
                0x0000000008025b08                reqLimitsFireFan
 *fill*         0x0000000008025b12        0x2 
 .rodata.reqLinguaDef
                0x0000000008025b14        0xa Core/Src/OT_Plus.o
                0x0000000008025b14                reqLinguaDef
 *fill*         0x0000000008025b1e        0x2 
 .rodata.reqLogo
                0x0000000008025b20        0xa Core/Src/OT_Plus.o
                0x0000000008025b20                reqLogo
 *fill*         0x0000000008025b2a        0x2 
 .rodata.reqMaxPower
                0x0000000008025b2c        0xa Core/Src/OT_Plus.o
                0x0000000008025b2c                reqMaxPower
 *fill*         0x0000000008025b36        0x2 
 .rodata.reqPassword
                0x0000000008025b38        0xa Core/Src/OT_Plus.o
                0x0000000008025b38                reqPassword
 *fill*         0x0000000008025b42        0x2 
 .rodata.reqReleTermBmap
                0x0000000008025b44        0xa Core/Src/OT_Plus.o
                0x0000000008025b44                reqReleTermBmap
 *fill*         0x0000000008025b4e        0x2 
 .rodata.reqSet_Status
                0x0000000008025b50       0x2c Core/Src/OT_Plus.o
 .rodata.reqSet_tab
                0x0000000008025b7c        0x8 Core/Src/OT_Plus.o
 .rodata.reqSoundAlarmBmap
                0x0000000008025b84        0xa Core/Src/OT_Plus.o
                0x0000000008025b84                reqSoundAlarmBmap
 *fill*         0x0000000008025b8e        0x2 
 .rodata.reqTempPx
                0x0000000008025b90        0xa Core/Src/OT_Plus.o
                0x0000000008025b90                reqTempPx
 *fill*         0x0000000008025b9a        0x2 
 .rodata.reqTermAmbBmap
                0x0000000008025b9c        0xa Core/Src/OT_Plus.o
                0x0000000008025b9c                reqTermAmbBmap
 *fill*         0x0000000008025ba6        0x2 
 .rodata.reqTipoDesc_1_2
                0x0000000008025ba8        0xa Core/Src/OT_Plus.o
                0x0000000008025ba8                reqTipoDesc_1_2
 *fill*         0x0000000008025bb2        0x2 
 .rodata.reqTipoDesc_3_4
                0x0000000008025bb4        0xa Core/Src/OT_Plus.o
                0x0000000008025bb4                reqTipoDesc_3_4
 *fill*         0x0000000008025bbe        0x2 
 .rodata.reqTipoDesc_5_6
                0x0000000008025bc0        0xa Core/Src/OT_Plus.o
                0x0000000008025bc0                reqTipoDesc_5_6
 *fill*         0x0000000008025bca        0x2 
 .rodata.reqTipoDesc_7_8
                0x0000000008025bcc        0xa Core/Src/OT_Plus.o
                0x0000000008025bcc                reqTipoDesc_7_8
 *fill*         0x0000000008025bd6        0x2 
 .rodata.reqTipoStufa
                0x0000000008025bd8        0xa Core/Src/OT_Plus.o
                0x0000000008025bd8                reqTipoStufa
 *fill*         0x0000000008025be2        0x2 
 .rodata.reqVerFW
                0x0000000008025be4        0xa Core/Src/OT_Plus.o
                0x0000000008025be4                reqVerFW
 *fill*         0x0000000008025bee        0x2 
 .rodata.reqWiFiBmap
                0x0000000008025bf0        0xa Core/Src/OT_Plus.o
                0x0000000008025bf0                reqWiFiBmap
 *fill*         0x0000000008025bfa        0x2 
 .rodata.Coil_tab
                0x0000000008025bfc       0x10 Core/Src/OT_Plus_tabelle.o
                0x0000000008025bfc                Coil_tab
 .rodata.HoldReg2_tab
                0x0000000008025c0c      0x220 Core/Src/OT_Plus_tabelle.o
                0x0000000008025c0c                HoldReg2_tab
 .rodata.HoldReg3_tab
                0x0000000008025e2c      0x410 Core/Src/OT_Plus_tabelle.o
                0x0000000008025e2c                HoldReg3_tab
 .rodata.HoldReg_tab
                0x000000000802623c      0xa48 Core/Src/OT_Plus_tabelle.o
                0x000000000802623c                HoldReg_tab
 .rodata.InpReg_tab
                0x0000000008026c84      0x3a0 Core/Src/OT_Plus_tabelle.o
                0x0000000008026c84                InpReg_tab
 .rodata.Limits3_tab
                0x0000000008027024      0x30c Core/Src/OT_Plus_tabelle.o
                0x0000000008027024                Limits3_tab
 .rodata.LimitsReq_tab
                0x0000000008027330      0x114 Core/Src/OT_Plus_tabelle.o
                0x0000000008027330                LimitsReq_tab
 .rodata.Group_tab
                0x0000000008027444       0x30 Core/Src/User_Parametri.o
                0x0000000008027444                Group_tab
 .rodata.Param_tab
                0x0000000008027474     0x6920 Core/Src/User_Parametri.o
                0x0000000008027474                Param_tab
 .rodata.ShowTemp_StrInd_tab
                0x000000000802dd94        0x6 Core/Src/User_Parametri.o
                0x000000000802dd94                ShowTemp_StrInd_tab
 *fill*         0x000000000802dd9a        0x2 
 .rodata.sOnOff_tab
                0x000000000802dd9c        0x4 Core/Src/User_Parametri.o
                0x000000000802dd9c                sOnOff_tab
 .rodata.sWeekDay_tab
                0x000000000802dda0        0xe Core/Src/User_Parametri.o
                0x000000000802dda0                sWeekDay_tab
 *fill*         0x000000000802ddae        0x2 
 .rodata.userVisPar.str1.4
                0x000000000802ddb0        0xc Core/Src/User_Parametri.o
 .rodata.CronoProfile
                0x000000000802ddbc       0xb4 Core/Src/crono.o
                0x000000000802ddbc                CronoProfile
 .rodata.vApplicationMallocFailedHook.str1.4
                0x000000000802de70        0xf Core/Src/freertos.o
 *fill*         0x000000000802de7f        0x1 
 .rodata.vApplicationStackOverflowHook.str1.4
                0x000000000802de80       0x1e Core/Src/freertos.o
 *fill*         0x000000000802de9e        0x2 
 .rodata.pChLogoDefault
                0x000000000802dea0       0x11 Core/Src/languages.o
                0x000000000802dea0                pChLogoDefault
 *fill*         0x000000000802deb1        0x3 
 .rodata.pSetMsg
                0x000000000802deb4        0x8 Core/Src/languages.o
                0x000000000802deb4                pSetMsg
 .rodata.sBitmapLoadError
                0x000000000802debc       0x18 Core/Src/languages.o
                0x000000000802debc                sBitmapLoadError
 .rodata.sBlank
                0x000000000802ded4       0x16 Core/Src/languages.o
                0x000000000802ded4                sBlank
 *fill*         0x000000000802deea        0x2 
 .rodata.sCLOSE
                0x000000000802deec        0x6 Core/Src/languages.o
                0x000000000802deec                sCLOSE
 *fill*         0x000000000802def2        0x2 
 .rodata.sDescParInit
                0x000000000802def4        0x5 Core/Src/languages.o
                0x000000000802def4                sDescParInit
 *fill*         0x000000000802def9        0x3 
 .rodata.sESM   0x000000000802defc        0x4 Core/Src/languages.o
                0x000000000802defc                sESM
 .rodata.sOPEN  0x000000000802df00        0x6 Core/Src/languages.o
                0x000000000802df00                sOPEN
 *fill*         0x000000000802df06        0x2 
 .rodata.sSubMenu
                0x000000000802df08        0x7 Core/Src/languages.o
                0x000000000802df08                sSubMenu
 *fill*         0x000000000802df0f        0x1 
 .rodata.Check4StandbyPause.str1.4
                0x000000000802df10       0x4d Core/Src/main.o
 *fill*         0x000000000802df5d        0x3 
 .rodata.Error_Handler.str1.4
                0x000000000802df60        0xc Core/Src/main.o
 .rodata.Main_Task.str1.4
                0x000000000802df6c       0x43 Core/Src/main.o
 *fill*         0x000000000802dfaf        0x1 
 .rodata.SleepOnBatteryCharge.str1.4
                0x000000000802dfb0       0x61 Core/Src/main.o
 *fill*         0x000000000802e011        0x3 
 .rodata.SystemOff.str1.4
                0x000000000802e014       0x68 Core/Src/main.o
 .rodata.SystemRestart.str1.4
                0x000000000802e07c       0x11 Core/Src/main.o
 *fill*         0x000000000802e08d        0x3 
 .rodata.assert_failed.str1.4
                0x000000000802e090       0x2d Core/Src/main.o
 *fill*         0x000000000802e0bd        0x3 
 .rodata.main.str1.4
                0x000000000802e0c0       0x4e Core/Src/main.o
                                         0x5a (size before relaxing)
 *fill*         0x000000000802e10e        0x2 
 .rodata.os_mutex_def_DF0Mutex
                0x000000000802e110        0x4 Core/Src/main.o
                0x000000000802e110                os_mutex_def_DF0Mutex
 .rodata.os_mutex_def_EVEMutex
                0x000000000802e114        0x4 Core/Src/main.o
                0x000000000802e114                os_mutex_def_EVEMutex
 .rodata.os_mutex_def_I2CMutex
                0x000000000802e118        0x4 Core/Src/main.o
                0x000000000802e118                os_mutex_def_I2CMutex
 .rodata.os_mutex_def_printfMutex
                0x000000000802e11c        0x4 Core/Src/main.o
                0x000000000802e11c                os_mutex_def_printfMutex
 .rodata.str1.4
                0x000000000802e120        0xd Core/Src/main.o
 *fill*         0x000000000802e12d        0x3 
 .rodata.aucCRCHi
                0x000000000802e130      0x100 Core/Src/mbcrc.o
 .rodata.aucCRCLo
                0x000000000802e230      0x100 Core/Src/mbcrc.o
 .rodata.print.str1.4
                0x000000000802e330        0x7 Core/Src/printf-stdarg.o
 *fill*         0x000000000802e337        0x1 
 .rodata.LoadFonts.str1.4
                0x000000000802e338        0xf Core/Src/res.o
 *fill*         0x000000000802e347        0x1 
 .rodata.res_bm_Reset.str1.4
                0x000000000802e348       0x13 Core/Src/res.o
 *fill*         0x000000000802e35b        0x1 
 .rodata.DayMonth
                0x000000000802e35c        0xc Core/Src/rtc.o
 .rodata.SecMonth
                0x000000000802e368       0x30 Core/Src/rtc.o
 .rodata.ds     0x000000000802e398        0x4 Core/Src/rtc.o
 .rodata.ys     0x000000000802e39c        0x8 Core/Src/rtc.o
 .rodata.AbilPeriodoCoclea2_ENG
                0x000000000802e3a4       0x1e Core/Src/stringhe_ENG.o
 *fill*         0x000000000802e3c2        0x2 
 .rodata.AbilPeriodoCoclea_ENG
                0x000000000802e3c4       0x1e Core/Src/stringhe_ENG.o
 *fill*         0x000000000802e3e2        0x2 
 .rodata.Abilitazione_ENG
                0x000000000802e3e4        0x7 Core/Src/stringhe_ENG.o
 *fill*         0x000000000802e3eb        0x1 
 .rodata.AccA_ENG
                0x000000000802e3ec        0xb Core/Src/stringhe_ENG.o
 *fill*         0x000000000802e3f7        0x1 
 .rodata.AccB_ENG
                0x000000000802e3f8        0xb Core/Src/stringhe_ENG.o
 *fill*         0x000000000802e403        0x1 
 .rodata.AccDeltaTempCaldo_ENG
                0x000000000802e404       0x11 Core/Src/stringhe_ENG.o
 *fill*         0x000000000802e415        0x3 
 .rodata.AccFotoResistenza_ENG
                0x000000000802e418        0xe Core/Src/stringhe_ENG.o
 *fill*         0x000000000802e426        0x2 
 .rodata.AccMaxTimeFireOn_ENG
                0x000000000802e428       0x11 Core/Src/stringhe_ENG.o
 *fill*         0x000000000802e439        0x3 
 .rodata.AccMaxTimeSpe_ENG
                0x000000000802e43c       0x12 Core/Src/stringhe_ENG.o
 *fill*         0x000000000802e44e        0x2 
 .rodata.AccMaxTimeWarmUp_ENG
                0x000000000802e450       0x16 Core/Src/stringhe_ENG.o
 *fill*         0x000000000802e466        0x2 
 .rodata.AccTempOffFumi_ENG
                0x000000000802e468       0x10 Core/Src/stringhe_ENG.o
 .rodata.AccTempOnFumi_ENG
                0x000000000802e478        0xf Core/Src/stringhe_ENG.o
 *fill*         0x000000000802e487        0x1 
 .rodata.AccTempSogliaFumi_ENG
                0x000000000802e488        0xf Core/Src/stringhe_ENG.o
 *fill*         0x000000000802e497        0x1 
 .rodata.AccTempoInc_ENG
                0x000000000802e498       0x1a Core/Src/stringhe_ENG.o
 *fill*         0x000000000802e4b2        0x2 
 .rodata.AccTempoPreLoad_ENG
                0x000000000802e4b4       0x17 Core/Src/stringhe_ENG.o
 *fill*         0x000000000802e4cb        0x1 
 .rodata.AccTempoPreacc2_ENG
                0x000000000802e4cc       0x1a Core/Src/stringhe_ENG.o
 *fill*         0x000000000802e4e6        0x2 
 .rodata.AccTempoPreacc_ENG
                0x000000000802e4e8       0x17 Core/Src/stringhe_ENG.o
 *fill*         0x000000000802e4ff        0x1 
 .rodata.AccTermocoppia_ENG
                0x000000000802e500        0xd Core/Src/stringhe_ENG.o
 *fill*         0x000000000802e50d        0x3 
 .rodata.AlarmRecovery00_ENG
                0x000000000802e510        0x1 Core/Src/stringhe_ENG.o
 *fill*         0x000000000802e511        0x3 
 .rodata.AlarmRecovery01_ENG
                0x000000000802e514       0x1a Core/Src/stringhe_ENG.o
 *fill*         0x000000000802e52e        0x2 
 .rodata.AlarmRecovery02_ENG
                0x000000000802e530       0x11 Core/Src/stringhe_ENG.o
 *fill*         0x000000000802e541        0x3 
 .rodata.AlarmRecovery03_ENG
                0x000000000802e544       0x17 Core/Src/stringhe_ENG.o
 *fill*         0x000000000802e55b        0x1 
 .rodata.AlarmRecovery05_ENG
                0x000000000802e55c       0x1e Core/Src/stringhe_ENG.o
 *fill*         0x000000000802e57a        0x2 
 .rodata.AlarmRecovery06_ENG
                0x000000000802e57c       0x2a Core/Src/stringhe_ENG.o
 *fill*         0x000000000802e5a6        0x2 
 .rodata.AlarmRecovery07_ENG
                0x000000000802e5a8       0x18 Core/Src/stringhe_ENG.o
 .rodata.AlarmRecovery08_ENG
                0x000000000802e5c0       0x10 Core/Src/stringhe_ENG.o
 .rodata.AlarmRecovery15_ENG
                0x000000000802e5d0       0x13 Core/Src/stringhe_ENG.o
 *fill*         0x000000000802e5e3        0x1 
 .rodata.AlarmRecovery16_ENG
                0x000000000802e5e4       0x2b Core/Src/stringhe_ENG.o
 *fill*         0x000000000802e60f        0x1 
 .rodata.AlarmRecovery17_ENG
                0x000000000802e610       0x24 Core/Src/stringhe_ENG.o
 .rodata.AlarmSource00_ENG
                0x000000000802e634        0x1 Core/Src/stringhe_ENG.o
 *fill*         0x000000000802e635        0x3 
 .rodata.AlarmSource01_ENG
                0x000000000802e638       0x10 Core/Src/stringhe_ENG.o
 .rodata.AlarmSource02_ENG
                0x000000000802e648       0x10 Core/Src/stringhe_ENG.o
 .rodata.AlarmSource03_ENG
                0x000000000802e658       0x1d Core/Src/stringhe_ENG.o
 *fill*         0x000000000802e675        0x3 
 .rodata.AlarmSource04_ENG
                0x000000000802e678       0x17 Core/Src/stringhe_ENG.o
 *fill*         0x000000000802e68f        0x1 
 .rodata.AlarmSource05_ENG
                0x000000000802e690       0x1c Core/Src/stringhe_ENG.o
 .rodata.AlarmSource06_ENG
                0x000000000802e6ac       0x19 Core/Src/stringhe_ENG.o
 *fill*         0x000000000802e6c5        0x3 
 .rodata.AlarmSource07_ENG
                0x000000000802e6c8        0xa Core/Src/stringhe_ENG.o
 *fill*         0x000000000802e6d2        0x2 
 .rodata.AlarmSource08_ENG
                0x000000000802e6d4       0x16 Core/Src/stringhe_ENG.o
 *fill*         0x000000000802e6ea        0x2 
 .rodata.AlarmSource09_ENG
                0x000000000802e6ec       0x19 Core/Src/stringhe_ENG.o
 *fill*         0x000000000802e705        0x3 
 .rodata.AlarmSource10_ENG
                0x000000000802e708       0x15 Core/Src/stringhe_ENG.o
 *fill*         0x000000000802e71d        0x3 
 .rodata.AlarmSource11_ENG
                0x000000000802e720       0x14 Core/Src/stringhe_ENG.o
 .rodata.AlarmSource13_ENG
                0x000000000802e734       0x1d Core/Src/stringhe_ENG.o
 *fill*         0x000000000802e751        0x3 
 .rodata.AlarmSource15_ENG
                0x000000000802e754       0x13 Core/Src/stringhe_ENG.o
 *fill*         0x000000000802e767        0x1 
 .rodata.AlarmSource16_ENG
                0x000000000802e768       0x1c Core/Src/stringhe_ENG.o
 .rodata.AlarmSource17_ENG
                0x000000000802e784       0x16 Core/Src/stringhe_ENG.o
 *fill*         0x000000000802e79a        0x2 
 .rodata.AlarmSource18_ENG
                0x000000000802e79c       0x1c Core/Src/stringhe_ENG.o
 .rodata.Alarm_ENG
                0x000000000802e7b8        0x6 Core/Src/stringhe_ENG.o
 *fill*         0x000000000802e7be        0x2 
 .rodata.AllarmeFumi_ENG
                0x000000000802e7c0        0xc Core/Src/stringhe_ENG.o
 .rodata.AlmFumi_DurataPreAlm_ENG
                0x000000000802e7cc       0x1e Core/Src/stringhe_ENG.o
 *fill*         0x000000000802e7ea        0x2 
 .rodata.AlmFumi_GradientePreAlm_ENG
                0x000000000802e7ec       0x15 Core/Src/stringhe_ENG.o
 *fill*         0x000000000802e801        0x3 
 .rodata.AlmFumi_InibPreAlm_ENG
                0x000000000802e804       0x15 Core/Src/stringhe_ENG.o
 *fill*         0x000000000802e819        0x3 
 .rodata.AlmFumi_TempAlm_ENG
                0x000000000802e81c       0x12 Core/Src/stringhe_ENG.o
 *fill*         0x000000000802e82e        0x2 
 .rodata.AlmFumi_TempPreAlm_ENG
                0x000000000802e830       0x16 Core/Src/stringhe_ENG.o
 *fill*         0x000000000802e846        0x2 
 .rodata.Aria_DeltaPortAriaCombust_ENG
                0x000000000802e848       0x19 Core/Src/stringhe_ENG.o
 *fill*         0x000000000802e861        0x3 
 .rodata.Aria_InibAlmAriaCombust_ENG
                0x000000000802e864       0x21 Core/Src/stringhe_ENG.o
 *fill*         0x000000000802e885        0x3 
 .rodata.Aria_PortataCritica_ENG
                0x000000000802e888       0x14 Core/Src/stringhe_ENG.o
 .rodata.Aria_TempoAlmPorta_ENG
                0x000000000802e89c       0x13 Core/Src/stringhe_ENG.o
 *fill*         0x000000000802e8af        0x1 
 .rodata.Aria_TempoPreAlmAriaCombust_ENG
                0x000000000802e8b0       0x26 Core/Src/stringhe_ENG.o
 *fill*         0x000000000802e8d6        0x2 
 .rodata.Aria_TempoPreAlmPorta_ENG
                0x000000000802e8d8       0x1d Core/Src/stringhe_ENG.o
 *fill*         0x000000000802e8f5        0x3 
 .rodata.AttesaPB_ENG
                0x000000000802e8f8        0x9 Core/Src/stringhe_ENG.o
 *fill*         0x000000000802e901        0x3 
 .rodata.Attiva_Pompa_ENG
                0x000000000802e904        0xb Core/Src/stringhe_ENG.o
 *fill*         0x000000000802e90f        0x1 
 .rodata.Attiva_Pulizia_ENG
                0x000000000802e910        0x9 Core/Src/stringhe_ENG.o
 *fill*         0x000000000802e919        0x3 
 .rodata.AttuaEspulsore2_ENG
                0x000000000802e91c        0xc Core/Src/stringhe_ENG.o
 .rodata.AttuaFan1_ENG
                0x000000000802e928       0x11 Core/Src/stringhe_ENG.o
 *fill*         0x000000000802e939        0x3 
 .rodata.AttuaFan2_ENG
                0x000000000802e93c       0x11 Core/Src/stringhe_ENG.o
 *fill*         0x000000000802e94d        0x3 
 .rodata.AttuaFan3_ENG
                0x000000000802e950       0x11 Core/Src/stringhe_ENG.o
 *fill*         0x000000000802e961        0x3 
 .rodata.AttuaGiriEsp2_ENG
                0x000000000802e964       0x10 Core/Src/stringhe_ENG.o
 .rodata.AttuaGiriEsp_ENG
                0x000000000802e974       0x10 Core/Src/stringhe_ENG.o
 .rodata.AttuaPortata_ENG
                0x000000000802e984        0x8 Core/Src/stringhe_ENG.o
 .rodata.AttuaPotenza_ENG
                0x000000000802e98c        0x6 Core/Src/stringhe_ENG.o
 *fill*         0x000000000802e992        0x2 
 .rodata.AttuaTempoOffCoclea1_ENG
                0x000000000802e994       0x19 Core/Src/stringhe_ENG.o
 *fill*         0x000000000802e9ad        0x3 
 .rodata.AttuaTempoOffCoclea2_ENG
                0x000000000802e9b0       0x19 Core/Src/stringhe_ENG.o
 *fill*         0x000000000802e9c9        0x3 
 .rodata.AttuaTempoOnCoclea1_ENG
                0x000000000802e9cc       0x18 Core/Src/stringhe_ENG.o
 .rodata.AttuaTempoOnCoclea2_ENG
                0x000000000802e9e4       0x18 Core/Src/stringhe_ENG.o
 .rodata.AttuaTransitorie_ENG
                0x000000000802e9fc       0x12 Core/Src/stringhe_ENG.o
 *fill*         0x000000000802ea0e        0x2 
 .rodata.Attuazioni_ENG
                0x000000000802ea10        0xc Core/Src/stringhe_ENG.o
 .rodata.Azzera_ENG
                0x000000000802ea1c        0x6 Core/Src/stringhe_ENG.o
 *fill*         0x000000000802ea22        0x2 
 .rodata.BlackoutDurata_ENG
                0x000000000802ea24       0x11 Core/Src/stringhe_ENG.o
 *fill*         0x000000000802ea35        0x3 
 .rodata.BlackoutRipristino_ENG
                0x000000000802ea38       0x10 Core/Src/stringhe_ENG.o
 .rodata.Blackout_ENG
                0x000000000802ea48        0x9 Core/Src/stringhe_ENG.o
 *fill*         0x000000000802ea51        0x3 
 .rodata.CaricaProfilo_ENG
                0x000000000802ea54        0xd Core/Src/stringhe_ENG.o
